{"abi":[{"type":"constructor","inputs":[{"name":"initialCheckpointHeight","type":"uint256","internalType":"uint256"},{"name":"initialBlockHash","type":"bytes32","internalType":"bytes32"},{"name":"verifierContractAddress","type":"address","internalType":"address"},{"name":"depositTokenAddress","type":"address","internalType":"address"},{"name":"minDeposit","type":"uint256","internalType":"uint256"},{"name":"maxDeposit","type":"uint256","internalType":"uint256"}],"stateMutability":"nonpayable"},{"type":"function","name":"CHALLENGE_PERIOD","inputs":[],"outputs":[{"name":"","type":"uint256","internalType":"uint256"}],"stateMutability":"view"},{"type":"function","name":"DEPOSIT_TOKEN","inputs":[],"outputs":[{"name":"","type":"address","internalType":"contract IERC20"}],"stateMutability":"view"},{"type":"function","name":"MAX_DEPOSIT","inputs":[],"outputs":[{"name":"","type":"uint256","internalType":"uint256"}],"stateMutability":"view"},{"type":"function","name":"MAX_DEPOSIT_OUTPUTS","inputs":[],"outputs":[{"name":"","type":"uint16","internalType":"uint16"}],"stateMutability":"view"},{"type":"function","name":"MIN_DEPOSIT","inputs":[],"outputs":[{"name":"","type":"uint256","internalType":"uint256"}],"stateMutability":"view"},{"type":"function","name":"MIN_ORDER_GAS_MULTIPLIER","inputs":[],"outputs":[{"name":"","type":"uint256","internalType":"uint256"}],"stateMutability":"view"},{"type":"function","name":"PROOF_GAS_COST","inputs":[],"outputs":[{"name":"","type":"uint256","internalType":"uint256"}],"stateMutability":"view"},{"type":"function","name":"RELEASE_GAS_COST","inputs":[],"outputs":[{"name":"","type":"uint256","internalType":"uint256"}],"stateMutability":"view"},{"type":"function","name":"RESERVATION_LOCKUP_PERIOD","inputs":[],"outputs":[{"name":"","type":"uint256","internalType":"uint256"}],"stateMutability":"view"},{"type":"function","name":"SAMPLING_SIZE","inputs":[],"outputs":[{"name":"","type":"uint8","internalType":"uint8"}],"stateMutability":"view"},{"type":"function","name":"addBlock","inputs":[{"name":"blockCheckpointHeight","type":"uint256","internalType":"uint256"},{"name":"blockHeight","type":"uint256","internalType":"uint256"},{"name":"blockHash","type":"bytes32","internalType":"bytes32"}],"outputs":[],"stateMutability":"nonpayable"},{"type":"function","name":"currentHeight","inputs":[],"outputs":[{"name":"","type":"uint256","internalType":"uint256"}],"stateMutability":"view"},{"type":"function","name":"depositLiquidity","inputs":[{"name":"btcPayoutAddress","type":"bytes32","internalType":"bytes32"},{"name":"btcExchangeRate","type":"uint256","internalType":"uint256"},{"name":"vaultIndexToOverwrite","type":"int256","internalType":"int256"},{"name":"depositAmount","type":"uint256","internalType":"uint256"},{"name":"vaultIndexesWithSameExchangeRate","type":"uint256[]","internalType":"uint256[]"}],"outputs":[],"stateMutability":"nonpayable"},{"type":"function","name":"depositVaults","inputs":[{"name":"","type":"uint256","internalType":"uint256"}],"outputs":[{"name":"initialBalance","type":"uint256","internalType":"uint256"},{"name":"unreservedBalance","type":"uint256","internalType":"uint256"},{"name":"btcExchangeRate","type":"uint256","internalType":"uint256"},{"name":"btcPayoutAddressIndex","type":"uint256","internalType":"uint256"}],"stateMutability":"view"},{"type":"function","name":"emptyDepositVault","inputs":[{"name":"vaultIndex","type":"uint256","internalType":"uint256"}],"outputs":[],"stateMutability":"nonpayable"},{"type":"function","name":"getBlockHash","inputs":[{"name":"blockHeight","type":"uint256","internalType":"uint256"}],"outputs":[{"name":"","type":"bytes32","internalType":"bytes32"}],"stateMutability":"view"},{"type":"function","name":"getDepositVault","inputs":[{"name":"depositIndex","type":"uint256","internalType":"uint256"}],"outputs":[{"name":"","type":"tuple","internalType":"struct RiftExchange.DepositVault","components":[{"name":"initialBalance","type":"uint256","internalType":"uint256"},{"name":"unreservedBalance","type":"uint256","internalType":"uint256"},{"name":"btcExchangeRate","type":"uint256","internalType":"uint256"},{"name":"btcPayoutAddressIndex","type":"uint256","internalType":"uint256"}]}],"stateMutability":"view"},{"type":"function","name":"getDepositVaultsLength","inputs":[],"outputs":[{"name":"","type":"uint256","internalType":"uint256"}],"stateMutability":"view"},{"type":"function","name":"getReservation","inputs":[{"name":"reservationIndex","type":"uint256","internalType":"uint256"}],"outputs":[{"name":"","type":"tuple","internalType":"struct RiftExchange.SwapReservation","components":[{"name":"state","type":"uint8","internalType":"enum RiftExchange.ReservationState"},{"name":"ethPayoutAddress","type":"address","internalType":"address"},{"name":"btcSenderAddress","type":"string","internalType":"string"},{"name":"reservationTimestamp","type":"uint256","internalType":"uint256"},{"name":"confirmationBlockHeight","type":"uint256","internalType":"uint256"},{"name":"unlockTimestamp","type":"uint256","internalType":"uint256"},{"name":"nonce","type":"bytes32","internalType":"bytes32"},{"name":"totalSwapAmount","type":"uint256","internalType":"uint256"},{"name":"prepaidFeeAmount","type":"int256","internalType":"int256"},{"name":"vaultIndexes","type":"uint256[]","internalType":"uint256[]"},{"name":"amountsToReserve","type":"uint256[]","internalType":"uint256[]"}]}],"stateMutability":"view"},{"type":"function","name":"getReservationLength","inputs":[],"outputs":[{"name":"","type":"uint256","internalType":"uint256"}],"stateMutability":"view"},{"type":"function","name":"protocolFeeBP","inputs":[],"outputs":[{"name":"","type":"uint8","internalType":"uint8"}],"stateMutability":"view"},{"type":"function","name":"proverReward","inputs":[],"outputs":[{"name":"","type":"uint256","internalType":"uint256"}],"stateMutability":"view"},{"type":"function","name":"releaseLiquidity","inputs":[{"name":"swapReservationIndex","type":"uint256","internalType":"uint256"}],"outputs":[],"stateMutability":"nonpayable"},{"type":"function","name":"releaserReward","inputs":[],"outputs":[{"name":"","type":"uint256","internalType":"uint256"}],"stateMutability":"view"},{"type":"function","name":"reserveLiquidity","inputs":[{"name":"vaultIndexesToReserve","type":"uint256[]","internalType":"uint256[]"},{"name":"amountsToReserve","type":"uint256[]","internalType":"uint256[]"},{"name":"totalSwapAmount","type":"uint256","internalType":"uint256"},{"name":"ethPayoutAddress","type":"address","internalType":"address"},{"name":"btcSenderAddress","type":"string","internalType":"string"},{"name":"expiredSwapReservationIndexes","type":"uint256[]","internalType":"uint256[]"}],"outputs":[],"stateMutability":"payable"},{"type":"function","name":"swapReservations","inputs":[{"name":"","type":"uint256","internalType":"uint256"}],"outputs":[{"name":"state","type":"uint8","internalType":"enum RiftExchange.ReservationState"},{"name":"ethPayoutAddress","type":"address","internalType":"address"},{"name":"btcSenderAddress","type":"string","internalType":"string"},{"name":"reservationTimestamp","type":"uint256","internalType":"uint256"},{"name":"confirmationBlockHeight","type":"uint256","internalType":"uint256"},{"name":"unlockTimestamp","type":"uint256","internalType":"uint256"},{"name":"nonce","type":"bytes32","internalType":"bytes32"},{"name":"totalSwapAmount","type":"uint256","internalType":"uint256"},{"name":"prepaidFeeAmount","type":"int256","internalType":"int256"}],"stateMutability":"view"},{"type":"function","name":"treasuryFee","inputs":[],"outputs":[{"name":"","type":"uint8","internalType":"uint8"}],"stateMutability":"view"},{"type":"function","name":"unlockLiquidity","inputs":[{"name":"swapReservationIndex","type":"uint256","internalType":"uint256"},{"name":"btcBlockHash","type":"bytes32","internalType":"bytes32"},{"name":"blockCheckpointHeight","type":"uint256","internalType":"uint256"},{"name":"confirmationBlockHash","type":"bytes32","internalType":"bytes32"},{"name":"confirmationBlockHeightDelta","type":"uint256","internalType":"uint256"},{"name":"proof","type":"bytes","internalType":"bytes"}],"outputs":[],"stateMutability":"nonpayable"},{"type":"function","name":"updateExchangeRate","inputs":[{"name":"vaultIndex","type":"uint256","internalType":"uint256"},{"name":"newBtcExchangeRate","type":"uint256","internalType":"uint256"},{"name":"expiredReservationIndexes","type":"uint256[]","internalType":"uint256[]"}],"outputs":[],"stateMutability":"nonpayable"},{"type":"function","name":"validateBlockExists","inputs":[{"name":"blockHeight","type":"uint256","internalType":"uint256"}],"outputs":[],"stateMutability":"view"},{"type":"function","name":"verifierContract","inputs":[],"outputs":[{"name":"","type":"address","internalType":"contract UltraVerifier"}],"stateMutability":"view"},{"type":"function","name":"withdrawLiquidity","inputs":[{"name":"vaultIndex","type":"uint256","internalType":"uint256"},{"name":"amountToWithdraw","type":"uint256","internalType":"uint256"},{"name":"expiredReservationIndexes","type":"uint256[]","internalType":"uint256[]"}],"outputs":[],"stateMutability":"nonpayable"},{"type":"error","name":"BlockDoesNotExist","inputs":[]},{"type":"error","name":"DepositTooHigh","inputs":[]},{"type":"error","name":"DepositTooLow","inputs":[]},{"type":"error","name":"InvaidSameExchangeRatevaultIndex","inputs":[]},{"type":"error","name":"InvalidCheckpoint","inputs":[]},{"type":"error","name":"InvalidOrder","inputs":[]},{"type":"error","name":"InvalidUpdateWithActiveReservations","inputs":[]},{"type":"error","name":"InvalidVaultIndex","inputs":[]},{"type":"error","name":"InvalidVaultUpdate","inputs":[]},{"type":"error","name":"NotEnoughLiquidity","inputs":[]},{"type":"error","name":"ReservationAmountTooLow","inputs":[]},{"type":"error","name":"ReservationNotExpired","inputs":[]},{"type":"error","name":"ReservationNotUnlocked","inputs":[]},{"type":"error","name":"StillInChallengePeriod","inputs":[]},{"type":"error","name":"WithdrawFailed","inputs":[]},{"type":"error","name":"WithdrawalAmountError","inputs":[]},{"type":"error","name":"exchangeRateZero","inputs":[]}],"bytecode":{"object":"0x6101006040526706f05b59d3b20000608052692a5a058fc295ed00000060a0526002805461ffff1916606417905566071afd498d000060035565b5e620f48000600455600880546001600160a01b03191673f39fd6e51aad88f6f4ce6ab8827279cfffb9226617905534801561007457600080fd5b5060405161266c38038061266c833981016040819052610093916100e4565b6001869055600095865260208690526040909520939093556001600160a01b0391821660e0521660c05260805260a05261013c565b80516001600160a01b03811681146100df57600080fd5b919050565b60008060008060008060c087890312156100fd57600080fd5b8651955060208701519450610114604088016100c8565b9350610122606088016100c8565b92506080870151915060a087015190509295509295509295565b60805160a05160c05160e0516124cd61019f600039600061052d01526000818161021c01528181610a1b01528181610b4d01528181611591015261162801526000818161058e01526106c00152600081816105c2015261067f01526124cd6000f3fe6080604052600436106101e35760003560e01c80639cdb8e5a11610102578063d57763c311610095578063ea6fe03e11610064578063ea6fe03e14610604578063eb6c752214610619578063ed8b2b3214610630578063ee82ac5e1461065057600080fd5b8063d57763c31461054f578063dd5967c31461057c578063e1e158a5146105b0578063e9c6c176146105e457600080fd5b8063c3a079ed116100d1578063c3a079ed146104cc578063c5fba0b8146104e2578063cc32d176146104fc578063cf6956881461051b57600080fd5b80639cdb8e5a1461044a578063ad062e5514610472578063b68c3a0114610499578063c1ac1ffb146104b957600080fd5b80636b994abb1161017a5780637dce5550116101495780637dce5550146103f257806389a11f7a146104075780639a64279c1461041d5780639cc7eab91461043457600080fd5b80636b994abb146103675780636dcc17c81461039c57806376898e82146103b257806377891907146103d257600080fd5b8063276d080e116101b6578063276d080e1461029f578063490d4c5f146102f25780635f4d0610146103125780635f5d5b6a1461035257600080fd5b80631293132d146101e857806313f665871461020a578063163de0c51461025b57806323e9245c1461027f575b600080fd5b3480156101f457600080fd5b50610208610203366004611d28565b61067d565b005b34801561021657600080fd5b5061023e7f000000000000000000000000000000000000000000000000000000000000000081565b6040516001600160a01b0390911681526020015b60405180910390f35b34801561026757600080fd5b5061027160015481565b604051908152602001610252565b34801561028b57600080fd5b5061020861029a366004611d8c565b610a9f565b3480156102ab57600080fd5b506102bf6102ba366004611ddc565b610bd0565b60405161025291908151815260208083015190820152604080830151908201526060918201519181019190915260800190565b3480156102fe57600080fd5b5061020861030d366004611ddc565b610c56565b34801561031e57600080fd5b5061033261032d366004611ddc565b610c93565b604080519485526020850193909352918301526060820152608001610252565b34801561035e57600080fd5b50610271600281565b34801561037357600080fd5b50610387610382366004611ddc565b610ccd565b60405161025299989796959493929190611e73565b3480156103a857600080fd5b5061027160035481565b3480156103be57600080fd5b506102086103cd366004611f31565b610dbc565b3480156103de57600080fd5b506102086103ed366004611ddc565b610edb565b3480156103fe57600080fd5b50600754610271565b34801561041357600080fd5b5061027161546081565b34801561042957600080fd5b506102716203345081565b34801561044057600080fd5b5061027160045481565b34801561045657600080fd5b5061045f603281565b60405161ffff9091168152602001610252565b34801561047e57600080fd5b50610487600a81565b60405160ff9091168152602001610252565b3480156104a557600080fd5b506102086104b4366004611d8c565b6110b2565b6102086104c7366004611ff4565b611131565b3480156104d857600080fd5b5061027161025881565b3480156104ee57600080fd5b506002546104879060ff1681565b34801561050857600080fd5b5060025461048790610100900460ff1681565b34801561052757600080fd5b5061023e7f000000000000000000000000000000000000000000000000000000000000000081565b34801561055b57600080fd5b5061056f61056a366004611ddc565b6116b2565b60405161025291906120e9565b34801561058857600080fd5b506102717f000000000000000000000000000000000000000000000000000000000000000081565b3480156105bc57600080fd5b506102717f000000000000000000000000000000000000000000000000000000000000000081565b3480156105f057600080fd5b506102086105ff3660046121c0565b611915565b34801561061057600080fd5b50600654610271565b34801561062557600080fd5b50610271620668a081565b34801561063c57600080fd5b5061020861064b366004611ddc565b61199b565b34801561065c57600080fd5b5061027161066b366004611ddc565b60009081526020819052604090205490565b7f00000000000000000000000000000000000000000000000000000000000000008210156106be57604051632b7786bd60e21b815260040160405180910390fd5b7f000000000000000000000000000000000000000000000000000000000000000082106106fe5760405163c066e1e960e01b815260040160405180910390fd5b8360000361071f57604051635c4ad48d60e11b815260040160405180910390fd5b3360009081526005602052604081206001015490036107c05760408051600081830181815260608301845282528251818152602080820185528084019190915233825260058152929020815180519293919261077e9284920190611c01565b5060208281015180516107979260018501920190611c01565b505033600090815260056020908152604082206001908101805491820181558352912001869055505b8051156108ac5760005b81518110156108a65760008282815181106107e7576107e76121ec565b60200260200101519050600060078281548110610806576108066121ec565b600091825260208083203384526005909152604090922060026004909202909201908101549092508814801561085e57508881600101836003015481548110610851576108516121ec565b9060005260206000200154145b1561088257858260010160008282546108779190612218565b9091555061089b9050565b60405163927ce9e760e01b815260040160405180910390fd5b5050506001016107ca565b506109d0565b8260001914610938576000600784815481106108ca576108ca6121ec565b9060005260206000209060040201905080600101546000146108ff5760405163721e09df60e01b815260040160405180910390fd5b82815560018082018490556002820186905533600090815260056020526040902081015461092d9190612231565b6003909101556109d0565b60076040518060800160405280848152602001848152602001868152602001600160056000336001600160a01b03166001600160a01b031681526020019081526020016000206001018054905061098f9190612231565b905281546001818101845560009384526020938490208351600490930201918255928201519281019290925560408101516002830155606001516003909101555b3360009081526005602052604090206007546109ee90600190612231565b815460018101835560009283526020909220909101556040516323b872dd60e01b81526001600160a01b037f000000000000000000000000000000000000000000000000000000000000000016906323b872dd90610a5490339030908790600401612244565b6020604051808303816000875af1158015610a73573d6000803e3d6000fd5b505050506040513d601f19601f82011682018060405250810190610a979190612268565b505050505050565b6007548310610ac15760405163721e09df60e01b815260040160405180910390fd5b600060078481548110610ad657610ad66121ec565b90600052602060002090600402019050610aef826119ca565b821580610aff5750806001015483115b15610b1d5760405163b4e3d41360e01b815260040160405180910390fd5b82816001016000828254610b319190612231565b90915550506040516323b872dd60e01b81526001600160a01b037f000000000000000000000000000000000000000000000000000000000000000016906323b872dd90610b8690309033908890600401612244565b6020604051808303816000875af1158015610ba5573d6000803e3d6000fd5b505050506040513d601f19601f82011682018060405250810190610bc99190612268565b5050505050565b610bfb6040518060800160405280600081526020016000815260200160008152602001600081525090565b60078281548110610c0e57610c0e6121ec565b90600052602060002090600402016040518060800160405290816000820154815260200160018201548152602001600282015481526020016003820154815250509050919050565b600060078281548110610c6b57610c6b6121ec565b6000918252602082206004909102018181556001810182905560028101829055600301555050565b60078181548110610ca357600080fd5b60009182526020909120600490910201805460018201546002830154600390930154919350919084565b60068181548110610cdd57600080fd5b60009182526020909120600a90910201805460018201805460ff831694506101009092046001600160a01b03169291610d159061228a565b80601f0160208091040260200160405190810160405280929190818152602001828054610d419061228a565b8015610d8e5780601f10610d6357610100808354040283529160200191610d8e565b820191906000526020600020905b815481529060010190602001808311610d7157829003601f168201915b5050505050908060020154908060030154908060040154908060050154908060060154908060070154905089565b600060068781548110610dd157610dd16121ec565b90600052602060002090600a02019050610dec858486611915565b6003818101869055815460ff19161781556000610e0c48620668a06122c4565b600354610e199190612218565b604051909150600090339083908381818185875af1925050503d8060008114610e5e576040519150601f19603f3d011682016040523d82523d6000602084013e610e63565b606091505b5050905080610e8557604051631d42c86760e21b815260040160405180910390fd5b81836007016000828254610e9991906122db565b9091555050600783015460001315610ed0578260070154836006016000828254610ec39190612218565b9091555050600060078401555b505050505050505050565b600060068281548110610ef057610ef06121ec565b60009182526020909120600a9091020190506003815460ff166005811115610f1a57610f1a611df5565b14610f385760405163b38c767b60e01b815260040160405180910390fd5b610258816004015442610f4b9190612231565b1015610f6a57604051632d5c37f560e21b815260040160405180910390fd5b6000610f7948620334506122c4565b600454610f869190612218565b604051909150600090339083908381818185875af1925050503d8060008114610fcb576040519150601f19603f3d011682016040523d82523d6000602084013e610fd0565b606091505b5050905080610ff257604051631d42c86760e21b815260040160405180910390fd5b8183600701600082825461100691906122db565b90915550506007830154600013156110365782600701548360060160008282546110309190612218565b90915550505b8254600684015460405160009261010090046001600160a01b031691908381818185875af1925050503d806000811461108b576040519150601f19603f3d011682016040523d82523d6000602084013e611090565b606091505b5050905080610bc957604051631d42c86760e21b815260040160405180910390fd5b816000036110d357604051636e5a187760e11b815260040160405180910390fd5b6000600784815481106110e8576110e86121ec565b90600052602060002090600402019050611101826119ca565b8054600182015414611126576040516391bc6cc360e01b815260040160405180910390fd5b600201919091555050565b6000805b865181101561116d57868181518110611150576111506121ec565b6020026020010151826111639190612218565b9150600101611135565b5084811461118e5760405163af61069360e01b815260040160405180910390fd5b6002546000906111a4906127109060ff16612302565b6111b29061ffff16876122c4565b9050600060026111c548620668a06122c4565b6111cf91906122c4565b6003546111dc9190612218565b9050600060026111ef48620334506122c4565b6111f991906122c4565b6004546112069190612218565b9050806112138484612218565b61121d9190612218565b88101561123d576040516359cf7a8d60e11b815260040160405180910390fd5b61124685611b21565b61124f856119ca565b60005b8a518110156112e65760008a828151811061126f5761126f6121ec565b60200260200101519050600060078d848151811061128f5761128f6121ec565b6020026020010151815481106112a7576112a76121ec565b9060005260206000209060040201905080600101548211156112dc57604051634323a55560e01b815260040160405180910390fd5b5050600101611252565b508451156113ef576000600686600081518110611305576113056121ec565b60200260200101518154811061131d5761131d6121ec565b60009182526020909120600a90910201805460016001600160a81b03199091166101006001600160a01b038c16021781178255909150810161135f888261237e565b50426002820155600060038201819055600482015561137e8284612218565b6007820155600681018990556040516113a190899089904290469060200161243e565b60408051601f19818403018152919052805160209182012060058301558b516113d2916008840191908e0190611c01565b5089516113e890600983019060208d0190611c01565b505061157a565b6040805161016081019091526006908060018152602001896001600160a01b03168152602001888152602001428152602001600081526020016000815260200189894246604051602001611446949392919061243e565b6040516020818303038152906040528051906020012081526020018a815260200183856114739190612218565b815260208082018e905260409091018c90528254600181810185556000948552919093208251600a909402018054929390929091839160ff1916908360058111156114c0576114c0611df5565b0217905550602082015181546001600160a01b0390911661010002610100600160a81b0319909116178155604082015160018201906114ff908261237e565b50606082015160028201556080820151600382015560a0820151600482015560c0820151600582015560e0820151600682015561010082015160078201556101208201518051611559916008840191602090910190611c01565b506101408201518051611576916009840191602090910190611c01565b5050505b6040516323b872dd60e01b81526001600160a01b037f000000000000000000000000000000000000000000000000000000000000000016906323b872dd906115ca90339030908d90600401612244565b6020604051808303816000875af11580156115e9573d6000803e3d6000fd5b505050506040513d601f19601f8201168201806040525081019061160d9190612268565b506008546040516323b872dd60e01b81526001600160a01b037f00000000000000000000000000000000000000000000000000000000000000008116926323b872dd9261166292339216908890600401612244565b6020604051808303816000875af1158015611681573d6000803e3d6000fd5b505050506040513d601f19601f820116820180604052508101906116a59190612268565b5050505050505050505050565b61171c604080516101608101909152806000815260200160006001600160a01b031681526020016060815260200160008152602001600081526020016000815260200160008019168152602001600081526020016000815260200160608152602001606081525090565b6006828154811061172f5761172f6121ec565b60009182526020909120604080516101608101909152600a909202018054829060ff16600581111561176357611763611df5565b600581111561177457611774611df5565b8152815461010090046001600160a01b031660208201526001820180546040909201916117a09061228a565b80601f01602080910402602001604051908101604052809291908181526020018280546117cc9061228a565b80156118195780601f106117ee57610100808354040283529160200191611819565b820191906000526020600020905b8154815290600101906020018083116117fc57829003601f168201915b50505050508152602001600282015481526020016003820154815260200160048201548152602001600582015481526020016006820154815260200160078201548152602001600882018054806020026020016040519081016040528092919081815260200182805480156118ad57602002820191906000526020600020905b815481526020019060010190808311611899575b505050505081526020016009820180548060200260200160405190810160405280929190818152602001828054801561190557602002820191906000526020600020905b8154815260200190600101908083116118f1575b5050505050815250509050919050565b6001548084111561193957604051630f0f97d160e01b815260040160405180910390fd5b80841080156119485750808310155b1561198557835b81811015611983576000818152602081905260409020541561197b576000818152602081905260408120555b60010161194f565b505b5060008281526020819052604090205560015550565b6000818152602081905260409020546119c75760405163fa4a5e4560e01b815260040160405180910390fd5b50565b60005b8151811015611b1d576119df82611b21565b611a376040518060400160405280601e81526020017f657870697265645265736572766174696f6e496e64657865735b695d3a200000815250838381518110611a2a57611a2a6121ec565b6020026020010151611ba0565b60006006838381518110611a4d57611a4d6121ec565b602002602001015181548110611a6557611a656121ec565b600091825260208220600a90910201805460ff1916600517815591505b6008820154811015611b135760006007836008018381548110611aa757611aa76121ec565b906000526020600020015481548110611ac257611ac26121ec565b90600052602060002090600402019050826009018281548110611ae757611ae76121ec565b9060005260206000200154816001016000828254611b059190612218565b909155505050600101611a82565b50506001016119cd565b5050565b60005b8151811015611b1d576154606006838381518110611b4457611b446121ec565b602002602001015181548110611b5c57611b5c6121ec565b90600052602060002090600a02016002015442611b799190612231565b1015611b98576040516326349d6b60e01b815260040160405180910390fd5b600101611b24565b611b1d8282604051602401611bb6929190612475565b60408051601f198184030181529190526020810180516001600160e01b03166309710a9d60e41b17905280516a636f6e736f6c652e6c6f67602083016000808483855afa5050505050565b828054828255906000526020600020908101928215611c3c579160200282015b82811115611c3c578251825591602001919060010190611c21565b50611c48929150611c4c565b5090565b5b80821115611c485760008155600101611c4d565b634e487b7160e01b600052604160045260246000fd5b604051601f8201601f1916810167ffffffffffffffff81118282101715611ca057611ca0611c61565b604052919050565b600082601f830112611cb957600080fd5b8135602067ffffffffffffffff821115611cd557611cd5611c61565b8160051b611ce4828201611c77565b9283528481018201928281019087851115611cfe57600080fd5b83870192505b84831015611d1d57823582529183019190830190611d04565b979650505050505050565b600080600080600060a08688031215611d4057600080fd5b85359450602086013593506040860135925060608601359150608086013567ffffffffffffffff811115611d7357600080fd5b611d7f88828901611ca8565b9150509295509295909350565b600080600060608486031215611da157600080fd5b8335925060208401359150604084013567ffffffffffffffff811115611dc657600080fd5b611dd286828701611ca8565b9150509250925092565b600060208284031215611dee57600080fd5b5035919050565b634e487b7160e01b600052602160045260246000fd5b60068110611e2957634e487b7160e01b600052602160045260246000fd5b9052565b6000815180845260005b81811015611e5357602081850181015186830182015201611e37565b506000602082860101526020601f19601f83011685010191505092915050565b6000610120611e82838d611e0b565b6001600160a01b038b16602084015260408301819052611ea48184018b611e2d565b60608401999099525050608081019590955260a085019390935260c084019190915260e0830152610100909101529392505050565b600067ffffffffffffffff831115611ef357611ef3611c61565b611f06601f8401601f1916602001611c77565b9050828152838383011115611f1a57600080fd5b828260208301376000602084830101529392505050565b60008060008060008060c08789031215611f4a57600080fd5b863595506020870135945060408701359350606087013592506080870135915060a087013567ffffffffffffffff811115611f8457600080fd5b8701601f81018913611f9557600080fd5b611fa489823560208401611ed9565b9150509295509295509295565b80356001600160a01b0381168114611fc857600080fd5b919050565b600082601f830112611fde57600080fd5b611fed83833560208501611ed9565b9392505050565b60008060008060008060c0878903121561200d57600080fd5b863567ffffffffffffffff8082111561202557600080fd5b6120318a838b01611ca8565b9750602089013591508082111561204757600080fd5b6120538a838b01611ca8565b96506040890135955061206860608a01611fb1565b9450608089013591508082111561207e57600080fd5b61208a8a838b01611fcd565b935060a08901359150808211156120a057600080fd5b50611fa489828a01611ca8565b60008151808452602080850194506020840160005b838110156120de578151875295820195908201906001016120c2565b509495945050505050565b602081526120fb602082018351611e0b565b6000602083015161211760408401826001600160a01b03169052565b506040830151610160806060850152612134610180850183611e2d565b915060608501516080850152608085015160a085015260a085015160c085015260c085015160e085015260e0850151610100818187015280870151915050610120818187015280870151915050601f1961014081878603018188015261219a85846120ad565b9088015187820390920184880152935090506121b683826120ad565b9695505050505050565b6000806000606084860312156121d557600080fd5b505081359360208301359350604090920135919050565b634e487b7160e01b600052603260045260246000fd5b634e487b7160e01b600052601160045260246000fd5b8082018082111561222b5761222b612202565b92915050565b8181038181111561222b5761222b612202565b6001600160a01b039384168152919092166020820152604081019190915260600190565b60006020828403121561227a57600080fd5b81518015158114611fed57600080fd5b600181811c9082168061229e57607f821691505b6020821081036122be57634e487b7160e01b600052602260045260246000fd5b50919050565b808202811582820484141761222b5761222b612202565b81810360008312801583831316838312821617156122fb576122fb612202565b5092915050565b600061ffff8084168061232557634e487b7160e01b600052601260045260246000fd5b92169190910492915050565b601f821115612379576000816000526020600020601f850160051c8101602086101561235a5750805b601f850160051c820191505b81811015610a9757828155600101612366565b505050565b815167ffffffffffffffff81111561239857612398611c61565b6123ac816123a6845461228a565b84612331565b602080601f8311600181146123e157600084156123c95750858301515b600019600386901b1c1916600185901b178555610a97565b600085815260208120601f198616915b82811015612410578886015182559484019460019091019084016123f1565b508582101561242e5787850151600019600388901b60f8161c191681555b5050505050600190811b01905550565b6001600160a01b038516815260806020820181905260009061246290830186611e2d565b6040830194909452506060015292915050565b6040815260006124886040830185611e2d565b9050826020830152939250505056fea264697066735822122003d5505e20cafbe362b98c942e231098e2ff61f2de762b7f120f65124d846ff864736f6c63430008190033","linkReferences":{}},"methodIdentifiers":{"CHALLENGE_PERIOD()":"c3a079ed","DEPOSIT_TOKEN()":"13f66587","MAX_DEPOSIT()":"dd5967c3","MAX_DEPOSIT_OUTPUTS()":"9cdb8e5a","MIN_DEPOSIT()":"e1e158a5","MIN_ORDER_GAS_MULTIPLIER()":"5f5d5b6a","PROOF_GAS_COST()":"eb6c7522","RELEASE_GAS_COST()":"9a64279c","RESERVATION_LOCKUP_PERIOD()":"89a11f7a","SAMPLING_SIZE()":"ad062e55","addBlock(uint256,uint256,bytes32)":"e9c6c176","currentHeight()":"163de0c5","depositLiquidity(bytes32,uint256,int256,uint256,uint256[])":"1293132d","depositVaults(uint256)":"5f4d0610","emptyDepositVault(uint256)":"490d4c5f","getBlockHash(uint256)":"ee82ac5e","getDepositVault(uint256)":"276d080e","getDepositVaultsLength()":"7dce5550","getReservation(uint256)":"d57763c3","getReservationLength()":"ea6fe03e","protocolFeeBP()":"c5fba0b8","proverReward()":"6dcc17c8","releaseLiquidity(uint256)":"77891907","releaserReward()":"9cc7eab9","reserveLiquidity(uint256[],uint256[],uint256,address,string,uint256[])":"c1ac1ffb","swapReservations(uint256)":"6b994abb","treasuryFee()":"cc32d176","unlockLiquidity(uint256,bytes32,uint256,bytes32,uint256,bytes)":"76898e82","updateExchangeRate(uint256,uint256,uint256[])":"b68c3a01","validateBlockExists(uint256)":"ed8b2b32","verifierContract()":"cf695688","withdrawLiquidity(uint256,uint256,uint256[])":"23e9245c"},"storageLayout":{"storage":[{"astId":8078,"contract":"src/RiftExchange.sol:RiftExchange","label":"blockchain","offset":0,"slot":"0","type":"t_mapping(t_uint256,t_bytes32)"},{"astId":8080,"contract":"src/RiftExchange.sol:RiftExchange","label":"currentHeight","offset":0,"slot":"1","type":"t_uint256"},{"astId":8666,"contract":"src/RiftExchange.sol:RiftExchange","label":"protocolFeeBP","offset":0,"slot":"2","type":"t_uint8"},{"astId":8669,"contract":"src/RiftExchange.sol:RiftExchange","label":"treasuryFee","offset":1,"slot":"2","type":"t_uint8"},{"astId":8672,"contract":"src/RiftExchange.sol:RiftExchange","label":"proverReward","offset":0,"slot":"3","type":"t_uint256"},{"astId":8675,"contract":"src/RiftExchange.sol:RiftExchange","label":"releaserReward","offset":0,"slot":"4","type":"t_uint256"},{"astId":8737,"contract":"src/RiftExchange.sol:RiftExchange","label":"liquidityProviders","offset":0,"slot":"5","type":"t_mapping(t_address,t_struct(LiquidityProvider)8687_storage)"},{"astId":8741,"contract":"src/RiftExchange.sol:RiftExchange","label":"swapReservations","offset":0,"slot":"6","type":"t_array(t_struct(SwapReservation)8732_storage)dyn_storage"},{"astId":8745,"contract":"src/RiftExchange.sol:RiftExchange","label":"depositVaults","offset":0,"slot":"7","type":"t_array(t_struct(DepositVault)8696_storage)dyn_storage"},{"astId":8754,"contract":"src/RiftExchange.sol:RiftExchange","label":"protocolAddress","offset":0,"slot":"8","type":"t_address_payable"}],"types":{"t_address":{"encoding":"inplace","label":"address","numberOfBytes":"20"},"t_address_payable":{"encoding":"inplace","label":"address payable","numberOfBytes":"20"},"t_array(t_bytes32)dyn_storage":{"encoding":"dynamic_array","label":"bytes32[]","numberOfBytes":"32","base":"t_bytes32"},"t_array(t_struct(DepositVault)8696_storage)dyn_storage":{"encoding":"dynamic_array","label":"struct RiftExchange.DepositVault[]","numberOfBytes":"32","base":"t_struct(DepositVault)8696_storage"},"t_array(t_struct(SwapReservation)8732_storage)dyn_storage":{"encoding":"dynamic_array","label":"struct RiftExchange.SwapReservation[]","numberOfBytes":"32","base":"t_struct(SwapReservation)8732_storage"},"t_array(t_uint256)dyn_storage":{"encoding":"dynamic_array","label":"uint256[]","numberOfBytes":"32","base":"t_uint256"},"t_bytes32":{"encoding":"inplace","label":"bytes32","numberOfBytes":"32"},"t_enum(ReservationState)8703":{"encoding":"inplace","label":"enum RiftExchange.ReservationState","numberOfBytes":"1"},"t_int256":{"encoding":"inplace","label":"int256","numberOfBytes":"32"},"t_mapping(t_address,t_struct(LiquidityProvider)8687_storage)":{"encoding":"mapping","key":"t_address","label":"mapping(address => struct RiftExchange.LiquidityProvider)","numberOfBytes":"32","value":"t_struct(LiquidityProvider)8687_storage"},"t_mapping(t_uint256,t_bytes32)":{"encoding":"mapping","key":"t_uint256","label":"mapping(uint256 => bytes32)","numberOfBytes":"32","value":"t_bytes32"},"t_string_storage":{"encoding":"bytes","label":"string","numberOfBytes":"32"},"t_struct(DepositVault)8696_storage":{"encoding":"inplace","label":"struct RiftExchange.DepositVault","numberOfBytes":"128","members":[{"astId":8689,"contract":"src/RiftExchange.sol:RiftExchange","label":"initialBalance","offset":0,"slot":"0","type":"t_uint256"},{"astId":8691,"contract":"src/RiftExchange.sol:RiftExchange","label":"unreservedBalance","offset":0,"slot":"1","type":"t_uint256"},{"astId":8693,"contract":"src/RiftExchange.sol:RiftExchange","label":"btcExchangeRate","offset":0,"slot":"2","type":"t_uint256"},{"astId":8695,"contract":"src/RiftExchange.sol:RiftExchange","label":"btcPayoutAddressIndex","offset":0,"slot":"3","type":"t_uint256"}]},"t_struct(LiquidityProvider)8687_storage":{"encoding":"inplace","label":"struct RiftExchange.LiquidityProvider","numberOfBytes":"64","members":[{"astId":8683,"contract":"src/RiftExchange.sol:RiftExchange","label":"depositVaultIndexes","offset":0,"slot":"0","type":"t_array(t_uint256)dyn_storage"},{"astId":8686,"contract":"src/RiftExchange.sol:RiftExchange","label":"btcPayoutAddresses","offset":0,"slot":"1","type":"t_array(t_bytes32)dyn_storage"}]},"t_struct(SwapReservation)8732_storage":{"encoding":"inplace","label":"struct RiftExchange.SwapReservation","numberOfBytes":"320","members":[{"astId":8709,"contract":"src/RiftExchange.sol:RiftExchange","label":"state","offset":0,"slot":"0","type":"t_enum(ReservationState)8703"},{"astId":8711,"contract":"src/RiftExchange.sol:RiftExchange","label":"ethPayoutAddress","offset":1,"slot":"0","type":"t_address"},{"astId":8713,"contract":"src/RiftExchange.sol:RiftExchange","label":"btcSenderAddress","offset":0,"slot":"1","type":"t_string_storage"},{"astId":8715,"contract":"src/RiftExchange.sol:RiftExchange","label":"reservationTimestamp","offset":0,"slot":"2","type":"t_uint256"},{"astId":8717,"contract":"src/RiftExchange.sol:RiftExchange","label":"confirmationBlockHeight","offset":0,"slot":"3","type":"t_uint256"},{"astId":8719,"contract":"src/RiftExchange.sol:RiftExchange","label":"unlockTimestamp","offset":0,"slot":"4","type":"t_uint256"},{"astId":8721,"contract":"src/RiftExchange.sol:RiftExchange","label":"nonce","offset":0,"slot":"5","type":"t_bytes32"},{"astId":8723,"contract":"src/RiftExchange.sol:RiftExchange","label":"totalSwapAmount","offset":0,"slot":"6","type":"t_uint256"},{"astId":8725,"contract":"src/RiftExchange.sol:RiftExchange","label":"prepaidFeeAmount","offset":0,"slot":"7","type":"t_int256"},{"astId":8728,"contract":"src/RiftExchange.sol:RiftExchange","label":"vaultIndexes","offset":0,"slot":"8","type":"t_array(t_uint256)dyn_storage"},{"astId":8731,"contract":"src/RiftExchange.sol:RiftExchange","label":"amountsToReserve","offset":0,"slot":"9","type":"t_array(t_uint256)dyn_storage"}]},"t_uint256":{"encoding":"inplace","label":"uint256","numberOfBytes":"32"},"t_uint8":{"encoding":"inplace","label":"uint8","numberOfBytes":"1"}}},"id":3}