{"abi":[{"type":"constructor","inputs":[{"name":"initialCheckpointHeight","type":"uint256","internalType":"uint256"},{"name":"initialBlockHash","type":"bytes32","internalType":"bytes32"},{"name":"verifierContractAddress","type":"address","internalType":"address"},{"name":"depositTokenAddress","type":"address","internalType":"address"},{"name":"minDeposit","type":"uint256","internalType":"uint256"},{"name":"maxDeposit","type":"uint256","internalType":"uint256"}],"stateMutability":"nonpayable"},{"type":"function","name":"CHALLENGE_PERIOD","inputs":[],"outputs":[{"name":"","type":"uint256","internalType":"uint256"}],"stateMutability":"view"},{"type":"function","name":"DEPOSIT_TOKEN","inputs":[],"outputs":[{"name":"","type":"address","internalType":"contract IERC20"}],"stateMutability":"view"},{"type":"function","name":"MAX_DEPOSIT","inputs":[],"outputs":[{"name":"","type":"uint256","internalType":"uint256"}],"stateMutability":"view"},{"type":"function","name":"MAX_DEPOSIT_OUTPUTS","inputs":[],"outputs":[{"name":"","type":"uint16","internalType":"uint16"}],"stateMutability":"view"},{"type":"function","name":"MIN_DEPOSIT","inputs":[],"outputs":[{"name":"","type":"uint256","internalType":"uint256"}],"stateMutability":"view"},{"type":"function","name":"MIN_ORDER_GAS_MULTIPLIER","inputs":[],"outputs":[{"name":"","type":"uint256","internalType":"uint256"}],"stateMutability":"view"},{"type":"function","name":"PROOF_GAS_COST","inputs":[],"outputs":[{"name":"","type":"uint256","internalType":"uint256"}],"stateMutability":"view"},{"type":"function","name":"RELEASE_GAS_COST","inputs":[],"outputs":[{"name":"","type":"uint256","internalType":"uint256"}],"stateMutability":"view"},{"type":"function","name":"RESERVATION_LOCKUP_PERIOD","inputs":[],"outputs":[{"name":"","type":"uint256","internalType":"uint256"}],"stateMutability":"view"},{"type":"function","name":"SAMPLING_SIZE","inputs":[],"outputs":[{"name":"","type":"uint8","internalType":"uint8"}],"stateMutability":"view"},{"type":"function","name":"addBlock","inputs":[{"name":"blockCheckpointHeight","type":"uint256","internalType":"uint256"},{"name":"blockHeight","type":"uint256","internalType":"uint256"},{"name":"blockHash","type":"bytes32","internalType":"bytes32"}],"outputs":[],"stateMutability":"nonpayable"},{"type":"function","name":"currentHeight","inputs":[],"outputs":[{"name":"","type":"uint256","internalType":"uint256"}],"stateMutability":"view"},{"type":"function","name":"depositLiquidity","inputs":[{"name":"btcPayoutAddress","type":"bytes32","internalType":"bytes32"},{"name":"btcExchangeRate","type":"uint256","internalType":"uint256"},{"name":"vaultIndexToOverwrite","type":"int256","internalType":"int256"},{"name":"depositAmount","type":"uint256","internalType":"uint256"},{"name":"vaultIndexWithSameExchangeRate","type":"int256","internalType":"int256"}],"outputs":[],"stateMutability":"nonpayable"},{"type":"function","name":"depositVaults","inputs":[{"name":"","type":"uint256","internalType":"uint256"}],"outputs":[{"name":"initialBalance","type":"uint256","internalType":"uint256"},{"name":"unreservedBalance","type":"uint256","internalType":"uint256"},{"name":"btcExchangeRate","type":"uint256","internalType":"uint256"},{"name":"btcPayoutAddress","type":"bytes32","internalType":"bytes32"}],"stateMutability":"view"},{"type":"function","name":"emptyDepositVault","inputs":[{"name":"vaultIndex","type":"uint256","internalType":"uint256"}],"outputs":[],"stateMutability":"nonpayable"},{"type":"function","name":"getBlockHash","inputs":[{"name":"blockHeight","type":"uint256","internalType":"uint256"}],"outputs":[{"name":"","type":"bytes32","internalType":"bytes32"}],"stateMutability":"view"},{"type":"function","name":"getDepositVault","inputs":[{"name":"depositIndex","type":"uint256","internalType":"uint256"}],"outputs":[{"name":"","type":"tuple","internalType":"struct RiftExchange.DepositVault","components":[{"name":"initialBalance","type":"uint256","internalType":"uint256"},{"name":"unreservedBalance","type":"uint256","internalType":"uint256"},{"name":"btcExchangeRate","type":"uint256","internalType":"uint256"},{"name":"btcPayoutAddress","type":"bytes32","internalType":"bytes32"}]}],"stateMutability":"view"},{"type":"function","name":"getDepositVaultsLength","inputs":[],"outputs":[{"name":"","type":"uint256","internalType":"uint256"}],"stateMutability":"view"},{"type":"function","name":"getReservation","inputs":[{"name":"reservationIndex","type":"uint256","internalType":"uint256"}],"outputs":[{"name":"","type":"tuple","internalType":"struct RiftExchange.SwapReservation","components":[{"name":"state","type":"uint8","internalType":"enum RiftExchange.ReservationState"},{"name":"ethPayoutAddress","type":"address","internalType":"address"},{"name":"btcSenderAddress","type":"string","internalType":"string"},{"name":"reservationTimestamp","type":"uint256","internalType":"uint256"},{"name":"confirmationBlockHeight","type":"uint256","internalType":"uint256"},{"name":"unlockTimestamp","type":"uint256","internalType":"uint256"},{"name":"nonce","type":"bytes32","internalType":"bytes32"},{"name":"totalSwapAmount","type":"uint256","internalType":"uint256"},{"name":"prepaidFeeAmount","type":"int256","internalType":"int256"},{"name":"vaultIndexes","type":"uint256[]","internalType":"uint256[]"},{"name":"amountsToReserve","type":"uint256[]","internalType":"uint256[]"}]}],"stateMutability":"view"},{"type":"function","name":"getReservationLength","inputs":[],"outputs":[{"name":"","type":"uint256","internalType":"uint256"}],"stateMutability":"view"},{"type":"function","name":"protocolFeeBP","inputs":[],"outputs":[{"name":"","type":"uint8","internalType":"uint8"}],"stateMutability":"view"},{"type":"function","name":"proverReward","inputs":[],"outputs":[{"name":"","type":"uint256","internalType":"uint256"}],"stateMutability":"view"},{"type":"function","name":"releaseLiquidity","inputs":[{"name":"swapReservationIndex","type":"uint256","internalType":"uint256"}],"outputs":[],"stateMutability":"nonpayable"},{"type":"function","name":"releaserReward","inputs":[],"outputs":[{"name":"","type":"uint256","internalType":"uint256"}],"stateMutability":"view"},{"type":"function","name":"reserveLiquidity","inputs":[{"name":"vaultIndexesToReserve","type":"uint256[]","internalType":"uint256[]"},{"name":"amountsToReserve","type":"uint256[]","internalType":"uint256[]"},{"name":"totalSwapAmount","type":"uint256","internalType":"uint256"},{"name":"ethPayoutAddress","type":"address","internalType":"address"},{"name":"btcSenderAddress","type":"string","internalType":"string"},{"name":"expiredSwapReservationIndexes","type":"uint256[]","internalType":"uint256[]"}],"outputs":[],"stateMutability":"payable"},{"type":"function","name":"swapReservations","inputs":[{"name":"","type":"uint256","internalType":"uint256"}],"outputs":[{"name":"state","type":"uint8","internalType":"enum RiftExchange.ReservationState"},{"name":"ethPayoutAddress","type":"address","internalType":"address"},{"name":"btcSenderAddress","type":"string","internalType":"string"},{"name":"reservationTimestamp","type":"uint256","internalType":"uint256"},{"name":"confirmationBlockHeight","type":"uint256","internalType":"uint256"},{"name":"unlockTimestamp","type":"uint256","internalType":"uint256"},{"name":"nonce","type":"bytes32","internalType":"bytes32"},{"name":"totalSwapAmount","type":"uint256","internalType":"uint256"},{"name":"prepaidFeeAmount","type":"int256","internalType":"int256"}],"stateMutability":"view"},{"type":"function","name":"treasuryFee","inputs":[],"outputs":[{"name":"","type":"uint8","internalType":"uint8"}],"stateMutability":"view"},{"type":"function","name":"unlockLiquidity","inputs":[{"name":"swapReservationIndex","type":"uint256","internalType":"uint256"},{"name":"btcBlockHash","type":"bytes32","internalType":"bytes32"},{"name":"blockCheckpointHeight","type":"uint256","internalType":"uint256"},{"name":"confirmationBlockHash","type":"bytes32","internalType":"bytes32"},{"name":"confirmationBlockHeightDelta","type":"uint256","internalType":"uint256"},{"name":"proof","type":"bytes","internalType":"bytes"}],"outputs":[],"stateMutability":"nonpayable"},{"type":"function","name":"updateExchangeRate","inputs":[{"name":"vaultIndex","type":"uint256","internalType":"uint256"},{"name":"newBtcExchangeRate","type":"uint256","internalType":"uint256"},{"name":"expiredReservationIndexes","type":"uint256[]","internalType":"uint256[]"}],"outputs":[],"stateMutability":"nonpayable"},{"type":"function","name":"validateBlockExists","inputs":[{"name":"blockHeight","type":"uint256","internalType":"uint256"}],"outputs":[],"stateMutability":"view"},{"type":"function","name":"verifierContract","inputs":[],"outputs":[{"name":"","type":"address","internalType":"contract UltraVerifier"}],"stateMutability":"view"},{"type":"function","name":"withdrawLiquidity","inputs":[{"name":"vaultIndex","type":"uint256","internalType":"uint256"},{"name":"amountToWithdraw","type":"uint256","internalType":"uint256"},{"name":"expiredReservationIndexes","type":"uint256[]","internalType":"uint256[]"}],"outputs":[],"stateMutability":"nonpayable"},{"type":"error","name":"BlockDoesNotExist","inputs":[]},{"type":"error","name":"DepositTooHigh","inputs":[]},{"type":"error","name":"DepositTooLow","inputs":[]},{"type":"error","name":"InvaidSameExchangeRatevaultIndex","inputs":[]},{"type":"error","name":"InvalidCheckpoint","inputs":[]},{"type":"error","name":"InvalidOrder","inputs":[]},{"type":"error","name":"InvalidUpdateWithActiveReservations","inputs":[]},{"type":"error","name":"InvalidVaultIndex","inputs":[]},{"type":"error","name":"InvalidVaultUpdate","inputs":[]},{"type":"error","name":"NotEnoughLiquidity","inputs":[]},{"type":"error","name":"ReservationAmountTooLow","inputs":[]},{"type":"error","name":"ReservationNotExpired","inputs":[]},{"type":"error","name":"ReservationNotUnlocked","inputs":[]},{"type":"error","name":"StillInChallengePeriod","inputs":[]},{"type":"error","name":"WithdrawFailed","inputs":[]},{"type":"error","name":"WithdrawalAmountError","inputs":[]},{"type":"error","name":"exchangeRateZero","inputs":[]}],"bytecode":{"object":"0x6101006040526706f05b59d3b20000608052692a5a058fc295ed00000060a0526002805461ffff1916606417905566071afd498d000060035565b5e620f48000600455600880546001600160a01b03191673f39fd6e51aad88f6f4ce6ab8827279cfffb9226617905534801561007457600080fd5b506040516125b73803806125b7833981016040819052610093916100e4565b6001869055600095865260208690526040909520939093556001600160a01b0391821660e0521660c05260805260a05261013f565b80516001600160a01b03811681146100df57600080fd5b919050565b60008060008060008060c087890312156100fd57600080fd5b865160208801519096509450610115604088016100c8565b9350610123606088016100c8565b608088015160a090980151969995985093969395939492505050565b60805160a05160c05160e0516124156101a2600039600061052d0152600081816101fa0152818161097401528181610aa6015281816114ed015261158401526000818161058e01526106c00152600081816105c2015261067f01526124156000f3fe6080604052600436106101e35760003560e01c80639cdb8e5a11610102578063d57763c311610095578063ea6fe03e11610064578063ea6fe03e14610604578063eb6c752214610619578063ed8b2b3214610630578063ee82ac5e1461065057600080fd5b8063d57763c31461054f578063dd5967c31461057c578063e1e158a5146105b0578063e9c6c176146105e457600080fd5b8063c3a079ed116100d1578063c3a079ed146104cc578063c5fba0b8146104e2578063cc32d176146104fc578063cf6956881461051b57600080fd5b80639cdb8e5a1461044a578063ad062e5514610472578063b68c3a0114610499578063c1ac1ffb146104b957600080fd5b80636b994abb1161017a5780637dce5550116101495780637dce5550146103f257806389a11f7a146104075780639a64279c1461041d5780639cc7eab91461043457600080fd5b80636b994abb146103675780636dcc17c81461039c57806376898e82146103b257806377891907146103d257600080fd5b8063276d080e116101b6578063276d080e1461029f578063490d4c5f146102f25780635f4d0610146103125780635f5d5b6a1461035257600080fd5b806313f66587146101e8578063163de0c5146102395780632143c3e91461025d57806323e9245c1461027f575b600080fd5b3480156101f457600080fd5b5061021c7f000000000000000000000000000000000000000000000000000000000000000081565b6040516001600160a01b0390911681526020015b60405180910390f35b34801561024557600080fd5b5061024f60015481565b604051908152602001610230565b34801561026957600080fd5b5061027d610278366004611bbd565b61067d565b005b34801561028b57600080fd5b5061027d61029a366004611cc2565b6109f8565b3480156102ab57600080fd5b506102bf6102ba366004611d12565b610b29565b60405161023091908151815260208083015190820152604080830151908201526060918201519181019190915260800190565b3480156102fe57600080fd5b5061027d61030d366004611d12565b610bb2565b34801561031e57600080fd5b5061033261032d366004611d12565b610bef565b604080519485526020850193909352918301526060820152608001610230565b34801561035e57600080fd5b5061024f600281565b34801561037357600080fd5b50610387610382366004611d12565b610c29565b60405161023099989796959493929190611da9565b3480156103a857600080fd5b5061024f60035481565b3480156103be57600080fd5b5061027d6103cd366004611e6b565b610d18565b3480156103de57600080fd5b5061027d6103ed366004611d12565b610e37565b3480156103fe57600080fd5b5060075461024f565b34801561041357600080fd5b5061024f61546081565b34801561042957600080fd5b5061024f6203345081565b34801561044057600080fd5b5061024f60045481565b34801561045657600080fd5b5061045f603281565b60405161ffff9091168152602001610230565b34801561047e57600080fd5b50610487600a81565b60405160ff9091168152602001610230565b3480156104a557600080fd5b5061027d6104b4366004611cc2565b61100e565b61027d6104c7366004611f2e565b61108d565b3480156104d857600080fd5b5061024f61025881565b3480156104ee57600080fd5b506002546104879060ff1681565b34801561050857600080fd5b5060025461048790610100900460ff1681565b34801561052757600080fd5b5061021c7f000000000000000000000000000000000000000000000000000000000000000081565b34801561055b57600080fd5b5061056f61056a366004611d12565b61160e565b6040516102309190612036565b34801561058857600080fd5b5061024f7f000000000000000000000000000000000000000000000000000000000000000081565b3480156105bc57600080fd5b5061024f7f000000000000000000000000000000000000000000000000000000000000000081565b3480156105f057600080fd5b5061027d6105ff366004612107565b611871565b34801561061057600080fd5b5060065461024f565b34801561062557600080fd5b5061024f620668a081565b34801561063c57600080fd5b5061027d61064b366004611d12565b6118f7565b34801561065c57600080fd5b5061024f61066b366004611d12565b60009081526020819052604090205490565b7f00000000000000000000000000000000000000000000000000000000000000008210156106be57604051632b7786bd60e21b815260040160405180910390fd5b7f000000000000000000000000000000000000000000000000000000000000000082106106fe5760405163c066e1e960e01b815260040160405180910390fd5b8360000361071f57604051635c4ad48d60e11b815260040160405180910390fd5b33600090815260056020526040812054900361076d576040805160006020808301828152838501855283523382526005815292902081518051929391926107699284920190611b5d565b5050505b80600019146107ea57600081905060006007828154811061079057610790612133565b90600052602060002090600402019050858160020154036107ca57838160010160008282546107bf919061215f565b909155506107e39050565b60405163927ce9e760e01b815260040160405180910390fd5b5050610929565b82600019146108595760006007848154811061080857610808612133565b90600052602060002090600402019050806001015460001461083d5760405163721e09df60e01b815260040160405180910390fd5b8281556001810183905560028101859055600301859055610929565b6040805160808101825283815260208101848152918101868152606082018881526007805460018101825560009190915292517fa66cc928b5edb82af9bd49922954155ab7b0942694bea4ce44661d9a8736c68860049094029384015592517fa66cc928b5edb82af9bd49922954155ab7b0942694bea4ce44661d9a8736c689830155517fa66cc928b5edb82af9bd49922954155ab7b0942694bea4ce44661d9a8736c68a82015590517fa66cc928b5edb82af9bd49922954155ab7b0942694bea4ce44661d9a8736c68b909101555b33600090815260056020526040902060075461094790600190612178565b815460018101835560009283526020909220909101556040516323b872dd60e01b81526001600160a01b037f000000000000000000000000000000000000000000000000000000000000000016906323b872dd906109ad9033903090879060040161218b565b6020604051808303816000875af11580156109cc573d6000803e3d6000fd5b505050506040513d601f19601f820116820180604052508101906109f091906121af565b505050505050565b6007548310610a1a5760405163721e09df60e01b815260040160405180910390fd5b600060078481548110610a2f57610a2f612133565b90600052602060002090600402019050610a4882611926565b821580610a585750806001015483115b15610a765760405163b4e3d41360e01b815260040160405180910390fd5b82816001016000828254610a8a9190612178565b90915550506040516323b872dd60e01b81526001600160a01b037f000000000000000000000000000000000000000000000000000000000000000016906323b872dd90610adf9030903390889060040161218b565b6020604051808303816000875af1158015610afe573d6000803e3d6000fd5b505050506040513d601f19601f82011682018060405250810190610b2291906121af565b5050505050565b610b576040518060800160405280600081526020016000815260200160008152602001600080191681525090565b60078281548110610b6a57610b6a612133565b90600052602060002090600402016040518060800160405290816000820154815260200160018201548152602001600282015481526020016003820154815250509050919050565b600060078281548110610bc757610bc7612133565b6000918252602082206004909102018181556001810182905560028101829055600301555050565b60078181548110610bff57600080fd5b60009182526020909120600490910201805460018201546002830154600390930154919350919084565b60068181548110610c3957600080fd5b60009182526020909120600a90910201805460018201805460ff831694506101009092046001600160a01b03169291610c71906121d1565b80601f0160208091040260200160405190810160405280929190818152602001828054610c9d906121d1565b8015610cea5780601f10610cbf57610100808354040283529160200191610cea565b820191906000526020600020905b815481529060010190602001808311610ccd57829003601f168201915b5050505050908060020154908060030154908060040154908060050154908060060154908060070154905089565b600060068781548110610d2d57610d2d612133565b90600052602060002090600a02019050610d48858486611871565b6003818101869055815460ff19161781556000610d6848620668a061220b565b600354610d75919061215f565b604051909150600090339083908381818185875af1925050503d8060008114610dba576040519150601f19603f3d011682016040523d82523d6000602084013e610dbf565b606091505b5050905080610de157604051631d42c86760e21b815260040160405180910390fd5b81836007016000828254610df59190612222565b9091555050600783015460001315610e2c578260070154836006016000828254610e1f919061215f565b9091555050600060078401555b505050505050505050565b600060068281548110610e4c57610e4c612133565b60009182526020909120600a9091020190506003815460ff166005811115610e7657610e76611d2b565b14610e945760405163b38c767b60e01b815260040160405180910390fd5b610258816004015442610ea79190612178565b1015610ec657604051632d5c37f560e21b815260040160405180910390fd5b6000610ed5486203345061220b565b600454610ee2919061215f565b604051909150600090339083908381818185875af1925050503d8060008114610f27576040519150601f19603f3d011682016040523d82523d6000602084013e610f2c565b606091505b5050905080610f4e57604051631d42c86760e21b815260040160405180910390fd5b81836007016000828254610f629190612222565b9091555050600783015460001315610f92578260070154836006016000828254610f8c919061215f565b90915550505b8254600684015460405160009261010090046001600160a01b031691908381818185875af1925050503d8060008114610fe7576040519150601f19603f3d011682016040523d82523d6000602084013e610fec565b606091505b5050905080610b2257604051631d42c86760e21b815260040160405180910390fd5b8160000361102f57604051636e5a187760e11b815260040160405180910390fd5b60006007848154811061104457611044612133565b9060005260206000209060040201905061105d82611926565b8054600182015414611082576040516391bc6cc360e01b815260040160405180910390fd5b600201919091555050565b6000805b86518110156110c9578681815181106110ac576110ac612133565b6020026020010151826110bf919061215f565b9150600101611091565b508481146110ea5760405163af61069360e01b815260040160405180910390fd5b600254600090611100906127109060ff16612249565b61110e9061ffff168761220b565b90506000600261112148620668a061220b565b61112b919061220b565b600354611138919061215f565b90506000600261114b486203345061220b565b611155919061220b565b600454611162919061215f565b90508061116f848461215f565b611179919061215f565b881015611199576040516359cf7a8d60e11b815260040160405180910390fd5b6111a285611a7d565b6111ab85611926565b60005b8a518110156112425760008a82815181106111cb576111cb612133565b60200260200101519050600060078d84815181106111eb576111eb612133565b60200260200101518154811061120357611203612133565b90600052602060002090600402019050806001015482111561123857604051634323a55560e01b815260040160405180910390fd5b50506001016111ae565b5084511561134b57600060068660008151811061126157611261612133565b60200260200101518154811061127957611279612133565b60009182526020909120600a90910201805460016001600160a81b03199091166101006001600160a01b038c1602178117825590915081016112bb88826122c7565b5042600282015560006003820181905560048201556112da828461215f565b6007820155600681018990556040516112fd908990899042904690602001612386565b60408051601f19818403018152919052805160209182012060058301558b5161132e916008840191908e0190611b5d565b50895161134490600983019060208d0190611b5d565b50506114d6565b6040805161016081019091526006908060018152602001896001600160a01b031681526020018881526020014281526020016000815260200160008152602001898942466040516020016113a29493929190612386565b6040516020818303038152906040528051906020012081526020018a815260200183856113cf919061215f565b815260208082018e905260409091018c90528254600181810185556000948552919093208251600a909402018054929390929091839160ff19169083600581111561141c5761141c611d2b565b0217905550602082015181546001600160a01b0390911661010002610100600160a81b03199091161781556040820151600182019061145b90826122c7565b50606082015160028201556080820151600382015560a0820151600482015560c0820151600582015560e08201516006820155610100820151600782015561012082015180516114b5916008840191602090910190611b5d565b5061014082015180516114d2916009840191602090910190611b5d565b5050505b6040516323b872dd60e01b81526001600160a01b037f000000000000000000000000000000000000000000000000000000000000000016906323b872dd9061152690339030908d9060040161218b565b6020604051808303816000875af1158015611545573d6000803e3d6000fd5b505050506040513d601f19601f8201168201806040525081019061156991906121af565b506008546040516323b872dd60e01b81526001600160a01b037f00000000000000000000000000000000000000000000000000000000000000008116926323b872dd926115be9233921690889060040161218b565b6020604051808303816000875af11580156115dd573d6000803e3d6000fd5b505050506040513d601f19601f8201168201806040525081019061160191906121af565b5050505050505050505050565b611678604080516101608101909152806000815260200160006001600160a01b031681526020016060815260200160008152602001600081526020016000815260200160008019168152602001600081526020016000815260200160608152602001606081525090565b6006828154811061168b5761168b612133565b60009182526020909120604080516101608101909152600a909202018054829060ff1660058111156116bf576116bf611d2b565b60058111156116d0576116d0611d2b565b8152815461010090046001600160a01b031660208201526001820180546040909201916116fc906121d1565b80601f0160208091040260200160405190810160405280929190818152602001828054611728906121d1565b80156117755780601f1061174a57610100808354040283529160200191611775565b820191906000526020600020905b81548152906001019060200180831161175857829003601f168201915b505050505081526020016002820154815260200160038201548152602001600482015481526020016005820154815260200160068201548152602001600782015481526020016008820180548060200260200160405190810160405280929190818152602001828054801561180957602002820191906000526020600020905b8154815260200190600101908083116117f5575b505050505081526020016009820180548060200260200160405190810160405280929190818152602001828054801561186157602002820191906000526020600020905b81548152602001906001019080831161184d575b5050505050815250509050919050565b6001548084111561189557604051630f0f97d160e01b815260040160405180910390fd5b80841080156118a45750808310155b156118e157835b818110156118df57600081815260208190526040902054156118d7576000818152602081905260408120555b6001016118ab565b505b5060008281526020819052604090205560015550565b6000818152602081905260409020546119235760405163fa4a5e4560e01b815260040160405180910390fd5b50565b60005b8151811015611a795761193b82611a7d565b6119936040518060400160405280601e81526020017f657870697265645265736572766174696f6e496e64657865735b695d3a20000081525083838151811061198657611986612133565b6020026020010151611afc565b600060068383815181106119a9576119a9612133565b6020026020010151815481106119c1576119c1612133565b600091825260208220600a90910201805460ff1916600517815591505b6008820154811015611a6f5760006007836008018381548110611a0357611a03612133565b906000526020600020015481548110611a1e57611a1e612133565b90600052602060002090600402019050826009018281548110611a4357611a43612133565b9060005260206000200154816001016000828254611a61919061215f565b9091555050506001016119de565b5050600101611929565b5050565b60005b8151811015611a79576154606006838381518110611aa057611aa0612133565b602002602001015181548110611ab857611ab8612133565b90600052602060002090600a02016002015442611ad59190612178565b1015611af4576040516326349d6b60e01b815260040160405180910390fd5b600101611a80565b611a798282604051602401611b129291906123bd565b60408051601f198184030181529190526020810180516001600160e01b03166309710a9d60e41b17905280516a636f6e736f6c652e6c6f67602083016000808483855afa5050505050565b828054828255906000526020600020908101928215611b98579160200282015b82811115611b98578251825591602001919060010190611b7d565b50611ba4929150611ba8565b5090565b5b80821115611ba45760008155600101611ba9565b600080600080600060a08688031215611bd557600080fd5b505083359560208501359550604085013594606081013594506080013592509050565b634e487b7160e01b600052604160045260246000fd5b604051601f8201601f1916810167ffffffffffffffff81118282101715611c3757611c37611bf8565b604052919050565b600082601f830112611c5057600080fd5b813567ffffffffffffffff811115611c6a57611c6a611bf8565b8060051b611c7a60208201611c0e565b91825260208185018101929081019086841115611c9657600080fd5b6020860192505b83831015611cb8578235825260209283019290910190611c9d565b9695505050505050565b600080600060608486031215611cd757600080fd5b8335925060208401359150604084013567ffffffffffffffff811115611cfc57600080fd5b611d0886828701611c3f565b9150509250925092565b600060208284031215611d2457600080fd5b5035919050565b634e487b7160e01b600052602160045260246000fd5b60068110611d5f57634e487b7160e01b600052602160045260246000fd5b9052565b6000815180845260005b81811015611d8957602081850181015186830182015201611d6d565b506000602082860101526020601f19601f83011685010191505092915050565b611db3818b611d41565b6001600160a01b038916602082015261012060408201819052600090611ddb9083018a611d63565b606083019890985250608081019590955260a085019390935260c084019190915260e0830152610100909101529392505050565b60008067ffffffffffffffff841115611e2a57611e2a611bf8565b50601f8301601f1916602001611e3f81611c0e565b915050828152838383011115611e5457600080fd5b828260208301376000602084830101529392505050565b60008060008060008060c08789031215611e8457600080fd5b863595506020870135945060408701359350606087013592506080870135915060a087013567ffffffffffffffff811115611ebe57600080fd5b8701601f81018913611ecf57600080fd5b611ede89823560208401611e0f565b9150509295509295509295565b80356001600160a01b0381168114611f0257600080fd5b919050565b600082601f830112611f1857600080fd5b611f2783833560208501611e0f565b9392505050565b60008060008060008060c08789031215611f4757600080fd5b863567ffffffffffffffff811115611f5e57600080fd5b611f6a89828a01611c3f565b965050602087013567ffffffffffffffff811115611f8757600080fd5b611f9389828a01611c3f565b95505060408701359350611fa960608801611eeb565b9250608087013567ffffffffffffffff811115611fc557600080fd5b611fd189828a01611f07565b92505060a087013567ffffffffffffffff811115611fee57600080fd5b611ede89828a01611c3f565b600081518084526020840193506020830160005b8281101561202c57815186526020958601959091019060010161200e565b5093949350505050565b60208152612048602082018351611d41565b6000602083015161206460408401826001600160a01b03169052565b5060408301516101606060840152612080610180840182611d63565b905060608401516080840152608084015160a084015260a084015160c084015260c084015160e084015260e0840151610100840152610100840151610120840152610120840151601f19848303016101408501526120de8282611ffa565b915050610140840151601f19848303016101608501526120fe8282611ffa565b95945050505050565b60008060006060848603121561211c57600080fd5b505081359360208301359350604090920135919050565b634e487b7160e01b600052603260045260246000fd5b634e487b7160e01b600052601160045260246000fd5b8082018082111561217257612172612149565b92915050565b8181038181111561217257612172612149565b6001600160a01b039384168152919092166020820152604081019190915260600190565b6000602082840312156121c157600080fd5b81518015158114611f2757600080fd5b600181811c908216806121e557607f821691505b60208210810361220557634e487b7160e01b600052602260045260246000fd5b50919050565b808202811582820484141761217257612172612149565b818103600083128015838313168383128216171561224257612242612149565b5092915050565b600061ffff83168061226b57634e487b7160e01b600052601260045260246000fd5b8061ffff84160491505092915050565b601f8211156122c257806000526020600020601f840160051c810160208510156122a25750805b601f840160051c820191505b81811015610b2257600081556001016122ae565b505050565b815167ffffffffffffffff8111156122e1576122e1611bf8565b6122f5816122ef84546121d1565b8461227b565b6020601f82116001811461232957600083156123115750848201515b600019600385901b1c1916600184901b178455610b22565b600084815260208120601f198516915b828110156123595787850151825560209485019460019092019101612339565b50848210156123775786840151600019600387901b60f8161c191681555b50505050600190811b01905550565b6001600160a01b03851681526080602082018190526000906123aa90830186611d63565b6040830194909452506060015292915050565b6040815260006123d06040830185611d63565b9050826020830152939250505056fea2646970667358221220046b4319de007eeb32d3ec81a542c543d2157f7695b77f3ea0649a7375d5305e64736f6c634300081a0033","linkReferences":{}},"methodIdentifiers":{"CHALLENGE_PERIOD()":"c3a079ed","DEPOSIT_TOKEN()":"13f66587","MAX_DEPOSIT()":"dd5967c3","MAX_DEPOSIT_OUTPUTS()":"9cdb8e5a","MIN_DEPOSIT()":"e1e158a5","MIN_ORDER_GAS_MULTIPLIER()":"5f5d5b6a","PROOF_GAS_COST()":"eb6c7522","RELEASE_GAS_COST()":"9a64279c","RESERVATION_LOCKUP_PERIOD()":"89a11f7a","SAMPLING_SIZE()":"ad062e55","addBlock(uint256,uint256,bytes32)":"e9c6c176","currentHeight()":"163de0c5","depositLiquidity(bytes32,uint256,int256,uint256,int256)":"2143c3e9","depositVaults(uint256)":"5f4d0610","emptyDepositVault(uint256)":"490d4c5f","getBlockHash(uint256)":"ee82ac5e","getDepositVault(uint256)":"276d080e","getDepositVaultsLength()":"7dce5550","getReservation(uint256)":"d57763c3","getReservationLength()":"ea6fe03e","protocolFeeBP()":"c5fba0b8","proverReward()":"6dcc17c8","releaseLiquidity(uint256)":"77891907","releaserReward()":"9cc7eab9","reserveLiquidity(uint256[],uint256[],uint256,address,string,uint256[])":"c1ac1ffb","swapReservations(uint256)":"6b994abb","treasuryFee()":"cc32d176","unlockLiquidity(uint256,bytes32,uint256,bytes32,uint256,bytes)":"76898e82","updateExchangeRate(uint256,uint256,uint256[])":"b68c3a01","validateBlockExists(uint256)":"ed8b2b32","verifierContract()":"cf695688","withdrawLiquidity(uint256,uint256,uint256[])":"23e9245c"},"storageLayout":{"storage":[{"astId":46602,"contract":"src/RiftExchange.sol:RiftExchange","label":"blockchain","offset":0,"slot":"0","type":"t_mapping(t_uint256,t_bytes32)"},{"astId":46604,"contract":"src/RiftExchange.sol:RiftExchange","label":"currentHeight","offset":0,"slot":"1","type":"t_uint256"},{"astId":47190,"contract":"src/RiftExchange.sol:RiftExchange","label":"protocolFeeBP","offset":0,"slot":"2","type":"t_uint8"},{"astId":47193,"contract":"src/RiftExchange.sol:RiftExchange","label":"treasuryFee","offset":1,"slot":"2","type":"t_uint8"},{"astId":47196,"contract":"src/RiftExchange.sol:RiftExchange","label":"proverReward","offset":0,"slot":"3","type":"t_uint256"},{"astId":47199,"contract":"src/RiftExchange.sol:RiftExchange","label":"releaserReward","offset":0,"slot":"4","type":"t_uint256"},{"astId":47258,"contract":"src/RiftExchange.sol:RiftExchange","label":"liquidityProviders","offset":0,"slot":"5","type":"t_mapping(t_address,t_struct(LiquidityProvider)47208_storage)"},{"astId":47262,"contract":"src/RiftExchange.sol:RiftExchange","label":"swapReservations","offset":0,"slot":"6","type":"t_array(t_struct(SwapReservation)47253_storage)dyn_storage"},{"astId":47266,"contract":"src/RiftExchange.sol:RiftExchange","label":"depositVaults","offset":0,"slot":"7","type":"t_array(t_struct(DepositVault)47217_storage)dyn_storage"},{"astId":47275,"contract":"src/RiftExchange.sol:RiftExchange","label":"protocolAddress","offset":0,"slot":"8","type":"t_address_payable"}],"types":{"t_address":{"encoding":"inplace","label":"address","numberOfBytes":"20"},"t_address_payable":{"encoding":"inplace","label":"address payable","numberOfBytes":"20"},"t_array(t_struct(DepositVault)47217_storage)dyn_storage":{"encoding":"dynamic_array","label":"struct RiftExchange.DepositVault[]","numberOfBytes":"32","base":"t_struct(DepositVault)47217_storage"},"t_array(t_struct(SwapReservation)47253_storage)dyn_storage":{"encoding":"dynamic_array","label":"struct RiftExchange.SwapReservation[]","numberOfBytes":"32","base":"t_struct(SwapReservation)47253_storage"},"t_array(t_uint256)dyn_storage":{"encoding":"dynamic_array","label":"uint256[]","numberOfBytes":"32","base":"t_uint256"},"t_bytes32":{"encoding":"inplace","label":"bytes32","numberOfBytes":"32"},"t_enum(ReservationState)47224":{"encoding":"inplace","label":"enum RiftExchange.ReservationState","numberOfBytes":"1"},"t_int256":{"encoding":"inplace","label":"int256","numberOfBytes":"32"},"t_mapping(t_address,t_struct(LiquidityProvider)47208_storage)":{"encoding":"mapping","key":"t_address","label":"mapping(address => struct RiftExchange.LiquidityProvider)","numberOfBytes":"32","value":"t_struct(LiquidityProvider)47208_storage"},"t_mapping(t_uint256,t_bytes32)":{"encoding":"mapping","key":"t_uint256","label":"mapping(uint256 => bytes32)","numberOfBytes":"32","value":"t_bytes32"},"t_string_storage":{"encoding":"bytes","label":"string","numberOfBytes":"32"},"t_struct(DepositVault)47217_storage":{"encoding":"inplace","label":"struct RiftExchange.DepositVault","numberOfBytes":"128","members":[{"astId":47210,"contract":"src/RiftExchange.sol:RiftExchange","label":"initialBalance","offset":0,"slot":"0","type":"t_uint256"},{"astId":47212,"contract":"src/RiftExchange.sol:RiftExchange","label":"unreservedBalance","offset":0,"slot":"1","type":"t_uint256"},{"astId":47214,"contract":"src/RiftExchange.sol:RiftExchange","label":"btcExchangeRate","offset":0,"slot":"2","type":"t_uint256"},{"astId":47216,"contract":"src/RiftExchange.sol:RiftExchange","label":"btcPayoutAddress","offset":0,"slot":"3","type":"t_bytes32"}]},"t_struct(LiquidityProvider)47208_storage":{"encoding":"inplace","label":"struct RiftExchange.LiquidityProvider","numberOfBytes":"32","members":[{"astId":47207,"contract":"src/RiftExchange.sol:RiftExchange","label":"depositVaultIndexes","offset":0,"slot":"0","type":"t_array(t_uint256)dyn_storage"}]},"t_struct(SwapReservation)47253_storage":{"encoding":"inplace","label":"struct RiftExchange.SwapReservation","numberOfBytes":"320","members":[{"astId":47230,"contract":"src/RiftExchange.sol:RiftExchange","label":"state","offset":0,"slot":"0","type":"t_enum(ReservationState)47224"},{"astId":47232,"contract":"src/RiftExchange.sol:RiftExchange","label":"ethPayoutAddress","offset":1,"slot":"0","type":"t_address"},{"astId":47234,"contract":"src/RiftExchange.sol:RiftExchange","label":"btcSenderAddress","offset":0,"slot":"1","type":"t_string_storage"},{"astId":47236,"contract":"src/RiftExchange.sol:RiftExchange","label":"reservationTimestamp","offset":0,"slot":"2","type":"t_uint256"},{"astId":47238,"contract":"src/RiftExchange.sol:RiftExchange","label":"confirmationBlockHeight","offset":0,"slot":"3","type":"t_uint256"},{"astId":47240,"contract":"src/RiftExchange.sol:RiftExchange","label":"unlockTimestamp","offset":0,"slot":"4","type":"t_uint256"},{"astId":47242,"contract":"src/RiftExchange.sol:RiftExchange","label":"nonce","offset":0,"slot":"5","type":"t_bytes32"},{"astId":47244,"contract":"src/RiftExchange.sol:RiftExchange","label":"totalSwapAmount","offset":0,"slot":"6","type":"t_uint256"},{"astId":47246,"contract":"src/RiftExchange.sol:RiftExchange","label":"prepaidFeeAmount","offset":0,"slot":"7","type":"t_int256"},{"astId":47249,"contract":"src/RiftExchange.sol:RiftExchange","label":"vaultIndexes","offset":0,"slot":"8","type":"t_array(t_uint256)dyn_storage"},{"astId":47252,"contract":"src/RiftExchange.sol:RiftExchange","label":"amountsToReserve","offset":0,"slot":"9","type":"t_array(t_uint256)dyn_storage"}]},"t_uint256":{"encoding":"inplace","label":"uint256","numberOfBytes":"32"},"t_uint8":{"encoding":"inplace","label":"uint8","numberOfBytes":"1"}}},"id":25}