{"abi":[{"type":"constructor","inputs":[{"name":"initialCheckpointHeight","type":"uint256","internalType":"uint256"},{"name":"initialBlockHash","type":"bytes32","internalType":"bytes32"},{"name":"verifierContractAddress","type":"address","internalType":"address"}],"stateMutability":"nonpayable"},{"type":"function","name":"CHALLENGE_PERIOD","inputs":[],"outputs":[{"name":"","type":"uint256","internalType":"uint256"}],"stateMutability":"view"},{"type":"function","name":"MAX_DEPOSIT","inputs":[],"outputs":[{"name":"","type":"uint256","internalType":"uint256"}],"stateMutability":"view"},{"type":"function","name":"MAX_DEPOSIT_OUTPUTS","inputs":[],"outputs":[{"name":"","type":"uint16","internalType":"uint16"}],"stateMutability":"view"},{"type":"function","name":"MIN_DEPOSIT","inputs":[],"outputs":[{"name":"","type":"uint256","internalType":"uint256"}],"stateMutability":"view"},{"type":"function","name":"MIN_ORDER_GAS_MULTIPLIER","inputs":[],"outputs":[{"name":"","type":"uint256","internalType":"uint256"}],"stateMutability":"view"},{"type":"function","name":"PROOF_GAS_COST","inputs":[],"outputs":[{"name":"","type":"uint256","internalType":"uint256"}],"stateMutability":"view"},{"type":"function","name":"RELEASE_GAS_COST","inputs":[],"outputs":[{"name":"","type":"uint256","internalType":"uint256"}],"stateMutability":"view"},{"type":"function","name":"RESERVATION_LOCKUP_PERIOD","inputs":[],"outputs":[{"name":"","type":"uint256","internalType":"uint256"}],"stateMutability":"view"},{"type":"function","name":"SAMPLING_SIZE","inputs":[],"outputs":[{"name":"","type":"uint8","internalType":"uint8"}],"stateMutability":"view"},{"type":"function","name":"addBlock","inputs":[{"name":"blockCheckpointHeight","type":"uint256","internalType":"uint256"},{"name":"blockHeight","type":"uint256","internalType":"uint256"},{"name":"blockHash","type":"bytes32","internalType":"bytes32"}],"outputs":[],"stateMutability":"nonpayable"},{"type":"function","name":"currentHeight","inputs":[],"outputs":[{"name":"","type":"uint256","internalType":"uint256"}],"stateMutability":"view"},{"type":"function","name":"depositLiquidity","inputs":[{"name":"btcPayoutAddress","type":"bytes32","internalType":"bytes32"},{"name":"btcExchangeRate","type":"uint256","internalType":"uint256"},{"name":"vaultIndexToOverwrite","type":"int256","internalType":"int256"},{"name":"vaultIndexesWithSameExchangeRate","type":"uint256[]","internalType":"uint256[]"}],"outputs":[],"stateMutability":"payable"},{"type":"function","name":"depositVaults","inputs":[{"name":"","type":"uint256","internalType":"uint256"}],"outputs":[{"name":"initialBalance","type":"uint256","internalType":"uint256"},{"name":"unreservedBalance","type":"uint256","internalType":"uint256"},{"name":"btcExchangeRate","type":"uint256","internalType":"uint256"},{"name":"btcPayoutAddressIndex","type":"uint256","internalType":"uint256"}],"stateMutability":"view"},{"type":"function","name":"emptyDepositVault","inputs":[{"name":"vaultIndex","type":"uint256","internalType":"uint256"}],"outputs":[],"stateMutability":"nonpayable"},{"type":"function","name":"getBlockHash","inputs":[{"name":"blockHeight","type":"uint256","internalType":"uint256"}],"outputs":[{"name":"","type":"bytes32","internalType":"bytes32"}],"stateMutability":"view"},{"type":"function","name":"getDepositVault","inputs":[{"name":"depositIndex","type":"uint256","internalType":"uint256"}],"outputs":[{"name":"","type":"tuple","internalType":"struct RiftExchange.DepositVault","components":[{"name":"initialBalance","type":"uint256","internalType":"uint256"},{"name":"unreservedBalance","type":"uint256","internalType":"uint256"},{"name":"btcExchangeRate","type":"uint256","internalType":"uint256"},{"name":"btcPayoutAddressIndex","type":"uint256","internalType":"uint256"}]}],"stateMutability":"view"},{"type":"function","name":"getDepositVaultsLength","inputs":[],"outputs":[{"name":"","type":"uint256","internalType":"uint256"}],"stateMutability":"view"},{"type":"function","name":"getReservation","inputs":[{"name":"reservationIndex","type":"uint256","internalType":"uint256"}],"outputs":[{"name":"","type":"tuple","internalType":"struct RiftExchange.SwapReservation","components":[{"name":"state","type":"uint8","internalType":"enum RiftExchange.ReservationState"},{"name":"ethPayoutAddress","type":"address","internalType":"address"},{"name":"btcSenderAddress","type":"string","internalType":"string"},{"name":"reservationTimestamp","type":"uint256","internalType":"uint256"},{"name":"confirmationBlockHeight","type":"uint256","internalType":"uint256"},{"name":"unlockTimestamp","type":"uint256","internalType":"uint256"},{"name":"nonce","type":"bytes32","internalType":"bytes32"},{"name":"totalSwapAmount","type":"uint256","internalType":"uint256"},{"name":"prepaidFeeAmount","type":"int256","internalType":"int256"},{"name":"vaultIndexes","type":"uint256[]","internalType":"uint256[]"},{"name":"amountsToReserve","type":"uint256[]","internalType":"uint256[]"}]}],"stateMutability":"view"},{"type":"function","name":"getReservationLength","inputs":[],"outputs":[{"name":"","type":"uint256","internalType":"uint256"}],"stateMutability":"view"},{"type":"function","name":"protocolFeeBP","inputs":[],"outputs":[{"name":"","type":"uint8","internalType":"uint8"}],"stateMutability":"view"},{"type":"function","name":"proverReward","inputs":[],"outputs":[{"name":"","type":"uint256","internalType":"uint256"}],"stateMutability":"view"},{"type":"function","name":"releaseLiquidity","inputs":[{"name":"swapReservationIndex","type":"uint256","internalType":"uint256"}],"outputs":[],"stateMutability":"nonpayable"},{"type":"function","name":"releaserReward","inputs":[],"outputs":[{"name":"","type":"uint256","internalType":"uint256"}],"stateMutability":"view"},{"type":"function","name":"reserveLiquidity","inputs":[{"name":"vaultIndexesToReserve","type":"uint256[]","internalType":"uint256[]"},{"name":"amountsToReserve","type":"uint256[]","internalType":"uint256[]"},{"name":"ethPayoutAddress","type":"address","internalType":"address"},{"name":"btcSenderAddress","type":"string","internalType":"string"},{"name":"expiredSwapReservationIndexes","type":"uint256[]","internalType":"uint256[]"}],"outputs":[],"stateMutability":"payable"},{"type":"function","name":"swapReservations","inputs":[{"name":"","type":"uint256","internalType":"uint256"}],"outputs":[{"name":"state","type":"uint8","internalType":"enum RiftExchange.ReservationState"},{"name":"ethPayoutAddress","type":"address","internalType":"address"},{"name":"btcSenderAddress","type":"string","internalType":"string"},{"name":"reservationTimestamp","type":"uint256","internalType":"uint256"},{"name":"confirmationBlockHeight","type":"uint256","internalType":"uint256"},{"name":"unlockTimestamp","type":"uint256","internalType":"uint256"},{"name":"nonce","type":"bytes32","internalType":"bytes32"},{"name":"totalSwapAmount","type":"uint256","internalType":"uint256"},{"name":"prepaidFeeAmount","type":"int256","internalType":"int256"}],"stateMutability":"view"},{"type":"function","name":"treasuryFee","inputs":[],"outputs":[{"name":"","type":"uint8","internalType":"uint8"}],"stateMutability":"view"},{"type":"function","name":"unlockLiquidity","inputs":[{"name":"swapReservationIndex","type":"uint256","internalType":"uint256"},{"name":"btcBlockHash","type":"bytes32","internalType":"bytes32"},{"name":"blockCheckpointHeight","type":"uint256","internalType":"uint256"},{"name":"confirmationBlockHash","type":"bytes32","internalType":"bytes32"},{"name":"confirmationBlockHeightDelta","type":"uint256","internalType":"uint256"},{"name":"proof","type":"bytes","internalType":"bytes"}],"outputs":[],"stateMutability":"nonpayable"},{"type":"function","name":"updateExchangeRate","inputs":[{"name":"vaultIndex","type":"uint256","internalType":"uint256"},{"name":"newBtcExchangeRate","type":"uint256","internalType":"uint256"},{"name":"expiredReservationIndexes","type":"uint256[]","internalType":"uint256[]"}],"outputs":[],"stateMutability":"nonpayable"},{"type":"function","name":"validateBlockExists","inputs":[{"name":"blockHeight","type":"uint256","internalType":"uint256"}],"outputs":[],"stateMutability":"view"},{"type":"function","name":"verifierContract","inputs":[],"outputs":[{"name":"","type":"address","internalType":"contract UltraVerifier"}],"stateMutability":"view"},{"type":"function","name":"withdrawLiquidity","inputs":[{"name":"vaultIndex","type":"uint256","internalType":"uint256"},{"name":"amountToWithdraw","type":"uint256","internalType":"uint256"},{"name":"expiredReservationIndexes","type":"uint256[]","internalType":"uint256[]"}],"outputs":[],"stateMutability":"nonpayable"},{"type":"error","name":"BlockDoesNotExist","inputs":[]},{"type":"error","name":"DepositFailed","inputs":[]},{"type":"error","name":"DepositTooHigh","inputs":[]},{"type":"error","name":"DepositTooLow","inputs":[]},{"type":"error","name":"InvaidSameExchangeRatevaultIndex","inputs":[]},{"type":"error","name":"InvalidCheckpoint","inputs":[]},{"type":"error","name":"InvalidUpdateWithActiveReservations","inputs":[]},{"type":"error","name":"InvalidVaultIndex","inputs":[]},{"type":"error","name":"InvalidVaultUpdate","inputs":[]},{"type":"error","name":"NotEnoughLiquidity","inputs":[]},{"type":"error","name":"ReservationAmountTooLow","inputs":[]},{"type":"error","name":"ReservationFeeTooLow","inputs":[]},{"type":"error","name":"ReservationNotExpired","inputs":[]},{"type":"error","name":"ReservationNotUnlocked","inputs":[]},{"type":"error","name":"StillInChallengePeriod","inputs":[]},{"type":"error","name":"WithdrawFailed","inputs":[]},{"type":"error","name":"WithdrawalAmountError","inputs":[]},{"type":"error","name":"exchangeRateZero","inputs":[]}],"bytecode":{"object":"0x60a06040526002805461ffff1916606417905566071afd498d000060035565b5e620f48000600455600880546001600160a01b03191673f39fd6e51aad88f6f4ce6ab8827279cfffb9226617905534801561005957600080fd5b5060405161240c38038061240c8339810160408190526100789161009e565b6001839055600092835260208390526040909220556001600160a01b03166080526100e4565b6000806000606084860312156100b357600080fd5b83516020850151604086015191945092506001600160a01b03811681146100d957600080fd5b809150509250925092565b60805161230d6100ff60003960006104b6015261230d6000f3fe6080604052600436106101d85760003560e01c80639cdb8e5a11610102578063dd5967c311610095578063ea6fe03e11610064578063ea6fe03e1461058a578063eb6c75221461059f578063ed8b2b32146105b6578063ee82ac5e146105d657600080fd5b8063dd5967c31461051d578063e1e158a51461053b578063e63e55ff14610557578063e9c6c1761461056a57600080fd5b8063c5fba0b8116100d1578063c5fba0b81461046b578063cc32d17614610485578063cf695688146104a4578063d57763c3146104f057600080fd5b80639cdb8e5a146103e6578063ad062e551461040e578063b68c3a0114610435578063c3a079ed1461045557600080fd5b80636b994abb1161017a5780637dce5550116101495780637dce55501461038e57806389a11f7a146103a35780639a64279c146103b95780639cc7eab9146103d057600080fd5b80636b994abb146103035780636dcc17c81461033857806376898e821461034e578063778919071461036e57600080fd5b8063347f990a116101b6578063347f990a1461027b578063490d4c5f1461028e5780635f4d0610146102ae5780635f5d5b6a146102ee57600080fd5b8063163de0c5146101dd57806323e9245c14610206578063276d080e14610228575b600080fd5b3480156101e957600080fd5b506101f360015481565b6040519081526020015b60405180910390f35b34801561021257600080fd5b50610226610221366004611baf565b610603565b005b34801561023457600080fd5b50610248610243366004611bff565b610736565b6040516101fd91908151815260208083015190820152604080830151908201526060918201519181019190915260800190565b610226610289366004611c18565b6107bc565b34801561029a57600080fd5b506102266102a9366004611bff565b610b1d565b3480156102ba57600080fd5b506102ce6102c9366004611bff565b610b5a565b6040805194855260208501939093529183015260608201526080016101fd565b3480156102fa57600080fd5b506101f3600281565b34801561030f57600080fd5b5061032361031e366004611bff565b610b94565b6040516101fd99989796959493929190611cf0565b34801561034457600080fd5b506101f360035481565b34801561035a57600080fd5b50610226610369366004611db2565b610c83565b34801561037a57600080fd5b50610226610389366004611bff565b610da2565b34801561039a57600080fd5b506007546101f3565b3480156103af57600080fd5b506101f361546081565b3480156103c557600080fd5b506101f36203345081565b3480156103dc57600080fd5b506101f360045481565b3480156103f257600080fd5b506103fb603281565b60405161ffff90911681526020016101fd565b34801561041a57600080fd5b50610423600a81565b60405160ff90911681526020016101fd565b34801561044157600080fd5b50610226610450366004611baf565b610f79565b34801561046157600080fd5b506101f361025881565b34801561047757600080fd5b506002546104239060ff1681565b34801561049157600080fd5b5060025461042390610100900460ff1681565b3480156104b057600080fd5b506104d87f000000000000000000000000000000000000000000000000000000000000000081565b6040516001600160a01b0390911681526020016101fd565b3480156104fc57600080fd5b5061051061050b366004611bff565b610ff8565b6040516101fd9190611e6e565b34801561052957600080fd5b506101f3692a5a058fc295ed00000081565b34801561054757600080fd5b506101f36706f05b59d3b2000081565b610226610565366004611f66565b61125b565b34801561057657600080fd5b50610226610585366004612045565b611799565b34801561059657600080fd5b506006546101f3565b3480156105ab57600080fd5b506101f3620668a081565b3480156105c257600080fd5b506102266105d1366004611bff565b61181f565b3480156105e257600080fd5b506101f36105f1366004611bff565b60009081526020819052604090205490565b60075483106106255760405163721e09df60e01b815260040160405180910390fd5b60006007848154811061063a5761063a612071565b906000526020600020906004020190506106538261184e565b8215806106635750806001015483115b156106815760405163b4e3d41360e01b815260040160405180910390fd5b82816001016000828254610695919061209d565b9091555050604051600090339085908381818185875af1925050503d80600081146106dc576040519150601f19603f3d011682016040523d82523d6000602084013e6106e1565b606091505b505090508061072f5760405162461bcd60e51b815260206004820152601660248201527508cc2d2d8cac840e8de40e8e4c2dce6cccae4408aa8960531b604482015260640160405180910390fd5b5050505050565b6107616040518060800160405280600081526020016000815260200160008152602001600081525090565b6007828154811061077457610774612071565b90600052602060002090600402016040518060800160405290816000820154815260200160018201548152602001600282015481526020016003820154815250509050919050565b346706f05b59d3b200008110156107e657604051632b7786bd60e21b815260040160405180910390fd5b692a5a058fc295ed00000081106108105760405163c066e1e960e01b815260040160405180910390fd5b8360000361083157604051635c4ad48d60e11b815260040160405180910390fd5b3360009081526005602052604081206001015490036108d2576040805160008183018181526060830184528252825181815260208082018552808401919091523382526005815292902081518051929391926108909284920190611a85565b5060208281015180516108a99260018501920190611a85565b505033600090815260056020908152604082206001908101805491820181558352912001869055505b8151156109be5760005b82518110156109b85760008382815181106108f9576108f9612071565b6020026020010151905060006007828154811061091857610918612071565b60009182526020808320338452600590915260409092206002600490920290920190810154909250881480156109705750888160010183600301548154811061096357610963612071565b9060005260206000200154145b15610994578482600101600082825461098991906120b6565b909155506109ad9050565b60405163927ce9e760e01b815260040160405180910390fd5b5050506001016108dc565b50610ae2565b8260001914610a4a576000600784815481106109dc576109dc612071565b906000526020600020906004020190508060010154600014610a115760405163721e09df60e01b815260040160405180910390fd5b818155600180820183905560028201869055336000908152600560205260409020810154610a3f919061209d565b600390910155610ae2565b60076040518060800160405280838152602001838152602001868152602001600160056000336001600160a01b03166001600160a01b0316815260200190815260200160002060010180549050610aa1919061209d565b905281546001818101845560009384526020938490208351600490930201918255928201519281019290925560408101516002830155606001516003909101555b336000908152600560205260409020600754610b009060019061209d565b815460018101835560009283526020909220909101555050505050565b600060078281548110610b3257610b32612071565b6000918252602082206004909102018181556001810182905560028101829055600301555050565b60078181548110610b6a57600080fd5b60009182526020909120600490910201805460018201546002830154600390930154919350919084565b60068181548110610ba457600080fd5b60009182526020909120600a90910201805460018201805460ff831694506101009092046001600160a01b03169291610bdc906120c9565b80601f0160208091040260200160405190810160405280929190818152602001828054610c08906120c9565b8015610c555780601f10610c2a57610100808354040283529160200191610c55565b820191906000526020600020905b815481529060010190602001808311610c3857829003601f168201915b5050505050908060020154908060030154908060040154908060050154908060060154908060070154905089565b600060068781548110610c9857610c98612071565b90600052602060002090600a02019050610cb3858486611799565b6003818101869055815460ff19161781556000610cd348620668a0612103565b600354610ce091906120b6565b604051909150600090339083908381818185875af1925050503d8060008114610d25576040519150601f19603f3d011682016040523d82523d6000602084013e610d2a565b606091505b5050905080610d4c57604051631d42c86760e21b815260040160405180910390fd5b81836007016000828254610d60919061211a565b9091555050600783015460001315610d97578260070154836006016000828254610d8a91906120b6565b9091555050600060078401555b505050505050505050565b600060068281548110610db757610db7612071565b60009182526020909120600a9091020190506003815460ff166005811115610de157610de1611c72565b14610dff5760405163b38c767b60e01b815260040160405180910390fd5b610258816004015442610e12919061209d565b1015610e3157604051632d5c37f560e21b815260040160405180910390fd5b6000610e404862033450612103565b600454610e4d91906120b6565b604051909150600090339083908381818185875af1925050503d8060008114610e92576040519150601f19603f3d011682016040523d82523d6000602084013e610e97565b606091505b5050905080610eb957604051631d42c86760e21b815260040160405180910390fd5b81836007016000828254610ecd919061211a565b9091555050600783015460001315610efd578260070154836006016000828254610ef791906120b6565b90915550505b8254600684015460405160009261010090046001600160a01b031691908381818185875af1925050503d8060008114610f52576040519150601f19603f3d011682016040523d82523d6000602084013e610f57565b606091505b505090508061072f57604051631d42c86760e21b815260040160405180910390fd5b81600003610f9a57604051636e5a187760e11b815260040160405180910390fd5b600060078481548110610faf57610faf612071565b90600052602060002090600402019050610fc88261184e565b8054600182015414610fed576040516391bc6cc360e01b815260040160405180910390fd5b600201919091555050565b611062604080516101608101909152806000815260200160006001600160a01b031681526020016060815260200160008152602001600081526020016000815260200160008019168152602001600081526020016000815260200160608152602001606081525090565b6006828154811061107557611075612071565b60009182526020909120604080516101608101909152600a909202018054829060ff1660058111156110a9576110a9611c72565b60058111156110ba576110ba611c72565b8152815461010090046001600160a01b031660208201526001820180546040909201916110e6906120c9565b80601f0160208091040260200160405190810160405280929190818152602001828054611112906120c9565b801561115f5780601f106111345761010080835404028352916020019161115f565b820191906000526020600020905b81548152906001019060200180831161114257829003601f168201915b50505050508152602001600282015481526020016003820154815260200160048201548152602001600582015481526020016006820154815260200160078201548152602001600882018054806020026020016040519081016040528092919081815260200182805480156111f357602002820191906000526020600020905b8154815260200190600101908083116111df575b505050505081526020016009820180548060200260200160405190810160405280929190818152602001828054801561124b57602002820191906000526020600020905b815481526020019060010190808311611237575b5050505050815250509050919050565b6000805b85518110156112975785818151811061127a5761127a612071565b60200260200101518261128d91906120b6565b915060010161125f565b506002546000906112ae906127109060ff16612141565b6112bc9061ffff1683612103565b9050600060026112cf48620668a0612103565b6112d99190612103565b6003546112e691906120b6565b9050600060026112f94862033450612103565b6113039190612103565b60045461131091906120b6565b90508061131d84846120b6565b61132791906120b6565b341015611347576040516359cf7a8d60e11b815260040160405180910390fd5b6008546040516000916001600160a01b03169085908381818185875af1925050503d8060008114611394576040519150601f19603f3d011682016040523d82523d6000602084013e611399565b606091505b50509050806113bb57604051635658f5cf60e11b815260040160405180910390fd5b6113c4866119a5565b6113cd8661184e565b60005b8a518110156114645760008a82815181106113ed576113ed612071565b60200260200101519050600060078d848151811061140d5761140d612071565b60200260200101518154811061142557611425612071565b90600052602060002090600402019050806001015482111561145a57604051634323a55560e01b815260040160405180910390fd5b50506001016113d0565b5085511561156d57600060068760008151811061148357611483612071565b60200260200101518154811061149b5761149b612071565b60009182526020909120600a90910201805460016001600160a81b03199091166101006001600160a01b038d1602178117825590915081016114dd89826121bf565b5042600282015560006003820181905560048201556114fc83856120b6565b60078201556006810186905560405161151f908a908a904290469060200161227e565b60408051601f19818403018152919052805160209182012060058301558b51611550916008840191908e0190611a85565b50895161156690600983019060208d0190611a85565b50506116f8565b60408051610160810190915260069080600181526020018a6001600160a01b0316815260200189815260200142815260200160008152602001600081526020018a8a42466040516020016115c4949392919061227e565b60405160208183030381529060405280519060200120815260200187815260200184866115f191906120b6565b815260208082018e905260409091018c90528254600181810185556000948552919093208251600a909402018054929390929091839160ff19169083600581111561163e5761163e611c72565b0217905550602082015181546001600160a01b0390911661010002610100600160a81b03199091161781556040820151600182019061167d90826121bf565b50606082015160028201556080820151600382015560a0820151600482015560c0820151600582015560e08201516006820155610100820151600782015561012082015180516116d7916008840191602090910190611a85565b5061014082015180516116f4916009840191602090910190611a85565b5050505b60008461170584866120b6565b61170f91906120b6565b611719903461209d565b9050801561178c57604051600090339083908381818185875af1925050503d8060008114611763576040519150601f19603f3d011682016040523d82523d6000602084013e611768565b606091505b505090508061178a576040516379cacff160e01b815260040160405180910390fd5b505b5050505050505050505050565b600154808411156117bd57604051630f0f97d160e01b815260040160405180910390fd5b80841080156117cc5750808310155b1561180957835b8181101561180757600081815260208190526040902054156117ff576000818152602081905260408120555b6001016117d3565b505b5060008281526020819052604090205560015550565b60008181526020819052604090205461184b5760405163fa4a5e4560e01b815260040160405180910390fd5b50565b60005b81518110156119a157611863826119a5565b6118bb6040518060400160405280601e81526020017f657870697265645265736572766174696f6e496e64657865735b695d3a2000008152508383815181106118ae576118ae612071565b6020026020010151611a24565b600060068383815181106118d1576118d1612071565b6020026020010151815481106118e9576118e9612071565b600091825260208220600a90910201805460ff1916600517815591505b6008820154811015611997576000600783600801838154811061192b5761192b612071565b90600052602060002001548154811061194657611946612071565b9060005260206000209060040201905082600901828154811061196b5761196b612071565b906000526020600020015481600101600082825461198991906120b6565b909155505050600101611906565b5050600101611851565b5050565b60005b81518110156119a15761546060068383815181106119c8576119c8612071565b6020026020010151815481106119e0576119e0612071565b90600052602060002090600a020160020154426119fd919061209d565b1015611a1c576040516326349d6b60e01b815260040160405180910390fd5b6001016119a8565b6119a18282604051602401611a3a9291906122b5565b60408051601f198184030181529190526020810180516001600160e01b03166309710a9d60e41b17905280516a636f6e736f6c652e6c6f67602083016000808483855afa5050505050565b828054828255906000526020600020908101928215611ac0579160200282015b82811115611ac0578251825591602001919060010190611aa5565b50611acc929150611ad0565b5090565b5b80821115611acc5760008155600101611ad1565b634e487b7160e01b600052604160045260246000fd5b604051601f8201601f1916810167ffffffffffffffff81118282101715611b2457611b24611ae5565b604052919050565b600082601f830112611b3d57600080fd5b813567ffffffffffffffff811115611b5757611b57611ae5565b8060051b611b6760208201611afb565b91825260208185018101929081019086841115611b8357600080fd5b6020860192505b83831015611ba5578235825260209283019290910190611b8a565b9695505050505050565b600080600060608486031215611bc457600080fd5b8335925060208401359150604084013567ffffffffffffffff811115611be957600080fd5b611bf586828701611b2c565b9150509250925092565b600060208284031215611c1157600080fd5b5035919050565b60008060008060808587031215611c2e57600080fd5b843593506020850135925060408501359150606085013567ffffffffffffffff811115611c5a57600080fd5b611c6687828801611b2c565b91505092959194509250565b634e487b7160e01b600052602160045260246000fd5b60068110611ca657634e487b7160e01b600052602160045260246000fd5b9052565b6000815180845260005b81811015611cd057602081850181015186830182015201611cb4565b506000602082860101526020601f19601f83011685010191505092915050565b611cfa818b611c88565b6001600160a01b038916602082015261012060408201819052600090611d229083018a611caa565b606083019890985250608081019590955260a085019390935260c084019190915260e0830152610100909101529392505050565b60008067ffffffffffffffff841115611d7157611d71611ae5565b50601f8301601f1916602001611d8681611afb565b915050828152838383011115611d9b57600080fd5b828260208301376000602084830101529392505050565b60008060008060008060c08789031215611dcb57600080fd5b863595506020870135945060408701359350606087013592506080870135915060a087013567ffffffffffffffff811115611e0557600080fd5b8701601f81018913611e1657600080fd5b611e2589823560208401611d56565b9150509295509295509295565b600081518084526020840193506020830160005b82811015611e64578151865260209586019590910190600101611e46565b5093949350505050565b60208152611e80602082018351611c88565b60006020830151611e9c60408401826001600160a01b03169052565b5060408301516101606060840152611eb8610180840182611caa565b905060608401516080840152608084015160a084015260a084015160c084015260c084015160e084015260e0840151610100840152610100840151610120840152610120840151601f1984830301610140850152611f168282611e32565b915050610140840151601f1984830301610160850152611f368282611e32565b95945050505050565b600082601f830112611f5057600080fd5b611f5f83833560208501611d56565b9392505050565b600080600080600060a08688031215611f7e57600080fd5b853567ffffffffffffffff811115611f9557600080fd5b611fa188828901611b2c565b955050602086013567ffffffffffffffff811115611fbe57600080fd5b611fca88828901611b2c565b94505060408601356001600160a01b0381168114611fe757600080fd5b9250606086013567ffffffffffffffff81111561200357600080fd5b61200f88828901611f3f565b925050608086013567ffffffffffffffff81111561202c57600080fd5b61203888828901611b2c565b9150509295509295909350565b60008060006060848603121561205a57600080fd5b505081359360208301359350604090920135919050565b634e487b7160e01b600052603260045260246000fd5b634e487b7160e01b600052601160045260246000fd5b818103818111156120b0576120b0612087565b92915050565b808201808211156120b0576120b0612087565b600181811c908216806120dd57607f821691505b6020821081036120fd57634e487b7160e01b600052602260045260246000fd5b50919050565b80820281158282048414176120b0576120b0612087565b818103600083128015838313168383128216171561213a5761213a612087565b5092915050565b600061ffff83168061216357634e487b7160e01b600052601260045260246000fd5b8061ffff84160491505092915050565b601f8211156121ba57806000526020600020601f840160051c8101602085101561219a5750805b601f840160051c820191505b8181101561072f57600081556001016121a6565b505050565b815167ffffffffffffffff8111156121d9576121d9611ae5565b6121ed816121e784546120c9565b84612173565b6020601f82116001811461222157600083156122095750848201515b600019600385901b1c1916600184901b17845561072f565b600084815260208120601f198516915b828110156122515787850151825560209485019460019092019101612231565b508482101561226f5786840151600019600387901b60f8161c191681555b50505050600190811b01905550565b6001600160a01b03851681526080602082018190526000906122a290830186611caa565b6040830194909452506060015292915050565b6040815260006122c86040830185611caa565b9050826020830152939250505056fea26469706673582212202468965feccba6adb5d70e2fb15423590ae3ad2b732826535c584a48cdc4284b64736f6c634300081a0033","linkReferences":{}},"methodIdentifiers":{"CHALLENGE_PERIOD()":"c3a079ed","MAX_DEPOSIT()":"dd5967c3","MAX_DEPOSIT_OUTPUTS()":"9cdb8e5a","MIN_DEPOSIT()":"e1e158a5","MIN_ORDER_GAS_MULTIPLIER()":"5f5d5b6a","PROOF_GAS_COST()":"eb6c7522","RELEASE_GAS_COST()":"9a64279c","RESERVATION_LOCKUP_PERIOD()":"89a11f7a","SAMPLING_SIZE()":"ad062e55","addBlock(uint256,uint256,bytes32)":"e9c6c176","currentHeight()":"163de0c5","depositLiquidity(bytes32,uint256,int256,uint256[])":"347f990a","depositVaults(uint256)":"5f4d0610","emptyDepositVault(uint256)":"490d4c5f","getBlockHash(uint256)":"ee82ac5e","getDepositVault(uint256)":"276d080e","getDepositVaultsLength()":"7dce5550","getReservation(uint256)":"d57763c3","getReservationLength()":"ea6fe03e","protocolFeeBP()":"c5fba0b8","proverReward()":"6dcc17c8","releaseLiquidity(uint256)":"77891907","releaserReward()":"9cc7eab9","reserveLiquidity(uint256[],uint256[],address,string,uint256[])":"e63e55ff","swapReservations(uint256)":"6b994abb","treasuryFee()":"cc32d176","unlockLiquidity(uint256,bytes32,uint256,bytes32,uint256,bytes)":"76898e82","updateExchangeRate(uint256,uint256,uint256[])":"b68c3a01","validateBlockExists(uint256)":"ed8b2b32","verifierContract()":"cf695688","withdrawLiquidity(uint256,uint256,uint256[])":"23e9245c"},"storageLayout":{"storage":[{"astId":46602,"contract":"src/RiftExchange.sol:RiftExchange","label":"blockchain","offset":0,"slot":"0","type":"t_mapping(t_uint256,t_bytes32)"},{"astId":46604,"contract":"src/RiftExchange.sol:RiftExchange","label":"currentHeight","offset":0,"slot":"1","type":"t_uint256"},{"astId":47168,"contract":"src/RiftExchange.sol:RiftExchange","label":"protocolFeeBP","offset":0,"slot":"2","type":"t_uint8"},{"astId":47171,"contract":"src/RiftExchange.sol:RiftExchange","label":"treasuryFee","offset":1,"slot":"2","type":"t_uint8"},{"astId":47174,"contract":"src/RiftExchange.sol:RiftExchange","label":"proverReward","offset":0,"slot":"3","type":"t_uint256"},{"astId":47177,"contract":"src/RiftExchange.sol:RiftExchange","label":"releaserReward","offset":0,"slot":"4","type":"t_uint256"},{"astId":47236,"contract":"src/RiftExchange.sol:RiftExchange","label":"liquidityProviders","offset":0,"slot":"5","type":"t_mapping(t_address,t_struct(LiquidityProvider)47189_storage)"},{"astId":47240,"contract":"src/RiftExchange.sol:RiftExchange","label":"swapReservations","offset":0,"slot":"6","type":"t_array(t_struct(SwapReservation)47231_storage)dyn_storage"},{"astId":47244,"contract":"src/RiftExchange.sol:RiftExchange","label":"depositVaults","offset":0,"slot":"7","type":"t_array(t_struct(DepositVault)47198_storage)dyn_storage"},{"astId":47253,"contract":"src/RiftExchange.sol:RiftExchange","label":"protocolAddress","offset":0,"slot":"8","type":"t_address_payable"}],"types":{"t_address":{"encoding":"inplace","label":"address","numberOfBytes":"20"},"t_address_payable":{"encoding":"inplace","label":"address payable","numberOfBytes":"20"},"t_array(t_bytes32)dyn_storage":{"encoding":"dynamic_array","label":"bytes32[]","numberOfBytes":"32","base":"t_bytes32"},"t_array(t_struct(DepositVault)47198_storage)dyn_storage":{"encoding":"dynamic_array","label":"struct RiftExchange.DepositVault[]","numberOfBytes":"32","base":"t_struct(DepositVault)47198_storage"},"t_array(t_struct(SwapReservation)47231_storage)dyn_storage":{"encoding":"dynamic_array","label":"struct RiftExchange.SwapReservation[]","numberOfBytes":"32","base":"t_struct(SwapReservation)47231_storage"},"t_array(t_uint256)dyn_storage":{"encoding":"dynamic_array","label":"uint256[]","numberOfBytes":"32","base":"t_uint256"},"t_bytes32":{"encoding":"inplace","label":"bytes32","numberOfBytes":"32"},"t_enum(ReservationState)47205":{"encoding":"inplace","label":"enum RiftExchange.ReservationState","numberOfBytes":"1"},"t_int256":{"encoding":"inplace","label":"int256","numberOfBytes":"32"},"t_mapping(t_address,t_struct(LiquidityProvider)47189_storage)":{"encoding":"mapping","key":"t_address","label":"mapping(address => struct RiftExchange.LiquidityProvider)","numberOfBytes":"32","value":"t_struct(LiquidityProvider)47189_storage"},"t_mapping(t_uint256,t_bytes32)":{"encoding":"mapping","key":"t_uint256","label":"mapping(uint256 => bytes32)","numberOfBytes":"32","value":"t_bytes32"},"t_string_storage":{"encoding":"bytes","label":"string","numberOfBytes":"32"},"t_struct(DepositVault)47198_storage":{"encoding":"inplace","label":"struct RiftExchange.DepositVault","numberOfBytes":"128","members":[{"astId":47191,"contract":"src/RiftExchange.sol:RiftExchange","label":"initialBalance","offset":0,"slot":"0","type":"t_uint256"},{"astId":47193,"contract":"src/RiftExchange.sol:RiftExchange","label":"unreservedBalance","offset":0,"slot":"1","type":"t_uint256"},{"astId":47195,"contract":"src/RiftExchange.sol:RiftExchange","label":"btcExchangeRate","offset":0,"slot":"2","type":"t_uint256"},{"astId":47197,"contract":"src/RiftExchange.sol:RiftExchange","label":"btcPayoutAddressIndex","offset":0,"slot":"3","type":"t_uint256"}]},"t_struct(LiquidityProvider)47189_storage":{"encoding":"inplace","label":"struct RiftExchange.LiquidityProvider","numberOfBytes":"64","members":[{"astId":47185,"contract":"src/RiftExchange.sol:RiftExchange","label":"depositVaultIndexes","offset":0,"slot":"0","type":"t_array(t_uint256)dyn_storage"},{"astId":47188,"contract":"src/RiftExchange.sol:RiftExchange","label":"btcPayoutAddresses","offset":0,"slot":"1","type":"t_array(t_bytes32)dyn_storage"}]},"t_struct(SwapReservation)47231_storage":{"encoding":"inplace","label":"struct RiftExchange.SwapReservation","numberOfBytes":"320","members":[{"astId":47208,"contract":"src/RiftExchange.sol:RiftExchange","label":"state","offset":0,"slot":"0","type":"t_enum(ReservationState)47205"},{"astId":47210,"contract":"src/RiftExchange.sol:RiftExchange","label":"ethPayoutAddress","offset":1,"slot":"0","type":"t_address"},{"astId":47212,"contract":"src/RiftExchange.sol:RiftExchange","label":"btcSenderAddress","offset":0,"slot":"1","type":"t_string_storage"},{"astId":47214,"contract":"src/RiftExchange.sol:RiftExchange","label":"reservationTimestamp","offset":0,"slot":"2","type":"t_uint256"},{"astId":47216,"contract":"src/RiftExchange.sol:RiftExchange","label":"confirmationBlockHeight","offset":0,"slot":"3","type":"t_uint256"},{"astId":47218,"contract":"src/RiftExchange.sol:RiftExchange","label":"unlockTimestamp","offset":0,"slot":"4","type":"t_uint256"},{"astId":47220,"contract":"src/RiftExchange.sol:RiftExchange","label":"nonce","offset":0,"slot":"5","type":"t_bytes32"},{"astId":47222,"contract":"src/RiftExchange.sol:RiftExchange","label":"totalSwapAmount","offset":0,"slot":"6","type":"t_uint256"},{"astId":47224,"contract":"src/RiftExchange.sol:RiftExchange","label":"prepaidFeeAmount","offset":0,"slot":"7","type":"t_int256"},{"astId":47227,"contract":"src/RiftExchange.sol:RiftExchange","label":"vaultIndexes","offset":0,"slot":"8","type":"t_array(t_uint256)dyn_storage"},{"astId":47230,"contract":"src/RiftExchange.sol:RiftExchange","label":"amountsToReserve","offset":0,"slot":"9","type":"t_array(t_uint256)dyn_storage"}]},"t_uint256":{"encoding":"inplace","label":"uint256","numberOfBytes":"32"},"t_uint8":{"encoding":"inplace","label":"uint8","numberOfBytes":"1"}}},"id":25}