{"abi":[{"type":"constructor","inputs":[{"name":"initialCheckpointHeight","type":"uint256","internalType":"uint256"},{"name":"initialBlockHash","type":"bytes32","internalType":"bytes32"},{"name":"verifierContractAddress","type":"address","internalType":"address"},{"name":"depositTokenAddress","type":"address","internalType":"address"},{"name":"minDeposit","type":"uint256","internalType":"uint256"},{"name":"maxDeposit","type":"uint256","internalType":"uint256"}],"stateMutability":"nonpayable"},{"type":"function","name":"CHALLENGE_PERIOD","inputs":[],"outputs":[{"name":"","type":"uint256","internalType":"uint256"}],"stateMutability":"view"},{"type":"function","name":"DEPOSIT_TOKEN","inputs":[],"outputs":[{"name":"","type":"address","internalType":"contract IERC20"}],"stateMutability":"view"},{"type":"function","name":"MAX_DEPOSIT","inputs":[],"outputs":[{"name":"","type":"uint256","internalType":"uint256"}],"stateMutability":"view"},{"type":"function","name":"MAX_DEPOSIT_OUTPUTS","inputs":[],"outputs":[{"name":"","type":"uint16","internalType":"uint16"}],"stateMutability":"view"},{"type":"function","name":"MIN_DEPOSIT","inputs":[],"outputs":[{"name":"","type":"uint256","internalType":"uint256"}],"stateMutability":"view"},{"type":"function","name":"MIN_ORDER_GAS_MULTIPLIER","inputs":[],"outputs":[{"name":"","type":"uint256","internalType":"uint256"}],"stateMutability":"view"},{"type":"function","name":"PROOF_GAS_COST","inputs":[],"outputs":[{"name":"","type":"uint256","internalType":"uint256"}],"stateMutability":"view"},{"type":"function","name":"RELEASE_GAS_COST","inputs":[],"outputs":[{"name":"","type":"uint256","internalType":"uint256"}],"stateMutability":"view"},{"type":"function","name":"RESERVATION_LOCKUP_PERIOD","inputs":[],"outputs":[{"name":"","type":"uint256","internalType":"uint256"}],"stateMutability":"view"},{"type":"function","name":"SAMPLING_SIZE","inputs":[],"outputs":[{"name":"","type":"uint8","internalType":"uint8"}],"stateMutability":"view"},{"type":"function","name":"addBlock","inputs":[{"name":"blockCheckpointHeight","type":"uint256","internalType":"uint256"},{"name":"blockHeight","type":"uint256","internalType":"uint256"},{"name":"blockHash","type":"bytes32","internalType":"bytes32"}],"outputs":[],"stateMutability":"nonpayable"},{"type":"function","name":"currentHeight","inputs":[],"outputs":[{"name":"","type":"uint256","internalType":"uint256"}],"stateMutability":"view"},{"type":"function","name":"depositLiquidity","inputs":[{"name":"btcPayoutLockingScript","type":"bytes32","internalType":"bytes32"},{"name":"btcExchangeRate","type":"uint256","internalType":"uint256"},{"name":"vaultIndexToOverwrite","type":"int256","internalType":"int256"},{"name":"depositAmount","type":"uint256","internalType":"uint256"},{"name":"vaultIndexWithSameExchangeRate","type":"int256","internalType":"int256"}],"outputs":[],"stateMutability":"nonpayable"},{"type":"function","name":"depositVaults","inputs":[{"name":"","type":"uint256","internalType":"uint256"}],"outputs":[{"name":"initialBalance","type":"uint256","internalType":"uint256"},{"name":"unreservedBalance","type":"uint256","internalType":"uint256"},{"name":"btcExchangeRate","type":"uint256","internalType":"uint256"},{"name":"btcPayoutLockingScript","type":"bytes32","internalType":"bytes32"}],"stateMutability":"view"},{"type":"function","name":"emptyDepositVault","inputs":[{"name":"vaultIndex","type":"uint256","internalType":"uint256"}],"outputs":[],"stateMutability":"nonpayable"},{"type":"function","name":"getBlockHash","inputs":[{"name":"blockHeight","type":"uint256","internalType":"uint256"}],"outputs":[{"name":"","type":"bytes32","internalType":"bytes32"}],"stateMutability":"view"},{"type":"function","name":"getDepositVault","inputs":[{"name":"depositIndex","type":"uint256","internalType":"uint256"}],"outputs":[{"name":"","type":"tuple","internalType":"struct RiftExchange.DepositVault","components":[{"name":"initialBalance","type":"uint256","internalType":"uint256"},{"name":"unreservedBalance","type":"uint256","internalType":"uint256"},{"name":"btcExchangeRate","type":"uint256","internalType":"uint256"},{"name":"btcPayoutLockingScript","type":"bytes32","internalType":"bytes32"}]}],"stateMutability":"view"},{"type":"function","name":"getDepositVaultUnreservedBalance","inputs":[{"name":"depositIndex","type":"uint256","internalType":"uint256"}],"outputs":[{"name":"","type":"uint256","internalType":"uint256"}],"stateMutability":"view"},{"type":"function","name":"getDepositVaultsLength","inputs":[],"outputs":[{"name":"","type":"uint256","internalType":"uint256"}],"stateMutability":"view"},{"type":"function","name":"getReservation","inputs":[{"name":"reservationIndex","type":"uint256","internalType":"uint256"}],"outputs":[{"name":"","type":"tuple","internalType":"struct RiftExchange.SwapReservation","components":[{"name":"state","type":"uint8","internalType":"enum RiftExchange.ReservationState"},{"name":"ethPayoutAddress","type":"address","internalType":"address"},{"name":"btcSenderAddress","type":"string","internalType":"string"},{"name":"reservationTimestamp","type":"uint256","internalType":"uint256"},{"name":"confirmationBlockHeight","type":"uint256","internalType":"uint256"},{"name":"unlockTimestamp","type":"uint256","internalType":"uint256"},{"name":"nonce","type":"bytes32","internalType":"bytes32"},{"name":"totalSwapAmount","type":"uint256","internalType":"uint256"},{"name":"prepaidFeeAmount","type":"int256","internalType":"int256"},{"name":"vaultIndexes","type":"uint256[]","internalType":"uint256[]"},{"name":"amountsToReserve","type":"uint256[]","internalType":"uint256[]"}]}],"stateMutability":"view"},{"type":"function","name":"getReservationLength","inputs":[],"outputs":[{"name":"","type":"uint256","internalType":"uint256"}],"stateMutability":"view"},{"type":"function","name":"protocolFeeBP","inputs":[],"outputs":[{"name":"","type":"uint8","internalType":"uint8"}],"stateMutability":"view"},{"type":"function","name":"proverReward","inputs":[],"outputs":[{"name":"","type":"uint256","internalType":"uint256"}],"stateMutability":"view"},{"type":"function","name":"releaseLiquidity","inputs":[{"name":"swapReservationIndex","type":"uint256","internalType":"uint256"}],"outputs":[],"stateMutability":"nonpayable"},{"type":"function","name":"releaserReward","inputs":[],"outputs":[{"name":"","type":"uint256","internalType":"uint256"}],"stateMutability":"view"},{"type":"function","name":"reserveLiquidity","inputs":[{"name":"vaultIndexesToReserve","type":"uint256[]","internalType":"uint256[]"},{"name":"amountsToReserve","type":"uint256[]","internalType":"uint256[]"},{"name":"totalSwapAmount","type":"uint256","internalType":"uint256"},{"name":"ethPayoutAddress","type":"address","internalType":"address"},{"name":"btcSenderAddress","type":"string","internalType":"string"},{"name":"expiredSwapReservationIndexes","type":"uint256[]","internalType":"uint256[]"}],"outputs":[],"stateMutability":"nonpayable"},{"type":"function","name":"swapReservations","inputs":[{"name":"","type":"uint256","internalType":"uint256"}],"outputs":[{"name":"state","type":"uint8","internalType":"enum RiftExchange.ReservationState"},{"name":"ethPayoutAddress","type":"address","internalType":"address"},{"name":"btcSenderAddress","type":"string","internalType":"string"},{"name":"reservationTimestamp","type":"uint256","internalType":"uint256"},{"name":"confirmationBlockHeight","type":"uint256","internalType":"uint256"},{"name":"unlockTimestamp","type":"uint256","internalType":"uint256"},{"name":"nonce","type":"bytes32","internalType":"bytes32"},{"name":"totalSwapAmount","type":"uint256","internalType":"uint256"},{"name":"prepaidFeeAmount","type":"int256","internalType":"int256"}],"stateMutability":"view"},{"type":"function","name":"treasuryFee","inputs":[],"outputs":[{"name":"","type":"uint8","internalType":"uint8"}],"stateMutability":"view"},{"type":"function","name":"unlockLiquidity","inputs":[{"name":"swapReservationIndex","type":"uint256","internalType":"uint256"},{"name":"btcBlockHash","type":"bytes32","internalType":"bytes32"},{"name":"blockCheckpointHeight","type":"uint256","internalType":"uint256"},{"name":"confirmationBlockHash","type":"bytes32","internalType":"bytes32"},{"name":"confirmationBlockHeightDelta","type":"uint256","internalType":"uint256"},{"name":"proof","type":"bytes","internalType":"bytes"}],"outputs":[],"stateMutability":"nonpayable"},{"type":"function","name":"updateExchangeRate","inputs":[{"name":"vaultIndex","type":"uint256","internalType":"uint256"},{"name":"newBtcExchangeRate","type":"uint256","internalType":"uint256"},{"name":"expiredReservationIndexes","type":"uint256[]","internalType":"uint256[]"}],"outputs":[],"stateMutability":"nonpayable"},{"type":"function","name":"validateBlockExists","inputs":[{"name":"blockHeight","type":"uint256","internalType":"uint256"}],"outputs":[],"stateMutability":"view"},{"type":"function","name":"verifierContract","inputs":[],"outputs":[{"name":"","type":"address","internalType":"contract UltraVerifier"}],"stateMutability":"view"},{"type":"function","name":"withdrawLiquidity","inputs":[{"name":"vaultIndex","type":"uint256","internalType":"uint256"},{"name":"amountToWithdraw","type":"uint256","internalType":"uint256"},{"name":"expiredReservationIndexes","type":"uint256[]","internalType":"uint256[]"}],"outputs":[],"stateMutability":"nonpayable"},{"type":"error","name":"BlockDoesNotExist","inputs":[]},{"type":"error","name":"DepositTooHigh","inputs":[]},{"type":"error","name":"DepositTooLow","inputs":[]},{"type":"error","name":"InvaidSameExchangeRatevaultIndex","inputs":[]},{"type":"error","name":"InvalidCheckpoint","inputs":[]},{"type":"error","name":"InvalidOrder","inputs":[]},{"type":"error","name":"InvalidUpdateWithActiveReservations","inputs":[]},{"type":"error","name":"InvalidVaultIndex","inputs":[]},{"type":"error","name":"InvalidVaultUpdate","inputs":[]},{"type":"error","name":"NotEnoughLiquidity","inputs":[]},{"type":"error","name":"ReservationAmountTooLow","inputs":[]},{"type":"error","name":"ReservationNotExpired","inputs":[]},{"type":"error","name":"ReservationNotUnlocked","inputs":[]},{"type":"error","name":"StillInChallengePeriod","inputs":[]},{"type":"error","name":"WithdrawFailed","inputs":[]},{"type":"error","name":"WithdrawalAmountError","inputs":[]},{"type":"error","name":"exchangeRateZero","inputs":[]}],"bytecode":{"object":"0x6101006040526706f05b59d3b20000608052692a5a058fc295ed00000060a0526002805461ffff1916606417905566071afd498d000060035565b5e620f48000600455600880546001600160a01b03191673f39fd6e51aad88f6f4ce6ab8827279cfffb9226617905534801561007457600080fd5b50604051612509380380612509833981016040819052610093916100e4565b6001869055600095865260208690526040909520939093556001600160a01b0391821660e0521660c05260805260a05261013f565b80516001600160a01b03811681146100df57600080fd5b919050565b60008060008060008060c087890312156100fd57600080fd5b865160208801519096509450610115604088016100c8565b9350610123606088016100c8565b608088015160a090980151969995985093969395939492505050565b60805160a05160c05160e0516123676101a2600039600061042d0152600081816102050152818161080c0152818161093e0152818161143e01526114d5015260008181610474015261055801526000818161049b015261051701526123676000f3fe608060405234801561001057600080fd5b50600436106101fb5760003560e01c80639cc7eab91161011a578063cf695688116100ad578063e9c6c1761161007c578063e9c6c176146104bd578063ea6fe03e146104d0578063eb6c7522146104d8578063ed8b2b32146104e2578063ee82ac5e146104f557600080fd5b8063cf69568814610428578063d57763c31461044f578063dd5967c31461046f578063e1e158a51461049657600080fd5b8063c1ac1ffb116100e9578063c1ac1ffb146103ed578063c3a079ed14610400578063c5fba0b814610409578063cc32d1761461041657600080fd5b80639cc7eab91461039c5780639cdb8e5a146103a5578063ad062e55146103c0578063b68c3a01146103da57600080fd5b80636512d057116101925780637789190711610161578063778919071461036e5780637dce55501461038157806389a11f7a146103895780639a64279c1461039257600080fd5b80636512d057146103175780636b994abb1461032a5780636dcc17c81461035257806376898e821461035b57600080fd5b8063276d080e116101ce578063276d080e14610283578063490d4c5f146102c95780635f4d0610146102dc5780635f5d5b6a1461030f57600080fd5b806313f6658714610200578063163de0c5146102445780632143c3e91461025b57806323e9245c14610270575b600080fd5b6102277f000000000000000000000000000000000000000000000000000000000000000081565b6040516001600160a01b0390911681526020015b60405180910390f35b61024d60015481565b60405190815260200161023b565b61026e610269366004611b0f565b610515565b005b61026e61027e366004611c14565b610890565b610296610291366004611c64565b6109c1565b60405161023b91908151815260208083015190820152604080830151908201526060918201519181019190915260800190565b61026e6102d7366004611c64565b610a4a565b6102ef6102ea366004611c64565b610a87565b60408051948552602085019390935291830152606082015260800161023b565b61024d600281565b61024d610325366004611c64565b610ac1565b61033d610338366004611c64565b610aef565b60405161023b99989796959493929190611cfb565b61024d60035481565b61026e610369366004611dbd565b610bde565b61026e61037c366004611c64565b610cfd565b60075461024d565b61024d61546081565b61024d6203345081565b61024d60045481565b6103ad603281565b60405161ffff909116815260200161023b565b6103c8600a81565b60405160ff909116815260200161023b565b61026e6103e8366004611c14565b610ed4565b61026e6103fb366004611e80565b610f53565b61024d61025881565b6002546103c89060ff1681565b6002546103c890610100900460ff1681565b6102277f000000000000000000000000000000000000000000000000000000000000000081565b61046261045d366004611c64565b611560565b60405161023b9190611f88565b61024d7f000000000000000000000000000000000000000000000000000000000000000081565b61024d7f000000000000000000000000000000000000000000000000000000000000000081565b61026e6104cb366004612059565b6117c3565b60065461024d565b61024d620668a081565b61026e6104f0366004611c64565b611849565b61024d610503366004611c64565b60009081526020819052604090205490565b7f000000000000000000000000000000000000000000000000000000000000000082101561055657604051632b7786bd60e21b815260040160405180910390fd5b7f000000000000000000000000000000000000000000000000000000000000000082106105965760405163c066e1e960e01b815260040160405180910390fd5b836000036105b757604051635c4ad48d60e11b815260040160405180910390fd5b336000908152600560205260408120549003610605576040805160006020808301828152838501855283523382526005815292902081518051929391926106019284920190611aaf565b5050505b806000191461068257600081905060006007828154811061062857610628612085565b9060005260206000209060040201905085816002015403610662578381600101600082825461065791906120b1565b9091555061067b9050565b60405163927ce9e760e01b815260040160405180910390fd5b50506107c1565b82600019146106f1576000600784815481106106a0576106a0612085565b9060005260206000209060040201905080600101546000146106d55760405163721e09df60e01b815260040160405180910390fd5b82815560018101839055600281018590556003018590556107c1565b6040805160808101825283815260208101848152918101868152606082018881526007805460018101825560009190915292517fa66cc928b5edb82af9bd49922954155ab7b0942694bea4ce44661d9a8736c68860049094029384015592517fa66cc928b5edb82af9bd49922954155ab7b0942694bea4ce44661d9a8736c689830155517fa66cc928b5edb82af9bd49922954155ab7b0942694bea4ce44661d9a8736c68a82015590517fa66cc928b5edb82af9bd49922954155ab7b0942694bea4ce44661d9a8736c68b909101555b3360009081526005602052604090206007546107df906001906120ca565b815460018101835560009283526020909220909101556040516323b872dd60e01b81526001600160a01b037f000000000000000000000000000000000000000000000000000000000000000016906323b872dd90610845903390309087906004016120dd565b6020604051808303816000875af1158015610864573d6000803e3d6000fd5b505050506040513d601f19601f820116820180604052508101906108889190612101565b505050505050565b60075483106108b25760405163721e09df60e01b815260040160405180910390fd5b6000600784815481106108c7576108c7612085565b906000526020600020906004020190506108e082611878565b8215806108f05750806001015483115b1561090e5760405163b4e3d41360e01b815260040160405180910390fd5b8281600101600082825461092291906120ca565b90915550506040516323b872dd60e01b81526001600160a01b037f000000000000000000000000000000000000000000000000000000000000000016906323b872dd90610977903090339088906004016120dd565b6020604051808303816000875af1158015610996573d6000803e3d6000fd5b505050506040513d601f19601f820116820180604052508101906109ba9190612101565b5050505050565b6109ef6040518060800160405280600081526020016000815260200160008152602001600080191681525090565b60078281548110610a0257610a02612085565b90600052602060002090600402016040518060800160405290816000820154815260200160018201548152602001600282015481526020016003820154815250509050919050565b600060078281548110610a5f57610a5f612085565b6000918252602082206004909102018181556001810182905560028101829055600301555050565b60078181548110610a9757600080fd5b60009182526020909120600490910201805460018201546002830154600390930154919350919084565b600060078281548110610ad657610ad6612085565b9060005260206000209060040201600101549050919050565b60068181548110610aff57600080fd5b60009182526020909120600a90910201805460018201805460ff831694506101009092046001600160a01b03169291610b3790612123565b80601f0160208091040260200160405190810160405280929190818152602001828054610b6390612123565b8015610bb05780601f10610b8557610100808354040283529160200191610bb0565b820191906000526020600020905b815481529060010190602001808311610b9357829003601f168201915b5050505050908060020154908060030154908060040154908060050154908060060154908060070154905089565b600060068781548110610bf357610bf3612085565b90600052602060002090600a02019050610c0e8584866117c3565b6003818101869055815460ff19161781556000610c2e48620668a061215d565b600354610c3b91906120b1565b604051909150600090339083908381818185875af1925050503d8060008114610c80576040519150601f19603f3d011682016040523d82523d6000602084013e610c85565b606091505b5050905080610ca757604051631d42c86760e21b815260040160405180910390fd5b81836007016000828254610cbb9190612174565b9091555050600783015460001315610cf2578260070154836006016000828254610ce591906120b1565b9091555050600060078401555b505050505050505050565b600060068281548110610d1257610d12612085565b60009182526020909120600a9091020190506003815460ff166005811115610d3c57610d3c611c7d565b14610d5a5760405163b38c767b60e01b815260040160405180910390fd5b610258816004015442610d6d91906120ca565b1015610d8c57604051632d5c37f560e21b815260040160405180910390fd5b6000610d9b486203345061215d565b600454610da891906120b1565b604051909150600090339083908381818185875af1925050503d8060008114610ded576040519150601f19603f3d011682016040523d82523d6000602084013e610df2565b606091505b5050905080610e1457604051631d42c86760e21b815260040160405180910390fd5b81836007016000828254610e289190612174565b9091555050600783015460001315610e58578260070154836006016000828254610e5291906120b1565b90915550505b8254600684015460405160009261010090046001600160a01b031691908381818185875af1925050503d8060008114610ead576040519150601f19603f3d011682016040523d82523d6000602084013e610eb2565b606091505b50509050806109ba57604051631d42c86760e21b815260040160405180910390fd5b81600003610ef557604051636e5a187760e11b815260040160405180910390fd5b600060078481548110610f0a57610f0a612085565b90600052602060002090600402019050610f2382611878565b8054600182015414610f48576040516391bc6cc360e01b815260040160405180910390fd5b600201919091555050565b6000805b8651811015610f8f57868181518110610f7257610f72612085565b602002602001015182610f8591906120b1565b9150600101610f57565b50848114610fb05760405163af61069360e01b815260040160405180910390fd5b600254600090610fc6906127109060ff1661219b565b610fd49061ffff168761215d565b905060006002610fe748620668a061215d565b610ff1919061215d565b600354610ffe91906120b1565b905060006002611011486203345061215d565b61101b919061215d565b60045461102891906120b1565b905060008161103785856120b1565b61104191906120b1565b905080891015611064576040516359cf7a8d60e11b815260040160405180910390fd5b61106d866119cf565b61107686611878565b60005b8b5181101561110d5760008b828151811061109657611096612085565b60200260200101519050600060078e84815181106110b6576110b6612085565b6020026020010151815481106110ce576110ce612085565b90600052602060002090600402019050806001015482111561110357604051634323a55560e01b815260040160405180910390fd5b5050600101611079565b5085511561121657600060068760008151811061112c5761112c612085565b60200260200101518154811061114457611144612085565b60009182526020909120600a90910201805460016001600160a81b03199091166101006001600160a01b038d1602178117825590915081016111868982612219565b5042600282015560006003820181905560048201556111a583856120b1565b6007820155600681018a90556040516111c8908a908a90429046906020016122d8565b60408051601f19818403018152919052805160209182012060058301558c516111f9916008840191908f0190611aaf565b508a5161120f90600983019060208e0190611aaf565b50506113a1565b60408051610160810190915260069080600181526020018a6001600160a01b0316815260200189815260200142815260200160008152602001600081526020018a8a424660405160200161126d94939291906122d8565b6040516020818303038152906040528051906020012081526020018b8152602001848661129a91906120b1565b815260208082018f905260409091018d90528254600181810185556000948552919093208251600a909402018054929390929091839160ff1916908360058111156112e7576112e7611c7d565b0217905550602082015181546001600160a01b0390911661010002610100600160a81b0319909116178155604082015160018201906113269082612219565b50606082015160028201556080820151600382015560a0820151600482015560c0820151600582015560e0820151600682015561010082015160078201556101208201518051611380916008840191602090910190611aaf565b50610140820151805161139d916009840191602090910190611aaf565b5050505b60005b8b5181101561142657600060078d83815181106113c3576113c3612085565b6020026020010151815481106113db576113db612085565b906000526020600020906004020190508b82815181106113fd576113fd612085565b602002602001015181600101600082825461141891906120ca565b9091555050506001016113a4565b506040516323b872dd60e01b81526001600160a01b037f000000000000000000000000000000000000000000000000000000000000000016906323b872dd90611477903390309086906004016120dd565b6020604051808303816000875af1158015611496573d6000803e3d6000fd5b505050506040513d601f19601f820116820180604052508101906114ba9190612101565b506008546040516323b872dd60e01b81526001600160a01b037f00000000000000000000000000000000000000000000000000000000000000008116926323b872dd9261150f923092169089906004016120dd565b6020604051808303816000875af115801561152e573d6000803e3d6000fd5b505050506040513d601f19601f820116820180604052508101906115529190612101565b505050505050505050505050565b6115ca604080516101608101909152806000815260200160006001600160a01b031681526020016060815260200160008152602001600081526020016000815260200160008019168152602001600081526020016000815260200160608152602001606081525090565b600682815481106115dd576115dd612085565b60009182526020909120604080516101608101909152600a909202018054829060ff16600581111561161157611611611c7d565b600581111561162257611622611c7d565b8152815461010090046001600160a01b0316602082015260018201805460409092019161164e90612123565b80601f016020809104026020016040519081016040528092919081815260200182805461167a90612123565b80156116c75780601f1061169c576101008083540402835291602001916116c7565b820191906000526020600020905b8154815290600101906020018083116116aa57829003601f168201915b505050505081526020016002820154815260200160038201548152602001600482015481526020016005820154815260200160068201548152602001600782015481526020016008820180548060200260200160405190810160405280929190818152602001828054801561175b57602002820191906000526020600020905b815481526020019060010190808311611747575b50505050508152602001600982018054806020026020016040519081016040528092919081815260200182805480156117b357602002820191906000526020600020905b81548152602001906001019080831161179f575b5050505050815250509050919050565b600154808411156117e757604051630f0f97d160e01b815260040160405180910390fd5b80841080156117f65750808310155b1561183357835b818110156118315760008181526020819052604090205415611829576000818152602081905260408120555b6001016117fd565b505b5060008281526020819052604090205560015550565b6000818152602081905260409020546118755760405163fa4a5e4560e01b815260040160405180910390fd5b50565b60005b81518110156119cb5761188d826119cf565b6118e56040518060400160405280601e81526020017f657870697265645265736572766174696f6e496e64657865735b695d3a2000008152508383815181106118d8576118d8612085565b6020026020010151611a4e565b600060068383815181106118fb576118fb612085565b60200260200101518154811061191357611913612085565b600091825260208220600a90910201805460ff1916600517815591505b60088201548110156119c1576000600783600801838154811061195557611955612085565b90600052602060002001548154811061197057611970612085565b9060005260206000209060040201905082600901828154811061199557611995612085565b90600052602060002001548160010160008282546119b391906120b1565b909155505050600101611930565b505060010161187b565b5050565b60005b81518110156119cb5761546060068383815181106119f2576119f2612085565b602002602001015181548110611a0a57611a0a612085565b90600052602060002090600a02016002015442611a2791906120ca565b1015611a46576040516326349d6b60e01b815260040160405180910390fd5b6001016119d2565b6119cb8282604051602401611a6492919061230f565b60408051601f198184030181529190526020810180516001600160e01b03166309710a9d60e41b17905280516a636f6e736f6c652e6c6f67602083016000808483855afa5050505050565b828054828255906000526020600020908101928215611aea579160200282015b82811115611aea578251825591602001919060010190611acf565b50611af6929150611afa565b5090565b5b80821115611af65760008155600101611afb565b600080600080600060a08688031215611b2757600080fd5b505083359560208501359550604085013594606081013594506080013592509050565b634e487b7160e01b600052604160045260246000fd5b604051601f8201601f1916810167ffffffffffffffff81118282101715611b8957611b89611b4a565b604052919050565b600082601f830112611ba257600080fd5b813567ffffffffffffffff811115611bbc57611bbc611b4a565b8060051b611bcc60208201611b60565b91825260208185018101929081019086841115611be857600080fd5b6020860192505b83831015611c0a578235825260209283019290910190611bef565b9695505050505050565b600080600060608486031215611c2957600080fd5b8335925060208401359150604084013567ffffffffffffffff811115611c4e57600080fd5b611c5a86828701611b91565b9150509250925092565b600060208284031215611c7657600080fd5b5035919050565b634e487b7160e01b600052602160045260246000fd5b60068110611cb157634e487b7160e01b600052602160045260246000fd5b9052565b6000815180845260005b81811015611cdb57602081850181015186830182015201611cbf565b506000602082860101526020601f19601f83011685010191505092915050565b611d05818b611c93565b6001600160a01b038916602082015261012060408201819052600090611d2d9083018a611cb5565b606083019890985250608081019590955260a085019390935260c084019190915260e0830152610100909101529392505050565b60008067ffffffffffffffff841115611d7c57611d7c611b4a565b50601f8301601f1916602001611d9181611b60565b915050828152838383011115611da657600080fd5b828260208301376000602084830101529392505050565b60008060008060008060c08789031215611dd657600080fd5b863595506020870135945060408701359350606087013592506080870135915060a087013567ffffffffffffffff811115611e1057600080fd5b8701601f81018913611e2157600080fd5b611e3089823560208401611d61565b9150509295509295509295565b80356001600160a01b0381168114611e5457600080fd5b919050565b600082601f830112611e6a57600080fd5b611e7983833560208501611d61565b9392505050565b60008060008060008060c08789031215611e9957600080fd5b863567ffffffffffffffff811115611eb057600080fd5b611ebc89828a01611b91565b965050602087013567ffffffffffffffff811115611ed957600080fd5b611ee589828a01611b91565b95505060408701359350611efb60608801611e3d565b9250608087013567ffffffffffffffff811115611f1757600080fd5b611f2389828a01611e59565b92505060a087013567ffffffffffffffff811115611f4057600080fd5b611e3089828a01611b91565b600081518084526020840193506020830160005b82811015611f7e578151865260209586019590910190600101611f60565b5093949350505050565b60208152611f9a602082018351611c93565b60006020830151611fb660408401826001600160a01b03169052565b5060408301516101606060840152611fd2610180840182611cb5565b905060608401516080840152608084015160a084015260a084015160c084015260c084015160e084015260e0840151610100840152610100840151610120840152610120840151601f19848303016101408501526120308282611f4c565b915050610140840151601f19848303016101608501526120508282611f4c565b95945050505050565b60008060006060848603121561206e57600080fd5b505081359360208301359350604090920135919050565b634e487b7160e01b600052603260045260246000fd5b634e487b7160e01b600052601160045260246000fd5b808201808211156120c4576120c461209b565b92915050565b818103818111156120c4576120c461209b565b6001600160a01b039384168152919092166020820152604081019190915260600190565b60006020828403121561211357600080fd5b81518015158114611e7957600080fd5b600181811c9082168061213757607f821691505b60208210810361215757634e487b7160e01b600052602260045260246000fd5b50919050565b80820281158282048414176120c4576120c461209b565b81810360008312801583831316838312821617156121945761219461209b565b5092915050565b600061ffff8316806121bd57634e487b7160e01b600052601260045260246000fd5b8061ffff84160491505092915050565b601f82111561221457806000526020600020601f840160051c810160208510156121f45750805b601f840160051c820191505b818110156109ba5760008155600101612200565b505050565b815167ffffffffffffffff81111561223357612233611b4a565b612247816122418454612123565b846121cd565b6020601f82116001811461227b57600083156122635750848201515b600019600385901b1c1916600184901b1784556109ba565b600084815260208120601f198516915b828110156122ab578785015182556020948501946001909201910161228b565b50848210156122c95786840151600019600387901b60f8161c191681555b50505050600190811b01905550565b6001600160a01b03851681526080602082018190526000906122fc90830186611cb5565b6040830194909452506060015292915050565b6040815260006123226040830185611cb5565b9050826020830152939250505056fea26469706673582212207001175deb35db6beaaf2c9c212e8784b47ac52898b6b165599086a5d5e472fa64736f6c634300081a0033","linkReferences":{}},"methodIdentifiers":{"CHALLENGE_PERIOD()":"c3a079ed","DEPOSIT_TOKEN()":"13f66587","MAX_DEPOSIT()":"dd5967c3","MAX_DEPOSIT_OUTPUTS()":"9cdb8e5a","MIN_DEPOSIT()":"e1e158a5","MIN_ORDER_GAS_MULTIPLIER()":"5f5d5b6a","PROOF_GAS_COST()":"eb6c7522","RELEASE_GAS_COST()":"9a64279c","RESERVATION_LOCKUP_PERIOD()":"89a11f7a","SAMPLING_SIZE()":"ad062e55","addBlock(uint256,uint256,bytes32)":"e9c6c176","currentHeight()":"163de0c5","depositLiquidity(bytes32,uint256,int256,uint256,int256)":"2143c3e9","depositVaults(uint256)":"5f4d0610","emptyDepositVault(uint256)":"490d4c5f","getBlockHash(uint256)":"ee82ac5e","getDepositVault(uint256)":"276d080e","getDepositVaultUnreservedBalance(uint256)":"6512d057","getDepositVaultsLength()":"7dce5550","getReservation(uint256)":"d57763c3","getReservationLength()":"ea6fe03e","protocolFeeBP()":"c5fba0b8","proverReward()":"6dcc17c8","releaseLiquidity(uint256)":"77891907","releaserReward()":"9cc7eab9","reserveLiquidity(uint256[],uint256[],uint256,address,string,uint256[])":"c1ac1ffb","swapReservations(uint256)":"6b994abb","treasuryFee()":"cc32d176","unlockLiquidity(uint256,bytes32,uint256,bytes32,uint256,bytes)":"76898e82","updateExchangeRate(uint256,uint256,uint256[])":"b68c3a01","validateBlockExists(uint256)":"ed8b2b32","verifierContract()":"cf695688","withdrawLiquidity(uint256,uint256,uint256[])":"23e9245c"},"storageLayout":{"storage":[{"astId":47154,"contract":"src/RiftExchange.sol:RiftExchange","label":"blockchain","offset":0,"slot":"0","type":"t_mapping(t_uint256,t_bytes32)"},{"astId":47156,"contract":"src/RiftExchange.sol:RiftExchange","label":"currentHeight","offset":0,"slot":"1","type":"t_uint256"},{"astId":47751,"contract":"src/RiftExchange.sol:RiftExchange","label":"protocolFeeBP","offset":0,"slot":"2","type":"t_uint8"},{"astId":47754,"contract":"src/RiftExchange.sol:RiftExchange","label":"treasuryFee","offset":1,"slot":"2","type":"t_uint8"},{"astId":47757,"contract":"src/RiftExchange.sol:RiftExchange","label":"proverReward","offset":0,"slot":"3","type":"t_uint256"},{"astId":47760,"contract":"src/RiftExchange.sol:RiftExchange","label":"releaserReward","offset":0,"slot":"4","type":"t_uint256"},{"astId":47819,"contract":"src/RiftExchange.sol:RiftExchange","label":"liquidityProviders","offset":0,"slot":"5","type":"t_mapping(t_address,t_struct(LiquidityProvider)47769_storage)"},{"astId":47823,"contract":"src/RiftExchange.sol:RiftExchange","label":"swapReservations","offset":0,"slot":"6","type":"t_array(t_struct(SwapReservation)47814_storage)dyn_storage"},{"astId":47827,"contract":"src/RiftExchange.sol:RiftExchange","label":"depositVaults","offset":0,"slot":"7","type":"t_array(t_struct(DepositVault)47778_storage)dyn_storage"},{"astId":47836,"contract":"src/RiftExchange.sol:RiftExchange","label":"protocolAddress","offset":0,"slot":"8","type":"t_address_payable"}],"types":{"t_address":{"encoding":"inplace","label":"address","numberOfBytes":"20"},"t_address_payable":{"encoding":"inplace","label":"address payable","numberOfBytes":"20"},"t_array(t_struct(DepositVault)47778_storage)dyn_storage":{"encoding":"dynamic_array","label":"struct RiftExchange.DepositVault[]","numberOfBytes":"32","base":"t_struct(DepositVault)47778_storage"},"t_array(t_struct(SwapReservation)47814_storage)dyn_storage":{"encoding":"dynamic_array","label":"struct RiftExchange.SwapReservation[]","numberOfBytes":"32","base":"t_struct(SwapReservation)47814_storage"},"t_array(t_uint256)dyn_storage":{"encoding":"dynamic_array","label":"uint256[]","numberOfBytes":"32","base":"t_uint256"},"t_bytes32":{"encoding":"inplace","label":"bytes32","numberOfBytes":"32"},"t_enum(ReservationState)47785":{"encoding":"inplace","label":"enum RiftExchange.ReservationState","numberOfBytes":"1"},"t_int256":{"encoding":"inplace","label":"int256","numberOfBytes":"32"},"t_mapping(t_address,t_struct(LiquidityProvider)47769_storage)":{"encoding":"mapping","key":"t_address","label":"mapping(address => struct RiftExchange.LiquidityProvider)","numberOfBytes":"32","value":"t_struct(LiquidityProvider)47769_storage"},"t_mapping(t_uint256,t_bytes32)":{"encoding":"mapping","key":"t_uint256","label":"mapping(uint256 => bytes32)","numberOfBytes":"32","value":"t_bytes32"},"t_string_storage":{"encoding":"bytes","label":"string","numberOfBytes":"32"},"t_struct(DepositVault)47778_storage":{"encoding":"inplace","label":"struct RiftExchange.DepositVault","numberOfBytes":"128","members":[{"astId":47771,"contract":"src/RiftExchange.sol:RiftExchange","label":"initialBalance","offset":0,"slot":"0","type":"t_uint256"},{"astId":47773,"contract":"src/RiftExchange.sol:RiftExchange","label":"unreservedBalance","offset":0,"slot":"1","type":"t_uint256"},{"astId":47775,"contract":"src/RiftExchange.sol:RiftExchange","label":"btcExchangeRate","offset":0,"slot":"2","type":"t_uint256"},{"astId":47777,"contract":"src/RiftExchange.sol:RiftExchange","label":"btcPayoutLockingScript","offset":0,"slot":"3","type":"t_bytes32"}]},"t_struct(LiquidityProvider)47769_storage":{"encoding":"inplace","label":"struct RiftExchange.LiquidityProvider","numberOfBytes":"32","members":[{"astId":47768,"contract":"src/RiftExchange.sol:RiftExchange","label":"depositVaultIndexes","offset":0,"slot":"0","type":"t_array(t_uint256)dyn_storage"}]},"t_struct(SwapReservation)47814_storage":{"encoding":"inplace","label":"struct RiftExchange.SwapReservation","numberOfBytes":"320","members":[{"astId":47791,"contract":"src/RiftExchange.sol:RiftExchange","label":"state","offset":0,"slot":"0","type":"t_enum(ReservationState)47785"},{"astId":47793,"contract":"src/RiftExchange.sol:RiftExchange","label":"ethPayoutAddress","offset":1,"slot":"0","type":"t_address"},{"astId":47795,"contract":"src/RiftExchange.sol:RiftExchange","label":"btcSenderAddress","offset":0,"slot":"1","type":"t_string_storage"},{"astId":47797,"contract":"src/RiftExchange.sol:RiftExchange","label":"reservationTimestamp","offset":0,"slot":"2","type":"t_uint256"},{"astId":47799,"contract":"src/RiftExchange.sol:RiftExchange","label":"confirmationBlockHeight","offset":0,"slot":"3","type":"t_uint256"},{"astId":47801,"contract":"src/RiftExchange.sol:RiftExchange","label":"unlockTimestamp","offset":0,"slot":"4","type":"t_uint256"},{"astId":47803,"contract":"src/RiftExchange.sol:RiftExchange","label":"nonce","offset":0,"slot":"5","type":"t_bytes32"},{"astId":47805,"contract":"src/RiftExchange.sol:RiftExchange","label":"totalSwapAmount","offset":0,"slot":"6","type":"t_uint256"},{"astId":47807,"contract":"src/RiftExchange.sol:RiftExchange","label":"prepaidFeeAmount","offset":0,"slot":"7","type":"t_int256"},{"astId":47810,"contract":"src/RiftExchange.sol:RiftExchange","label":"vaultIndexes","offset":0,"slot":"8","type":"t_array(t_uint256)dyn_storage"},{"astId":47813,"contract":"src/RiftExchange.sol:RiftExchange","label":"amountsToReserve","offset":0,"slot":"9","type":"t_array(t_uint256)dyn_storage"}]},"t_uint256":{"encoding":"inplace","label":"uint256","numberOfBytes":"32"},"t_uint8":{"encoding":"inplace","label":"uint8","numberOfBytes":"1"}}},"id":28}