{"abi":[{"type":"constructor","inputs":[{"name":"initialCheckpointHeight","type":"uint256","internalType":"uint256"},{"name":"initialBlockHash","type":"bytes32","internalType":"bytes32"},{"name":"verifierContractAddress","type":"address","internalType":"address"},{"name":"depositTokenAddress","type":"address","internalType":"address"},{"name":"minDeposit","type":"uint256","internalType":"uint256"},{"name":"maxDeposit","type":"uint256","internalType":"uint256"}],"stateMutability":"nonpayable"},{"type":"function","name":"CHALLENGE_PERIOD","inputs":[],"outputs":[{"name":"","type":"uint256","internalType":"uint256"}],"stateMutability":"view"},{"type":"function","name":"DEPOSIT_TOKEN","inputs":[],"outputs":[{"name":"","type":"address","internalType":"contract IERC20"}],"stateMutability":"view"},{"type":"function","name":"MAX_DEPOSIT","inputs":[],"outputs":[{"name":"","type":"uint256","internalType":"uint256"}],"stateMutability":"view"},{"type":"function","name":"MAX_DEPOSIT_OUTPUTS","inputs":[],"outputs":[{"name":"","type":"uint16","internalType":"uint16"}],"stateMutability":"view"},{"type":"function","name":"MIN_DEPOSIT","inputs":[],"outputs":[{"name":"","type":"uint256","internalType":"uint256"}],"stateMutability":"view"},{"type":"function","name":"MIN_ORDER_GAS_MULTIPLIER","inputs":[],"outputs":[{"name":"","type":"uint256","internalType":"uint256"}],"stateMutability":"view"},{"type":"function","name":"PROOF_GAS_COST","inputs":[],"outputs":[{"name":"","type":"uint256","internalType":"uint256"}],"stateMutability":"view"},{"type":"function","name":"RELEASE_GAS_COST","inputs":[],"outputs":[{"name":"","type":"uint256","internalType":"uint256"}],"stateMutability":"view"},{"type":"function","name":"RESERVATION_LOCKUP_PERIOD","inputs":[],"outputs":[{"name":"","type":"uint256","internalType":"uint256"}],"stateMutability":"view"},{"type":"function","name":"SAMPLING_SIZE","inputs":[],"outputs":[{"name":"","type":"uint8","internalType":"uint8"}],"stateMutability":"view"},{"type":"function","name":"addBlock","inputs":[{"name":"blockCheckpointHeight","type":"uint256","internalType":"uint256"},{"name":"blockHeight","type":"uint256","internalType":"uint256"},{"name":"blockHash","type":"bytes32","internalType":"bytes32"}],"outputs":[],"stateMutability":"nonpayable"},{"type":"function","name":"currentHeight","inputs":[],"outputs":[{"name":"","type":"uint256","internalType":"uint256"}],"stateMutability":"view"},{"type":"function","name":"depositLiquidity","inputs":[{"name":"btcPayoutLockingScript","type":"bytes32","internalType":"bytes32"},{"name":"btcExchangeRate","type":"uint256","internalType":"uint256"},{"name":"vaultIndexToOverwrite","type":"int256","internalType":"int256"},{"name":"depositAmount","type":"uint256","internalType":"uint256"},{"name":"vaultIndexWithSameExchangeRate","type":"int256","internalType":"int256"}],"outputs":[],"stateMutability":"nonpayable"},{"type":"function","name":"depositVaults","inputs":[{"name":"","type":"uint256","internalType":"uint256"}],"outputs":[{"name":"initialBalance","type":"uint256","internalType":"uint256"},{"name":"unreservedBalance","type":"uint256","internalType":"uint256"},{"name":"btcExchangeRate","type":"uint256","internalType":"uint256"},{"name":"btcPayoutLockingScript","type":"bytes32","internalType":"bytes32"}],"stateMutability":"view"},{"type":"function","name":"emptyDepositVault","inputs":[{"name":"vaultIndex","type":"uint256","internalType":"uint256"}],"outputs":[],"stateMutability":"nonpayable"},{"type":"function","name":"getBlockHash","inputs":[{"name":"blockHeight","type":"uint256","internalType":"uint256"}],"outputs":[{"name":"","type":"bytes32","internalType":"bytes32"}],"stateMutability":"view"},{"type":"function","name":"getDepositVault","inputs":[{"name":"depositIndex","type":"uint256","internalType":"uint256"}],"outputs":[{"name":"","type":"tuple","internalType":"struct RiftExchange.DepositVault","components":[{"name":"initialBalance","type":"uint256","internalType":"uint256"},{"name":"unreservedBalance","type":"uint256","internalType":"uint256"},{"name":"btcExchangeRate","type":"uint256","internalType":"uint256"},{"name":"btcPayoutLockingScript","type":"bytes32","internalType":"bytes32"}]}],"stateMutability":"view"},{"type":"function","name":"getDepositVaultUnreservedBalance","inputs":[{"name":"depositIndex","type":"uint256","internalType":"uint256"}],"outputs":[{"name":"","type":"uint256","internalType":"uint256"}],"stateMutability":"view"},{"type":"function","name":"getDepositVaultsLength","inputs":[],"outputs":[{"name":"","type":"uint256","internalType":"uint256"}],"stateMutability":"view"},{"type":"function","name":"getReservation","inputs":[{"name":"reservationIndex","type":"uint256","internalType":"uint256"}],"outputs":[{"name":"","type":"tuple","internalType":"struct RiftExchange.SwapReservation","components":[{"name":"state","type":"uint8","internalType":"enum RiftExchange.ReservationState"},{"name":"ethPayoutAddress","type":"address","internalType":"address"},{"name":"btcSenderAddress","type":"string","internalType":"string"},{"name":"reservationTimestamp","type":"uint256","internalType":"uint256"},{"name":"confirmationBlockHeight","type":"uint256","internalType":"uint256"},{"name":"unlockTimestamp","type":"uint256","internalType":"uint256"},{"name":"nonce","type":"bytes32","internalType":"bytes32"},{"name":"totalSwapAmount","type":"uint256","internalType":"uint256"},{"name":"prepaidFeeAmount","type":"int256","internalType":"int256"},{"name":"vaultIndexes","type":"uint256[]","internalType":"uint256[]"},{"name":"amountsToReserve","type":"uint256[]","internalType":"uint256[]"}]}],"stateMutability":"view"},{"type":"function","name":"getReservationLength","inputs":[],"outputs":[{"name":"","type":"uint256","internalType":"uint256"}],"stateMutability":"view"},{"type":"function","name":"protocolFeeBP","inputs":[],"outputs":[{"name":"","type":"uint8","internalType":"uint8"}],"stateMutability":"view"},{"type":"function","name":"proverReward","inputs":[],"outputs":[{"name":"","type":"uint256","internalType":"uint256"}],"stateMutability":"view"},{"type":"function","name":"releaseLiquidity","inputs":[{"name":"swapReservationIndex","type":"uint256","internalType":"uint256"}],"outputs":[],"stateMutability":"nonpayable"},{"type":"function","name":"releaserReward","inputs":[],"outputs":[{"name":"","type":"uint256","internalType":"uint256"}],"stateMutability":"view"},{"type":"function","name":"reserveLiquidity","inputs":[{"name":"vaultIndexesToReserve","type":"uint256[]","internalType":"uint256[]"},{"name":"amountsToReserve","type":"uint256[]","internalType":"uint256[]"},{"name":"totalSwapAmount","type":"uint256","internalType":"uint256"},{"name":"ethPayoutAddress","type":"address","internalType":"address"},{"name":"btcSenderAddress","type":"string","internalType":"string"},{"name":"expiredSwapReservationIndexes","type":"uint256[]","internalType":"uint256[]"}],"outputs":[],"stateMutability":"nonpayable"},{"type":"function","name":"swapReservations","inputs":[{"name":"","type":"uint256","internalType":"uint256"}],"outputs":[{"name":"state","type":"uint8","internalType":"enum RiftExchange.ReservationState"},{"name":"ethPayoutAddress","type":"address","internalType":"address"},{"name":"btcSenderAddress","type":"string","internalType":"string"},{"name":"reservationTimestamp","type":"uint256","internalType":"uint256"},{"name":"confirmationBlockHeight","type":"uint256","internalType":"uint256"},{"name":"unlockTimestamp","type":"uint256","internalType":"uint256"},{"name":"nonce","type":"bytes32","internalType":"bytes32"},{"name":"totalSwapAmount","type":"uint256","internalType":"uint256"},{"name":"prepaidFeeAmount","type":"int256","internalType":"int256"}],"stateMutability":"view"},{"type":"function","name":"treasuryFee","inputs":[],"outputs":[{"name":"","type":"uint8","internalType":"uint8"}],"stateMutability":"view"},{"type":"function","name":"unlockLiquidity","inputs":[{"name":"swapReservationIndex","type":"uint256","internalType":"uint256"},{"name":"btcBlockHash","type":"bytes32","internalType":"bytes32"},{"name":"blockCheckpointHeight","type":"uint256","internalType":"uint256"},{"name":"confirmationBlockHash","type":"bytes32","internalType":"bytes32"},{"name":"confirmationBlockHeightDelta","type":"uint256","internalType":"uint256"},{"name":"proof","type":"bytes","internalType":"bytes"}],"outputs":[],"stateMutability":"nonpayable"},{"type":"function","name":"updateExchangeRate","inputs":[{"name":"globalVaultIndex","type":"uint256","internalType":"uint256"},{"name":"localVaultIndex","type":"uint256","internalType":"uint256"},{"name":"newBtcExchangeRate","type":"uint256","internalType":"uint256"},{"name":"expiredReservationIndexes","type":"uint256[]","internalType":"uint256[]"}],"outputs":[],"stateMutability":"nonpayable"},{"type":"function","name":"validateBlockExists","inputs":[{"name":"blockHeight","type":"uint256","internalType":"uint256"}],"outputs":[],"stateMutability":"view"},{"type":"function","name":"verifierContract","inputs":[],"outputs":[{"name":"","type":"address","internalType":"contract UltraVerifier"}],"stateMutability":"view"},{"type":"function","name":"withdrawLiquidity","inputs":[{"name":"globalVaultIndex","type":"uint256","internalType":"uint256"},{"name":"localVaultIndex","type":"uint256","internalType":"uint256"},{"name":"amountToWithdraw","type":"uint256","internalType":"uint256"},{"name":"expiredReservationIndexes","type":"uint256[]","internalType":"uint256[]"}],"outputs":[],"stateMutability":"nonpayable"},{"type":"error","name":"BlockDoesNotExist","inputs":[]},{"type":"error","name":"DepositTooHigh","inputs":[]},{"type":"error","name":"DepositTooLow","inputs":[]},{"type":"error","name":"InvaidSameExchangeRatevaultIndex","inputs":[]},{"type":"error","name":"InvalidCheckpoint","inputs":[]},{"type":"error","name":"InvalidOrder","inputs":[]},{"type":"error","name":"InvalidUpdateWithActiveReservations","inputs":[]},{"type":"error","name":"InvalidVaultIndex","inputs":[]},{"type":"error","name":"InvalidVaultUpdate","inputs":[]},{"type":"error","name":"NotEnoughLiquidity","inputs":[]},{"type":"error","name":"NotVaultOwner","inputs":[]},{"type":"error","name":"ReservationAmountTooLow","inputs":[]},{"type":"error","name":"ReservationNotExpired","inputs":[]},{"type":"error","name":"ReservationNotUnlocked","inputs":[]},{"type":"error","name":"StillInChallengePeriod","inputs":[]},{"type":"error","name":"WithdrawFailed","inputs":[]},{"type":"error","name":"WithdrawalAmountError","inputs":[]},{"type":"error","name":"exchangeRateZero","inputs":[]}],"bytecode":{"object":"0x6101006040526706f05b59d3b20000608052692a5a058fc295ed00000060a0526002805461ffff1916606417905566071afd498d000060035565b5e620f48000600455600880546001600160a01b03191673f39fd6e51aad88f6f4ce6ab8827279cfffb9226617905534801561007457600080fd5b506040516127bb3803806127bb833981016040819052610093916100e4565b6001869055600095865260208690526040909520939093556001600160a01b0391821660e0521660c05260805260a05261013f565b80516001600160a01b03811681146100df57600080fd5b919050565b60008060008060008060c087890312156100fd57600080fd5b865160208801519096509450610115604088016100c8565b9350610123606088016100c8565b608088015160a090980151969995985093969395939492505050565b60805160a05160c05160e0516126126101a9600039600061040701526000818161020501528181610817015281816112b10152818161135601528181611a160152611aaa01526000818161044e0152610558015260008181610488015261051701526126126000f3fe608060405234801561001057600080fd5b50600436106101fb5760003560e01c80639cdb8e5a1161011a578063dd5967c3116100ad578063ea6fe03e1161007c578063ea6fe03e146104bd578063eb6c7522146104c5578063ed8b2b32146104cf578063ee82ac5e146104e2578063f53638001461050257600080fd5b8063dd5967c314610449578063dedd3a4714610470578063e1e158a514610483578063e9c6c176146104aa57600080fd5b8063c5fba0b8116100e9578063c5fba0b8146103e3578063cc32d176146103f0578063cf69568814610402578063d57763c31461042957600080fd5b80639cdb8e5a14610392578063ad062e55146103ad578063c1ac1ffb146103c7578063c3a079ed146103da57600080fd5b80636b994abb116101925780637dce5550116101615780637dce55501461036e57806389a11f7a146103765780639a64279c1461037f5780639cc7eab91461038957600080fd5b80636b994abb146103175780636dcc17c81461033f57806376898e8214610348578063778919071461035b57600080fd5b8063490d4c5f116101ce578063490d4c5f146102b65780635f4d0610146102c95780635f5d5b6a146102fc5780636512d0571461030457600080fd5b806313f6658714610200578063163de0c5146102445780632143c3e91461025b578063276d080e14610270575b600080fd5b6102277f000000000000000000000000000000000000000000000000000000000000000081565b6040516001600160a01b0390911681526020015b60405180910390f35b61024d60015481565b60405190815260200161023b565b61026e610269366004611d78565b610515565b005b61028361027e366004611db3565b610895565b60405161023b91908151815260208083015190820152604080830151908201526060918201519181019190915260800190565b61026e6102c4366004611db3565b61091e565b6102dc6102d7366004611db3565b61095b565b60408051948552602085019390935291830152606082015260800161023b565b61024d600281565b61024d610312366004611db3565b610995565b61032a610325366004611db3565b6109c3565b60405161023b99989796959493929190611e4a565b61024d60035481565b61026e610356366004611f53565b610ab2565b61026e610369366004611db3565b610bd2565b60075461024d565b61024d61546081565b61024d6203345081565b61024d60045481565b61039a603281565b60405161ffff909116815260200161023b565b6103b5600a81565b60405160ff909116815260200161023b565b61026e6103d5366004612099565b610dbb565b61024d61025881565b6002546103b59060ff1681565b6002546103b590610100900460ff1681565b6102277f000000000000000000000000000000000000000000000000000000000000000081565b61043c610437366004611db3565b6113d3565b60405161023b91906121a1565b61024d7f000000000000000000000000000000000000000000000000000000000000000081565b61026e61047e366004612272565b611636565b61024d7f000000000000000000000000000000000000000000000000000000000000000081565b61026e6104b83660046122cc565b611703565b60065461024d565b61024d620668a081565b61026e6104dd366004611db3565b611789565b61024d6104f0366004611db3565b60009081526020819052604090205490565b61026e610510366004612272565b6117b8565b7f000000000000000000000000000000000000000000000000000000000000000082101561055657604051632b7786bd60e21b815260040160405180910390fd5b7f000000000000000000000000000000000000000000000000000000000000000082106105965760405163c066e1e960e01b815260040160405180910390fd5b836000036105b757604051635c4ad48d60e11b815260040160405180910390fd5b336000908152600560205260408120549003610605576040805160006020808301828152838501855283523382526005815292902081518051929391926106019284920190611d18565b5050505b8060001914610682576000819050600060078281548110610628576106286122f8565b906000526020600020906004020190508581600201540361066257838160010160008282546106579190612324565b9091555061067b9050565b60405163927ce9e760e01b815260040160405180910390fd5b50506107c1565b82600019146106f1576000600784815481106106a0576106a06122f8565b9060005260206000209060040201905080600101546000146106d55760405163721e09df60e01b815260040160405180910390fd5b82815560018101839055600281018590556003018590556107c1565b6040805160808101825283815260208101848152918101868152606082018881526007805460018101825560009190915292517fa66cc928b5edb82af9bd49922954155ab7b0942694bea4ce44661d9a8736c68860049094029384015592517fa66cc928b5edb82af9bd49922954155ab7b0942694bea4ce44661d9a8736c689830155517fa66cc928b5edb82af9bd49922954155ab7b0942694bea4ce44661d9a8736c68a82015590517fa66cc928b5edb82af9bd49922954155ab7b0942694bea4ce44661d9a8736c68b909101555b3360009081526005602052604090206007546107df9060019061233d565b815460018101835560009283526020909220909101556040516323b872dd60e01b8152336004820152306024820152604481018390527f00000000000000000000000000000000000000000000000000000000000000006001600160a01b0316906323b872dd906064015b6020604051808303816000875af1158015610869573d6000803e3d6000fd5b505050506040513d601f19601f8201168201806040525081019061088d9190612350565b505050505050565b6108c36040518060800160405280600081526020016000815260200160008152602001600080191681525090565b600782815481106108d6576108d66122f8565b90600052602060002090600402016040518060800160405290816000820154815260200160018201548152602001600282015481526020016003820154815250509050919050565b600060078281548110610933576109336122f8565b6000918252602082206004909102018181556001810182905560028101829055600301555050565b6007818154811061096b57600080fd5b60009182526020909120600490910201805460018201546002830154600390930154919350919084565b6000600782815481106109aa576109aa6122f8565b9060005260206000209060040201600101549050919050565b600681815481106109d357600080fd5b60009182526020909120600a90910201805460018201805460ff831694506101009092046001600160a01b03169291610a0b90612372565b80601f0160208091040260200160405190810160405280929190818152602001828054610a3790612372565b8015610a845780601f10610a5957610100808354040283529160200191610a84565b820191906000526020600020905b815481529060010190602001808311610a6757829003601f168201915b5050505050908060020154908060030154908060040154908060050154908060060154908060070154905089565b600060068781548110610ac757610ac76122f8565b90600052602060002090600a02019050610ae2858486611703565b60038101859055805460ff191660021781556000610b0348620668a06123ac565b600354610b109190612324565b604051909150600090339083908381818185875af1925050503d8060008114610b55576040519150601f19603f3d011682016040523d82523d6000602084013e610b5a565b606091505b5050905080610b7c57604051631d42c86760e21b815260040160405180910390fd5b81836007016000828254610b9091906123c3565b9091555050600783015460001315610bc7578260070154836006016000828254610bba9190612324565b9091555050600060078401555b505050505050505050565b600060068281548110610be757610be76122f8565b60009182526020909120600a9091020190506002815460ff166004811115610c1157610c11611dcc565b14610c2f5760405163b38c767b60e01b815260040160405180910390fd5b610258816004015442610c42919061233d565b1015610c6157604051632d5c37f560e21b815260040160405180910390fd5b6000610c7048620334506123ac565b600454610c7d9190612324565b604051909150600090339083908381818185875af1925050503d8060008114610cc2576040519150601f19603f3d011682016040523d82523d6000602084013e610cc7565b606091505b5050905080610ce957604051631d42c86760e21b815260040160405180910390fd5b81836007016000828254610cfd91906123c3565b9091555050600783015460001315610d2d578260070154836006016000828254610d279190612324565b90915550505b8254600684015460405160009261010090046001600160a01b031691908381818185875af1925050503d8060008114610d82576040519150601f19603f3d011682016040523d82523d6000602084013e610d87565b606091505b5050905080610da957604051631d42c86760e21b815260040160405180910390fd5b5050815460ff19166004179091555050565b6000805b8651811015610df757868181518110610dda57610dda6122f8565b602002602001015182610ded9190612324565b9150600101610dbf565b50848114610e185760405163af61069360e01b815260040160405180910390fd5b600254600090610e2e906127109060ff166123ea565b610e3c9061ffff16876123ac565b905060006002610e4f48620668a06123ac565b610e5991906123ac565b600354610e669190612324565b905060006002610e7948620334506123ac565b610e8391906123ac565b600454610e909190612324565b9050600081610e9f8585612324565b610ea99190612324565b905080891015610ecc576040516359cf7a8d60e11b815260040160405180910390fd5b610ed586611ae1565b610ede86611b64565b60005b8b51811015610f755760008b8281518110610efe57610efe6122f8565b60200260200101519050600060078e8481518110610f1e57610f1e6122f8565b602002602001015181548110610f3657610f366122f8565b906000526020600020906004020190508060010154821115610f6b57604051634323a55560e01b815260040160405180910390fd5b5050600101610ee1565b5085511561107e576000600687600081518110610f9457610f946122f8565b602002602001015181548110610fac57610fac6122f8565b60009182526020909120600a90910201805460016001600160a81b03199091166101006001600160a01b038d160217811782559091508101610fee898261246b565b50426002820155600060038201819055600482015561100d8385612324565b6007820155600681018a9055604051611030908a908a904290469060200161252a565b60408051601f19818403018152919052805160209182012060058301558c51611061916008840191908f0190611d18565b508a5161107790600983019060208e0190611d18565b5050611209565b60408051610160810190915260069080600181526020018a6001600160a01b0316815260200189815260200142815260200160008152602001600081526020018a8a42466040516020016110d5949392919061252a565b6040516020818303038152906040528051906020012081526020018b815260200184866111029190612324565b815260208082018f905260409091018d90528254600181810185556000948552919093208251600a909402018054929390929091839160ff19169083600481111561114f5761114f611dcc565b0217905550602082015181546001600160a01b0390911661010002610100600160a81b03199091161781556040820151600182019061118e908261246b565b50606082015160028201556080820151600382015560a0820151600482015560c0820151600582015560e08201516006820155610100820151600782015561012082015180516111e8916008840191602090910190611d18565b506101408201518051611205916009840191602090910190611d18565b5050505b60005b8b5181101561128e57600060078d838151811061122b5761122b6122f8565b602002602001015181548110611243576112436122f8565b906000526020600020906004020190508b8281518110611265576112656122f8565b6020026020010151816001016000828254611280919061233d565b90915550505060010161120c565b506040516323b872dd60e01b8152336004820152306024820152604481018290527f00000000000000000000000000000000000000000000000000000000000000006001600160a01b0316906323b872dd906064016020604051808303816000875af1158015611302573d6000803e3d6000fd5b505050506040513d601f19601f820116820180604052508101906113269190612350565b506008546040516323b872dd60e01b81523060048201526001600160a01b039182166024820152604481018690527f0000000000000000000000000000000000000000000000000000000000000000909116906323b872dd906064016020604051808303816000875af11580156113a1573d6000803e3d6000fd5b505050506040513d601f19601f820116820180604052508101906113c59190612350565b505050505050505050505050565b61143d604080516101608101909152806000815260200160006001600160a01b031681526020016060815260200160008152602001600081526020016000815260200160008019168152602001600081526020016000815260200160608152602001606081525090565b60068281548110611450576114506122f8565b60009182526020909120604080516101608101909152600a909202018054829060ff16600481111561148457611484611dcc565b600481111561149557611495611dcc565b8152815461010090046001600160a01b031660208201526001820180546040909201916114c190612372565b80601f01602080910402602001604051908101604052809291908181526020018280546114ed90612372565b801561153a5780601f1061150f5761010080835404028352916020019161153a565b820191906000526020600020905b81548152906001019060200180831161151d57829003601f168201915b50505050508152602001600282015481526020016003820154815260200160048201548152602001600582015481526020016006820154815260200160078201548152602001600882018054806020026020016040519081016040528092919081815260200182805480156115ce57602002820191906000526020600020905b8154815260200190600101908083116115ba575b505050505081526020016009820180548060200260200160405190810160405280929190818152602001828054801561162657602002820191906000526020600020905b815481526020019060010190808311611612575b5050505050815250509050919050565b33600090815260056020526040902080548591908590811061165a5761165a6122f8565b90600052602060002001541461168357604051630e7fea9d60e01b815260040160405180910390fd5b816000036116a457604051636e5a187760e11b815260040160405180910390fd5b6000600785815481106116b9576116b96122f8565b906000526020600020906004020190506116d282611b64565b80546001820154146116f7576040516391bc6cc360e01b815260040160405180910390fd5b60020191909155505050565b6001548084111561172757604051630f0f97d160e01b815260040160405180910390fd5b80841080156117365750808310155b1561177357835b818110156117715760008181526020819052604090205415611769576000818152602081905260408120555b60010161173d565b505b5060008281526020819052604090205560015550565b6000818152602081905260409020546117b55760405163fa4a5e4560e01b815260040160405180910390fd5b50565b3360009081526005602052604090208054859190859081106117dc576117dc6122f8565b90600052602060002001541461180557604051630e7fea9d60e01b815260040160405180910390fd5b6118336040518060400160405280600c81526020016b03b30bab63a24b73232bc1d160a51b81525085611cb7565b61188060405180606001604052806040815260200161259d60409139336000908152600560205260409020805487908110611870576118706122f8565b9060005260206000200154611cb7565b61188981611b64565b60075484106118ab5760405163721e09df60e01b815260040160405180910390fd5b6000600785815481106118c0576118c06122f8565b9060005260206000209060040201905082600014806118e25750806001015483115b156119005760405163b4e3d41360e01b815260040160405180910390fd5b6119436040518060400160405280601a81526020017f756e726573657276656442616c616e6365206265666f72653a200000000000008152508260010154611cb7565b82816001016000828254611957919061233d565b925050819055506119a16040518060400160405280601981526020017f756e726573657276656442616c616e63652061667465723a20000000000000008152508260010154611cb7565b6119d560405180604001604052806012815260200171030b6b7bab73a2a37abb4ba34323930bb9d160751b81525084611cb7565b6040805180820182526012815271031b7b73a3930b1ba103130b630b731b29d160751b602082015290516370a0823160e01b8152306004820152611a8e91907f00000000000000000000000000000000000000000000000000000000000000006001600160a01b0316906370a0823190602401602060405180830381865afa158015611a65573d6000803e3d6000fd5b505050506040513d601f19601f82011682018060405250810190611a899190612561565b611cb7565b60405163a9059cbb60e01b8152336004820152602481018490527f00000000000000000000000000000000000000000000000000000000000000006001600160a01b03169063a9059cbb9060440161084a565b60005b8151811015611b60576154606006838381518110611b0457611b046122f8565b602002602001015181548110611b1c57611b1c6122f8565b90600052602060002090600a02016002015442611b39919061233d565b1015611b58576040516326349d6b60e01b815260040160405180910390fd5b600101611ae4565b5050565b60005b8151811015611b6057611b7982611ae1565b611bd16040518060400160405280601e81526020017f657870697265645265736572766174696f6e496e64657865735b695d3a200000815250838381518110611bc457611bc46122f8565b6020026020010151611cb7565b60006006838381518110611be757611be76122f8565b602002602001015181548110611bff57611bff6122f8565b90600052602060002090600a0201905060005b6008820154811015611ca35760006007836008018381548110611c3757611c376122f8565b906000526020600020015481548110611c5257611c526122f8565b90600052602060002090600402019050826009018281548110611c7757611c776122f8565b9060005260206000200154816001016000828254611c959190612324565b909155505050600101611c12565b50805460ff19166003179055600101611b67565b611b608282604051602401611ccd92919061257a565b60408051601f198184030181529190526020810180516001600160e01b03166309710a9d60e41b17905280516a636f6e736f6c652e6c6f67602083016000808483855afa5050505050565b828054828255906000526020600020908101928215611d53579160200282015b82811115611d53578251825591602001919060010190611d38565b50611d5f929150611d63565b5090565b5b80821115611d5f5760008155600101611d64565b600080600080600060a08688031215611d9057600080fd5b505083359560208501359550604085013594606081013594506080013592509050565b600060208284031215611dc557600080fd5b5035919050565b634e487b7160e01b600052602160045260246000fd5b60058110611e0057634e487b7160e01b600052602160045260246000fd5b9052565b6000815180845260005b81811015611e2a57602081850181015186830182015201611e0e565b506000602082860101526020601f19601f83011685010191505092915050565b611e54818b611de2565b6001600160a01b038916602082015261012060408201819052600090611e7c9083018a611e04565b606083019890985250608081019590955260a085019390935260c084019190915260e0830152610100909101529392505050565b634e487b7160e01b600052604160045260246000fd5b604051601f8201601f1916810167ffffffffffffffff81118282101715611eef57611eef611eb0565b604052919050565b60008067ffffffffffffffff841115611f1257611f12611eb0565b50601f8301601f1916602001611f2781611ec6565b915050828152838383011115611f3c57600080fd5b828260208301376000602084830101529392505050565b60008060008060008060c08789031215611f6c57600080fd5b863595506020870135945060408701359350606087013592506080870135915060a087013567ffffffffffffffff811115611fa657600080fd5b8701601f81018913611fb757600080fd5b611fc689823560208401611ef7565b9150509295509295509295565b600082601f830112611fe457600080fd5b813567ffffffffffffffff811115611ffe57611ffe611eb0565b8060051b61200e60208201611ec6565b9182526020818501810192908101908684111561202a57600080fd5b6020860192505b8383101561204c578235825260209283019290910190612031565b9695505050505050565b80356001600160a01b038116811461206d57600080fd5b919050565b600082601f83011261208357600080fd5b61209283833560208501611ef7565b9392505050565b60008060008060008060c087890312156120b257600080fd5b863567ffffffffffffffff8111156120c957600080fd5b6120d589828a01611fd3565b965050602087013567ffffffffffffffff8111156120f257600080fd5b6120fe89828a01611fd3565b9550506040870135935061211460608801612056565b9250608087013567ffffffffffffffff81111561213057600080fd5b61213c89828a01612072565b92505060a087013567ffffffffffffffff81111561215957600080fd5b611fc689828a01611fd3565b600081518084526020840193506020830160005b82811015612197578151865260209586019590910190600101612179565b5093949350505050565b602081526121b3602082018351611de2565b600060208301516121cf60408401826001600160a01b03169052565b50604083015161016060608401526121eb610180840182611e04565b905060608401516080840152608084015160a084015260a084015160c084015260c084015160e084015260e0840151610100840152610100840151610120840152610120840151601f19848303016101408501526122498282612165565b915050610140840151601f19848303016101608501526122698282612165565b95945050505050565b6000806000806080858703121561228857600080fd5b843593506020850135925060408501359150606085013567ffffffffffffffff8111156122b457600080fd5b6122c087828801611fd3565b91505092959194509250565b6000806000606084860312156122e157600080fd5b505081359360208301359350604090920135919050565b634e487b7160e01b600052603260045260246000fd5b634e487b7160e01b600052601160045260246000fd5b808201808211156123375761233761230e565b92915050565b818103818111156123375761233761230e565b60006020828403121561236257600080fd5b8151801515811461209257600080fd5b600181811c9082168061238657607f821691505b6020821081036123a657634e487b7160e01b600052602260045260246000fd5b50919050565b80820281158282048414176123375761233761230e565b81810360008312801583831316838312821617156123e3576123e361230e565b5092915050565b600061ffff83168061240c57634e487b7160e01b600052601260045260246000fd5b8061ffff84160491505092915050565b601f82111561246657806000526020600020601f840160051c810160208510156124435750805b601f840160051c820191505b81811015612463576000815560010161244f565b50505b505050565b815167ffffffffffffffff81111561248557612485611eb0565b612499816124938454612372565b8461241c565b6020601f8211600181146124cd57600083156124b55750848201515b600019600385901b1c1916600184901b178455612463565b600084815260208120601f198516915b828110156124fd57878501518255602094850194600190920191016124dd565b508482101561251b5786840151600019600387901b60f8161c191681555b50505050600190811b01905550565b6001600160a01b038516815260806020820181905260009061254e90830186611e04565b6040830194909452506060015292915050565b60006020828403121561257357600080fd5b5051919050565b60408152600061258d6040830185611e04565b9050826020830152939250505056fe6c697175696469747950726f7669646572735b6d73672e73656e6465725d2e6465706f7369745661756c74496e64657865735b7661756c74496e6465785d3a20a264697066735822122059961c29db5440def654b3c3be2cc3f73bb58443bef42667466bcda82e2f29c464736f6c634300081a0033","linkReferences":{}},"methodIdentifiers":{"CHALLENGE_PERIOD()":"c3a079ed","DEPOSIT_TOKEN()":"13f66587","MAX_DEPOSIT()":"dd5967c3","MAX_DEPOSIT_OUTPUTS()":"9cdb8e5a","MIN_DEPOSIT()":"e1e158a5","MIN_ORDER_GAS_MULTIPLIER()":"5f5d5b6a","PROOF_GAS_COST()":"eb6c7522","RELEASE_GAS_COST()":"9a64279c","RESERVATION_LOCKUP_PERIOD()":"89a11f7a","SAMPLING_SIZE()":"ad062e55","addBlock(uint256,uint256,bytes32)":"e9c6c176","currentHeight()":"163de0c5","depositLiquidity(bytes32,uint256,int256,uint256,int256)":"2143c3e9","depositVaults(uint256)":"5f4d0610","emptyDepositVault(uint256)":"490d4c5f","getBlockHash(uint256)":"ee82ac5e","getDepositVault(uint256)":"276d080e","getDepositVaultUnreservedBalance(uint256)":"6512d057","getDepositVaultsLength()":"7dce5550","getReservation(uint256)":"d57763c3","getReservationLength()":"ea6fe03e","protocolFeeBP()":"c5fba0b8","proverReward()":"6dcc17c8","releaseLiquidity(uint256)":"77891907","releaserReward()":"9cc7eab9","reserveLiquidity(uint256[],uint256[],uint256,address,string,uint256[])":"c1ac1ffb","swapReservations(uint256)":"6b994abb","treasuryFee()":"cc32d176","unlockLiquidity(uint256,bytes32,uint256,bytes32,uint256,bytes)":"76898e82","updateExchangeRate(uint256,uint256,uint256,uint256[])":"dedd3a47","validateBlockExists(uint256)":"ed8b2b32","verifierContract()":"cf695688","withdrawLiquidity(uint256,uint256,uint256,uint256[])":"f5363800"},"storageLayout":{"storage":[{"astId":47154,"contract":"src/RiftExchange.sol:RiftExchange","label":"blockchain","offset":0,"slot":"0","type":"t_mapping(t_uint256,t_bytes32)"},{"astId":47156,"contract":"src/RiftExchange.sol:RiftExchange","label":"currentHeight","offset":0,"slot":"1","type":"t_uint256"},{"astId":47762,"contract":"src/RiftExchange.sol:RiftExchange","label":"protocolFeeBP","offset":0,"slot":"2","type":"t_uint8"},{"astId":47765,"contract":"src/RiftExchange.sol:RiftExchange","label":"treasuryFee","offset":1,"slot":"2","type":"t_uint8"},{"astId":47768,"contract":"src/RiftExchange.sol:RiftExchange","label":"proverReward","offset":0,"slot":"3","type":"t_uint256"},{"astId":47771,"contract":"src/RiftExchange.sol:RiftExchange","label":"releaserReward","offset":0,"slot":"4","type":"t_uint256"},{"astId":47829,"contract":"src/RiftExchange.sol:RiftExchange","label":"liquidityProviders","offset":0,"slot":"5","type":"t_mapping(t_address,t_struct(LiquidityProvider)47780_storage)"},{"astId":47833,"contract":"src/RiftExchange.sol:RiftExchange","label":"swapReservations","offset":0,"slot":"6","type":"t_array(t_struct(SwapReservation)47824_storage)dyn_storage"},{"astId":47837,"contract":"src/RiftExchange.sol:RiftExchange","label":"depositVaults","offset":0,"slot":"7","type":"t_array(t_struct(DepositVault)47789_storage)dyn_storage"},{"astId":47846,"contract":"src/RiftExchange.sol:RiftExchange","label":"protocolAddress","offset":0,"slot":"8","type":"t_address_payable"}],"types":{"t_address":{"encoding":"inplace","label":"address","numberOfBytes":"20"},"t_address_payable":{"encoding":"inplace","label":"address payable","numberOfBytes":"20"},"t_array(t_struct(DepositVault)47789_storage)dyn_storage":{"encoding":"dynamic_array","label":"struct RiftExchange.DepositVault[]","numberOfBytes":"32","base":"t_struct(DepositVault)47789_storage"},"t_array(t_struct(SwapReservation)47824_storage)dyn_storage":{"encoding":"dynamic_array","label":"struct RiftExchange.SwapReservation[]","numberOfBytes":"32","base":"t_struct(SwapReservation)47824_storage"},"t_array(t_uint256)dyn_storage":{"encoding":"dynamic_array","label":"uint256[]","numberOfBytes":"32","base":"t_uint256"},"t_bytes32":{"encoding":"inplace","label":"bytes32","numberOfBytes":"32"},"t_enum(ReservationState)47795":{"encoding":"inplace","label":"enum RiftExchange.ReservationState","numberOfBytes":"1"},"t_int256":{"encoding":"inplace","label":"int256","numberOfBytes":"32"},"t_mapping(t_address,t_struct(LiquidityProvider)47780_storage)":{"encoding":"mapping","key":"t_address","label":"mapping(address => struct RiftExchange.LiquidityProvider)","numberOfBytes":"32","value":"t_struct(LiquidityProvider)47780_storage"},"t_mapping(t_uint256,t_bytes32)":{"encoding":"mapping","key":"t_uint256","label":"mapping(uint256 => bytes32)","numberOfBytes":"32","value":"t_bytes32"},"t_string_storage":{"encoding":"bytes","label":"string","numberOfBytes":"32"},"t_struct(DepositVault)47789_storage":{"encoding":"inplace","label":"struct RiftExchange.DepositVault","numberOfBytes":"128","members":[{"astId":47782,"contract":"src/RiftExchange.sol:RiftExchange","label":"initialBalance","offset":0,"slot":"0","type":"t_uint256"},{"astId":47784,"contract":"src/RiftExchange.sol:RiftExchange","label":"unreservedBalance","offset":0,"slot":"1","type":"t_uint256"},{"astId":47786,"contract":"src/RiftExchange.sol:RiftExchange","label":"btcExchangeRate","offset":0,"slot":"2","type":"t_uint256"},{"astId":47788,"contract":"src/RiftExchange.sol:RiftExchange","label":"btcPayoutLockingScript","offset":0,"slot":"3","type":"t_bytes32"}]},"t_struct(LiquidityProvider)47780_storage":{"encoding":"inplace","label":"struct RiftExchange.LiquidityProvider","numberOfBytes":"32","members":[{"astId":47779,"contract":"src/RiftExchange.sol:RiftExchange","label":"depositVaultIndexes","offset":0,"slot":"0","type":"t_array(t_uint256)dyn_storage"}]},"t_struct(SwapReservation)47824_storage":{"encoding":"inplace","label":"struct RiftExchange.SwapReservation","numberOfBytes":"320","members":[{"astId":47801,"contract":"src/RiftExchange.sol:RiftExchange","label":"state","offset":0,"slot":"0","type":"t_enum(ReservationState)47795"},{"astId":47803,"contract":"src/RiftExchange.sol:RiftExchange","label":"ethPayoutAddress","offset":1,"slot":"0","type":"t_address"},{"astId":47805,"contract":"src/RiftExchange.sol:RiftExchange","label":"btcSenderAddress","offset":0,"slot":"1","type":"t_string_storage"},{"astId":47807,"contract":"src/RiftExchange.sol:RiftExchange","label":"reservationTimestamp","offset":0,"slot":"2","type":"t_uint256"},{"astId":47809,"contract":"src/RiftExchange.sol:RiftExchange","label":"confirmationBlockHeight","offset":0,"slot":"3","type":"t_uint256"},{"astId":47811,"contract":"src/RiftExchange.sol:RiftExchange","label":"unlockTimestamp","offset":0,"slot":"4","type":"t_uint256"},{"astId":47813,"contract":"src/RiftExchange.sol:RiftExchange","label":"nonce","offset":0,"slot":"5","type":"t_bytes32"},{"astId":47815,"contract":"src/RiftExchange.sol:RiftExchange","label":"totalSwapAmount","offset":0,"slot":"6","type":"t_uint256"},{"astId":47817,"contract":"src/RiftExchange.sol:RiftExchange","label":"prepaidFeeAmount","offset":0,"slot":"7","type":"t_int256"},{"astId":47820,"contract":"src/RiftExchange.sol:RiftExchange","label":"vaultIndexes","offset":0,"slot":"8","type":"t_array(t_uint256)dyn_storage"},{"astId":47823,"contract":"src/RiftExchange.sol:RiftExchange","label":"amountsToReserve","offset":0,"slot":"9","type":"t_array(t_uint256)dyn_storage"}]},"t_uint256":{"encoding":"inplace","label":"uint256","numberOfBytes":"32"},"t_uint8":{"encoding":"inplace","label":"uint8","numberOfBytes":"1"}}},"id":28}