{"abi":[{"type":"constructor","inputs":[{"name":"checkpoint_height","type":"uint256","internalType":"uint256"},{"name":"block_hash","type":"bytes32","internalType":"bytes32"},{"name":"version","type":"uint32","internalType":"uint32"},{"name":"prev_block_hash","type":"bytes32","internalType":"bytes32"},{"name":"merkle_root","type":"bytes32","internalType":"bytes32"},{"name":"timestamp","type":"uint32","internalType":"uint32"},{"name":"bits","type":"uint32","internalType":"uint32"},{"name":"nonce","type":"uint32","internalType":"uint32"}],"stateMutability":"nonpayable"},{"type":"function","name":"SAFE_BLOCKS","inputs":[],"outputs":[{"name":"","type":"uint8","internalType":"uint8"}],"stateMutability":"view"},{"type":"function","name":"btc_checkpoint_height","inputs":[],"outputs":[{"name":"","type":"uint256","internalType":"uint256"}],"stateMutability":"view"},{"type":"function","name":"current_height","inputs":[],"outputs":[{"name":"","type":"uint256","internalType":"uint256"}],"stateMutability":"view"},{"type":"function","name":"first_block","inputs":[],"outputs":[{"name":"","type":"uint256","internalType":"uint256"}],"stateMutability":"view"},{"type":"function","name":"getBlockSafe","inputs":[{"name":"height","type":"uint256","internalType":"uint256"}],"outputs":[{"name":"","type":"tuple","internalType":"struct HeaderLib.Block","components":[{"name":"bits","type":"uint32","internalType":"uint32"},{"name":"block_hash","type":"bytes32","internalType":"bytes32"},{"name":"merkle_root","type":"bytes32","internalType":"bytes32"},{"name":"nonce","type":"uint32","internalType":"uint32"},{"name":"prev_block_hash","type":"bytes32","internalType":"bytes32"},{"name":"timestamp","type":"uint32","internalType":"uint32"},{"name":"version","type":"uint32","internalType":"uint32"}]}],"stateMutability":"view"},{"type":"function","name":"getBlockUnsafe","inputs":[{"name":"height","type":"uint256","internalType":"uint256"}],"outputs":[{"name":"","type":"tuple","internalType":"struct HeaderLib.Block","components":[{"name":"bits","type":"uint32","internalType":"uint32"},{"name":"block_hash","type":"bytes32","internalType":"bytes32"},{"name":"merkle_root","type":"bytes32","internalType":"bytes32"},{"name":"nonce","type":"uint32","internalType":"uint32"},{"name":"prev_block_hash","type":"bytes32","internalType":"bytes32"},{"name":"timestamp","type":"uint32","internalType":"uint32"},{"name":"version","type":"uint32","internalType":"uint32"}]}],"stateMutability":"view"},{"type":"function","name":"getMerkleRootSafe","inputs":[{"name":"height","type":"uint256","internalType":"uint256"}],"outputs":[{"name":"","type":"bytes32","internalType":"bytes32"}],"stateMutability":"view"},{"type":"function","name":"proposeBlocksToLongestChain","inputs":[{"name":"checkpoint_height","type":"uint256","internalType":"uint256"},{"name":"_block_hashes","type":"bytes32[]","internalType":"bytes32[]"},{"name":"_versions","type":"uint32[]","internalType":"uint32[]"},{"name":"_prev_block_hashes","type":"bytes32[]","internalType":"bytes32[]"},{"name":"_merkle_roots","type":"bytes32[]","internalType":"bytes32[]"},{"name":"_timestamps","type":"uint32[]","internalType":"uint32[]"},{"name":"_bits","type":"uint32[]","internalType":"uint32[]"},{"name":"_nonces","type":"uint32[]","internalType":"uint32[]"},{"name":"proof","type":"bytes[]","internalType":"bytes[]"}],"outputs":[],"stateMutability":"nonpayable"},{"type":"function","name":"proposeNewBlock","inputs":[{"name":"block_hash","type":"bytes32","internalType":"bytes32"},{"name":"version","type":"uint32","internalType":"uint32"},{"name":"prev_block_hash","type":"bytes32","internalType":"bytes32"},{"name":"merkle_root","type":"bytes32","internalType":"bytes32"},{"name":"timestamp","type":"uint32","internalType":"uint32"},{"name":"bits","type":"uint32","internalType":"uint32"},{"name":"nonce","type":"uint32","internalType":"uint32"},{"name":"proof","type":"bytes","internalType":"bytes"}],"outputs":[],"stateMutability":"nonpayable"},{"type":"function","name":"verifier","inputs":[],"outputs":[{"name":"","type":"address","internalType":"contract UltraVerifier"}],"stateMutability":"view"},{"type":"error","name":"BlockDoesntExist","inputs":[{"name":"height","type":"uint256","internalType":"uint256"}]},{"type":"error","name":"BlockIsNotRetarget","inputs":[{"name":"invalid_height","type":"uint256","internalType":"uint256"}]},{"type":"error","name":"InvalidBlockList","inputs":[]},{"type":"error","name":"InvalidTarget","inputs":[{"name":"provided","type":"uint256","internalType":"uint256"},{"name":"expected","type":"uint256","internalType":"uint256"}]},{"type":"error","name":"NotLongestChain","inputs":[]},{"type":"error","name":"ProofVerificationFailed","inputs":[]}],"bytecode":{"object":"0x60a060405234801561001057600080fd5b506040516142af3803806142af83398101604081905261002f916101a3565b61003b6107e089610220565b15610060576040516304a6676f60e21b81526004810189905260240160405180910390fd5b60808890526040516100719061017d565b604051809103906000f08015801561008d573d6000803e3d6000fd5b50600080546001600160a01b03929092166001600160a01b0319909216919091178155600289815560038a81556040805160e08101825263ffffffff968716815260208082019c8d52818301998a5295871660608201908152608082019a8b5297871660a082019081529a871660c082019081529c855260019586905293209251835490861663ffffffff199182161784559951938301939093559451948101949094559151918301805492821692909616919091179094559051600482015590516005909101805493518316640100000000026001600160401b03199094169190921617919091179055610242565b612d748061153b83390190565b805163ffffffff8116811461019e57600080fd5b919050565b600080600080600080600080610100898b0312156101c057600080fd5b885160208a015190985096506101d860408a0161018a565b60608a015160808b0151919750955093506101f560a08a0161018a565b925061020360c08a0161018a565b915061021160e08a0161018a565b90509295985092959890939650565b60008261023d57634e487b7160e01b600052601260045260246000fd5b500690565b6080516112d76102646000396000818161019d015261059b01526112d76000f3fe608060405234801561001057600080fd5b506004361061009e5760003560e01c80637bd75806116100665780637bd75806146101985780638ab7ca06146101bf578063d7e3de43146101d4578063db44bef6146101e7578063f29f4770146101f057600080fd5b80632b7ac3f3146100a35780634646e09d146100d357806347e2dde7146100ea5780635698d56e1461016b57806363a05cf914610185575b600080fd5b6000546100b6906001600160a01b031681565b6040516001600160a01b0390911681526020015b60405180910390f35b6100dc60025481565b6040519081526020016100ca565b6100fd6100f8366004610ccb565b610203565b6040516100ca9190600060e08201905063ffffffff8351168252602083015160208301526040830151604083015263ffffffff60608401511660608301526080830151608083015263ffffffff60a08401511660a083015263ffffffff60c08401511660c083015292915050565b610173600681565b60405160ff90911681526020016100ca565b6100fd610193366004610ccb565b6102b8565b6100dc7f000000000000000000000000000000000000000000000000000000000000000081565b6101d26101cd366004610db2565b6102f6565b005b6100dc6101e2366004610ccb565b610377565b6100dc60035481565b6101d26101fe366004610fc5565b610398565b6040805160e081018252600080825260208201819052918101829052606081018290526080810182905260a0810182905260c081019190915261024582610599565b50600090815260016020818152604092839020835160e081018552815463ffffffff908116825293820154928101929092526002810154938201939093526003830154821660608201526004830154608082015260059092015480821660a084015264010000000090041660c082015290565b6040805160e081018252600080825260208201819052918101829052606081018290526080810182905260a0810182905260c0810191909152610245565b61035860405180610120016040528060035481526020018a81526020018963ffffffff1681526020018881526020018781526020018663ffffffff1681526020018563ffffffff1681526020018463ffffffff16815260200183815250610615565b600380549060006103688361114c565b91905055505050505050505050565b600061038282610599565b5060009081526001602052604090206002015490565b865188511415806103ab57508551885114155b806103b857508451885114155b806103c557508351885114155b806103d257508251885114155b806103df57508151885114155b806103ec57508051885114155b1561040a57604051632dcab57f60e21b815260040160405180910390fd5b6003548851610419908b611165565b11610437576040516376d7026560e01b815260040160405180910390fd5b60005b885181101561057e57610576604051806101200160405280838d61045e9190611165565b81526020018b84815181106104755761047561117e565b602002602001015181526020018a84815181106104945761049461117e565b602002602001015163ffffffff1681526020018984815181106104b9576104b961117e565b602002602001015181526020018884815181106104d8576104d861117e565b602002602001015181526020018784815181106104f7576104f761117e565b602002602001015163ffffffff16815260200186848151811061051c5761051c61117e565b602002602001015163ffffffff1681526020018584815181106105415761054161117e565b602002602001015163ffffffff1681526020018484815181106105665761056661117e565b6020026020010151815250610615565b60010161043a565b50875161058b908a611165565b600355505050505050505050565b7f000000000000000000000000000000000000000000000000000000000000000081141580156105ed57506003548111806105d5575060025481105b806105ed57506003546105ea90600690611194565b81115b1561061257604051635349722760e01b81526004810182905260240160405180910390fd5b50565b80516000908152600160208181526040808420815160e081018352815463ffffffff90811682528286015494820194909452600282015492810192909252600381015483166060830152600481015460808301526005015480831660a0830152640100000000900490911660c0820152835190929190829061069a906107e0906111a7565b85516106a69190611194565b815260208082019290925260409081016000908120825160e081018452815463ffffffff9081168252600183015482870152600283015482860152600383015481166060808401919091526004840154608084015260059093015480821660a08401526401000000009004811660c0830152925461010089015185516101a0810187528988015181528a519781019790975282519094169486019490945287519095506001600160a01b039093169363ea50d0e4936108079282019061076f906107e0906111a7565b895161077b9190611194565b81526020018660a0015163ffffffff16815260200188602001518152602001886000015160016107ab9190611165565b8152602001886040015163ffffffff16815260200188606001518152602001886080015181526020018860a0015163ffffffff1681526020018860c0015163ffffffff1681526020018860e0015163ffffffff1681525061097a565b6040518363ffffffff1660e01b81526004016108249291906111c9565b602060405180830381865afa158015610841573d6000803e3d6000fd5b505050506040513d601f19601f820116820180604052508101906108659190611261565b506040518060e001604052808460c0015163ffffffff16815260200184602001518152602001846080015181526020018460e0015163ffffffff168152602001846060015181526020018460a0015163ffffffff168152602001846040015163ffffffff1681525060016000856000015160016108e29190611165565b815260208082019290925260409081016000208351815463ffffffff91821663ffffffff19918216178355938501516001830155918401516002820155606084015160038201805491841691909416179092556080830151600483015560a08301516005909201805460c09094015182166401000000000267ffffffffffffffff199094169290911691909117919091179055505050565b604080516089808252611140820190925260609160009190602082016111208036833701905050905060005b60208110156109fe5783516109d99082602081106109c6576109c661117e565b1a60f81b6001600160f81b031916610c7f565b8282815181106109eb576109eb61117e565b60209081029190910101526001016109a6565b50826020015160001b81602081518110610a1a57610a1a61117e565b602002602001018181525050826040015160001b81602181518110610a4157610a4161117e565b602002602001018181525050826060015160001b81602281518110610a6857610a6861117e565b602002602001018181525050826080015160001b81602381518110610a8f57610a8f61117e565b60200260200101818152505060005b6020811015610aef57610ac08460a0015182602081106109c6576109c661117e565b82610acc836024611165565b81518110610adc57610adc61117e565b6020908102919091010152600101610a9e565b508260c0015160001b81604481518110610b0b57610b0b61117e565b6020026020010181815250508260e0015163ffffffff1660001b81604581518110610b3857610b3861117e565b60200260200101818152505060005b6020811015610b9957610b6a84610100015182602081106109c6576109c661117e565b82610b76836046611165565b81518110610b8657610b8661117e565b6020908102919091010152600101610b47565b5060005b6020811015610bef57610bc084610120015182602081106109c6576109c661117e565b82610bcc836066611165565b81518110610bdc57610bdc61117e565b6020908102919091010152600101610b9d565b5082610140015163ffffffff1660001b81608681518110610c1257610c1261117e565b60200260200101818152505082610160015163ffffffff1660001b81608781518110610c4057610c4061117e565b60200260200101818152505082610180015163ffffffff1660001b81608881518110610c6e57610c6e61117e565b602090810291909101015292915050565b60008060005b6020811015610cc457610c9981601f611194565b610ca490600861128a565b60ff610cb183600861128a565b86901c16901b9190911790600101610c85565b5092915050565b600060208284031215610cdd57600080fd5b5035919050565b803563ffffffff81168114610cf857600080fd5b919050565b634e487b7160e01b600052604160045260246000fd5b604051601f8201601f191681016001600160401b0381118282101715610d3b57610d3b610cfd565b604052919050565b600082601f830112610d5457600080fd5b81356001600160401b03811115610d6d57610d6d610cfd565b610d80601f8201601f1916602001610d13565b818152846020838601011115610d9557600080fd5b816020850160208301376000918101602001919091529392505050565b600080600080600080600080610100898b031215610dcf57600080fd5b88359750610ddf60208a01610ce4565b96506040890135955060608901359450610dfb60808a01610ce4565b9350610e0960a08a01610ce4565b9250610e1760c08a01610ce4565b915060e08901356001600160401b03811115610e3257600080fd5b610e3e8b828c01610d43565b9150509295985092959890939650565b60006001600160401b03821115610e6757610e67610cfd565b5060051b60200190565b600082601f830112610e8257600080fd5b8135610e95610e9082610e4e565b610d13565b8082825260208201915060208360051b860101925085831115610eb757600080fd5b602085015b83811015610ed4578035835260209283019201610ebc565b5095945050505050565b600082601f830112610eef57600080fd5b8135610efd610e9082610e4e565b8082825260208201915060208360051b860101925085831115610f1f57600080fd5b602085015b83811015610ed457610f3581610ce4565b835260209283019201610f24565b600082601f830112610f5457600080fd5b8135610f62610e9082610e4e565b8082825260208201915060208360051b860101925085831115610f8457600080fd5b602085015b83811015610ed45780356001600160401b03811115610fa757600080fd5b610fb6886020838a0101610d43565b84525060209283019201610f89565b60008060008060008060008060006101208a8c031215610fe457600080fd5b8935985060208a01356001600160401b0381111561100157600080fd5b61100d8c828d01610e71565b98505060408a01356001600160401b0381111561102957600080fd5b6110358c828d01610ede565b97505060608a01356001600160401b0381111561105157600080fd5b61105d8c828d01610e71565b96505060808a01356001600160401b0381111561107957600080fd5b6110858c828d01610e71565b95505060a08a01356001600160401b038111156110a157600080fd5b6110ad8c828d01610ede565b94505060c08a01356001600160401b038111156110c957600080fd5b6110d58c828d01610ede565b93505060e08a01356001600160401b038111156110f157600080fd5b6110fd8c828d01610ede565b9250506101008a01356001600160401b0381111561111a57600080fd5b6111268c828d01610f43565b9150509295985092959850929598565b634e487b7160e01b600052601160045260246000fd5b60006001820161115e5761115e611136565b5060010190565b8082018082111561117857611178611136565b92915050565b634e487b7160e01b600052603260045260246000fd5b8181038181111561117857611178611136565b6000826111c457634e487b7160e01b600052601260045260246000fd5b500690565b604081526000835180604084015260005b818110156111f757602081870181015160608684010152016111da565b50600060608285010152601f19601f82011683019050606081016060848303016020850152808551808352608084019150602087019350600092505b808310156112565783518252602082019150602084019350600183019250611233565b509695505050505050565b60006020828403121561127357600080fd5b8151801515811461128357600080fd5b9392505050565b80820281158282048414176111785761117861113656fea2646970667358221220da4e44a3ae88c22e52cde3116b5954df3dd054b38fde99f30d045dd21f0c491064736f6c634300081a00336080604052348015600f57600080fd5b50612d558061001f6000396000f3fe608060405234801561001057600080fd5b50600436106100365760003560e01c8063937f6a101461003b578063ea50d0e41461006e575b600080fd5b6040517fdd476ac5857c6dc7a2c5457a2e3f2f7aed36a7ce1bdcf77aecba4f6d3161365981526020015b60405180910390f35b61008161007c366004612c4c565b610091565b6040519015158152602001610065565b620100006103805260896103a0527eeeb2cb5981ed45649abebde081dcff16c8601de4347e7dd1628ba2daac43b76103c0527f30641e0e92bebef818268d663bcad6dbcfd6c0149170f6d7d350b1b1fa6c10016103e0527f2c8e636482839f579495ba105462a32bcc038aa89112cc93661abb7a032b7aa9610400527f0b55b38b49a9c61d5999bd2bdf539b3cf5fa9d6a0bfe5cb842581e6d5c1cc915610420527f26203f60d81e65f8aca3dedecdc34f68ee55cc82b6154b43010ae3bf2d3b6266610440527f1e26eacaf002a45f2a14a1c62991f3bfde841ec1d70975c939c7a25ac979fe4b610460527f213628c29f15bbd90b6068c97cc56c820d52747c710c98a2d90683947696492e610480527f227d62025afea5f8538e5e8efed875d6dd541148952ccd97ee41815bab6052b56104a0527f2551d95fdbd4b6e86bcb7b50c7cbd17658a6537ede4aab7c99c5a46446c48ec16104c0527f1bf0715350dfd6407f3cbd0a6458c9346c977e8e118fd8b837ec3b89a4e5cb8c6104e0527f29fad6f5fe3b4cbda7d686445358b4ed7d7ff4ef960143a1aa01cbdad674dfa2610500527f06e7f9537369d0b35f64d077a187e96a4f53c61ca89b0d1ef078c17eb3c6513a610520527f1e5d4d40471590f8693bbc9a8f3af46d45e0791450760de0898365ebfcca8789610540527f24bf5522b051a0d2a8c5948c7a88306f89e48e7725d32d3dd877a54f5af1c0c5610560527f2e7c782aa827055d22a825a12589e3aaf8289187cb796070574b8f90587dca49610580527ec2a5bd6487c02a2f96a1d330cefd1a7a266315c9e6e49ee7f70f06c029f7806105a0527f25bd1235c5f09145c6509e5762740ed3efc44ae730ec4d609f434afb08e091426105c0527f2f04bce62daea8c1664fdf0d53b22cbe753bb5e414c5bbf3b62438052a1145b86105e0527f21245d6c0a4d2ff12b21a825f39f30e8f8cf9b259448d111183e975828539576610600527f16a409532c8a1693536e93b6ce9920bfc2e6796e8dfe404675a0cdf6ee77ee7a610620527f2f213c7a4c064a63d6a07366df0ea85aef9ad2125a188c3e656f95471e416a0a610640527f067a270bed55e72ffb3cfa39af3e5b8bcb4961d72bb301978af13c4ddc73e5df610660527f078525bbe53e795ca3068c3a6704b68f53ceb8e3ba139ffbc7795ef92c72f076610680527f304d07cf24a7834c3c1035735d9e073d80e8aa841ba088a900816b1e873b29576106a0527f15b61c27b87d9d23de2448a749177237445a84c075a3d3d8ce8ae78f3aa8393c6106c0527f1ebc19ae6eecb6fa6b0c1da10c0011b19cf62ee7fbd972700dfefc7788b2d0326106e0527f11bd5dead639344dd70549e4c0edfada85604b4306ea037b55d3a9860114d5b9610700527f1f785c25abe51724d7d59a1a57cadf375c86b54de720449ed12ea29246263c42610720527f168e3aa6787b3c62418db38604c5a63a68a6cafe8de26d7b2418364f8dee232f610740527f24a12a03d966d07f75ca394c1286f3b2d1974e2f21499d1bb1ee3e946b937d85610760527f20eb75f96f40bd9098cb58d48d143af1e8a01684657a886d6b7c606cc28fb7e6610780527f2d2151ca88b72168fa4af9bdd5a75c9085a8d7af5828ab0645076f420f54cf646107a0527f1f4593bec13738a97679a658fa8ab6d73cb732263ccec368e1a71268d3a623ea6107c0527f241443bd49645ada374ad237ea23adc2e81610ae9626eb935fe5c7d511e41fe36107e0527f2abf181df67e19bffd5575d260332b2077b054ac033d0ac46cf0e2a6298d5211610800527f2190473cd8fe7a84d8b6d06fd1e6ba5b820f956a4ed81c17021e2e0498305e92610820527e816a0d94457c743889c9e420c88c5c57ae82fe581123fde074f145e86bd676610840527f182b91b4fde1e75f0dd317fa4eca79869cee1de04c09dc8fc94a400905254326610860527f26e67fe49acec293e48f65510c1bf679df0e48900af3cb5edcce4b05003815d6610880527f14e813c83f9f3132955c2bf877f404bf106b0d3bcaac11340c8ceeeda33324366108a0527f0b1b51c3b8d66e6a57507a59acf5b93ab549e42811e8c43842a409f20530f8726108c0527f2000164157c64e1b621a8e3cfb4654dd45499181b40f2a5d5ec0d92d5cf9e3396108e0527f038c819cfdef47f850bfbcbe4331da4fad166d5776c2b57180d64207b39b4b7c610900527f17bcb0ac8008308c6803b7800f67567401d1027415daa5536c1b031e553a24a3610920527f27910e868e35985aa56fe2962b7df6cdde8db9dfa8d8b47e7bc4e61adfc1847f610940527f230bc4ce6de975218256ca05bdfb05c218582e0c797b2d9c9ce535403e0e7fb7610960527f30136d400b783ef49a9f87a3324acbc3c2115a75c45973a5d104b32fb52a668f610980527f2c87b5f2d2f4bef0e3a3e6427fbf15c93d44757bdc97586e44f41b6ceeee90516109a05260006109c08190526109e08190527f260e01b251f6f1c7e7ff4e580791dee8ea51d87a358e038b4efe30fac09383c1610a00527f0118c4d5b837bcc2bc89b5b398b5974e9f5944073b32078b7e231fec938883b0610a20527f04fc6369f7110fe3d25156c1bb9a72859cf2a04641f99ba4ee413c80da6a5fe4610a40527f22febda3c0c0632a56475b4214e5615e11e6dd3f96e6cea2854a87d4dacc5e55610a60527f0b5d56b77fe704e8e92338c0082f37e091126414c830e4c6922d5ac802d842d4613400526103a05182811461088557604051637667dc9b60e01b8152600481018290526024810184905260440160405180910390fd5b7f30644e72e131a029b85045b68181585d97816a916871ca8d3c208c16d87cfd477f30644e72e131a029b85045b68181585d2833e84879b9709143e1f593f00000016024600435018281350661122052826020820135066112005282604082013506611260528260608201350661124052826080820135066112a0528260a082013506611280528260c0820135066112e0528260e0820135066112c05282610100820135066113205282610120820135066113005282610140820135066113605282610160820135066113405282610180820135066113a052826101a08201350661138052826101c0820135066113e052826101e0820135066113c05282610200820135066114205282610220820135066114005282610240820135066114605282610260820135066114405282610280820135066114a052826102a08201350661148052816102c08201350661160052816102e0820135066116205281610300820135066116405281610320820135066116605281610340820135066116805281610360820135066116a05281610380820135066116c052816103a0820135066116e052816103c08201350661170052816103e0820135066117205281610400820135066117405281610420820135066117605281610440820135066117805281610460820135066117a05281610480820135066117c052816104a0820135066117e052816104c08201350661180052816104e0820135066119605281610500820135066119805281610520820135066119a05281610540820135066119c052816105608201350661184052816105808201350661186052816105a08201350661188052816105c0820135066118a052816105e0820135066118c05281610600820135066118e05281610620820135066119005281610640820135066119205281610660820135066119405281610680820135066119e052816106a08201350661200052816106c08201350661202052816106e0820135066120405281610700820135066120605281610720820135066120805281610740820135066120a05281610760820135066120c05281610780820135066120e052816107a08201350661210052816107c08201350661212052826107e08201350661232052826108008201350661230052826108208201350661236052826108408201350661234052506109c05115610ce7576024803501806109e05160051b0190508035602082013560441b81019050604082013560881b81019050606082013560cc1b81019050608082013560a083013560441b8101905060c083013560881b8101905060e083013560cc1b8101905061010083013561012084013560441b8101905061014084013560881b8101905061016084013560cc1b810190506101808401356101a085013560441b810190506101c085013560881b810190506101e085013560cc1b810190508361350052826135205281613540528061356052868110878410168783108886101616610ce1576375d4fa5360e11b60005260046000fd5b50505050505b6103805160e01b6000526103a05160e01b60045260086000208061358052602480350160206103a05102808260206135800137600435602401915060c0826135a083013760e0016135802083810661266081905290925090508281800961268052828161268051096126a05250806000526112e0516020526112c051604052611320516060526113005160805260a0600020905081810661260052806000526001602053506021600090812082810661262052815261136051602052611340516040526113a0516060526113805160805260a09020818106612640819052828180096134205282816134205109613440528281613440510961346052806134805250806000526113e0516020526113c05160405261142051606052611400516080526114605160a0526114405160c0526114a05160e052611480516101005261012060002090508181066126c052806126e0525061260051612620516103c051600180856001602480350160206103a0510281018360058a0984600c8b0999505b81831015610ea757823585811085169450858a82089050858183018909975085818c01880996505084888209905084888b099950602083019250610e68565b50505080610ec05763374a972f60e01b60005260046000fd5b50508161300052806130205250505050508081600161260051086126205109806103805160015b81811015610efc578483840992508001610ee7565b5050613100528181800990508181820961312052506126c05161038051819060015b81811015610f33578483840992508001610f1e565b50508061304052826001840382089050613400518084036103e051858286088684840992508687848808820990508684840992508687848808820990508687888686098808820990506103c051925086828609915086600188038708878485099450876001890389898b888d8b8c0909090896506130205194508493508782860994508488878709955085898388099650868a61312051890997508760206000526020805260206040528b8b8a0960605260028c036080528b60a0526020600060c0600060055afa61101057633e2529ef60e21b60005260046000fd5b60005198508b818a0990508b8b8a0998508b828a0991508b613120518a0998508b838a0992508b858a0998508b848a0993508b8a8a0998508b888a0997508b868a0998508b613020518d8b8c090998508b896130005109613060528b888b09613080528b848709613780528b8388096130a0528b826131005109613140528b8188096130c052505050505050505050505061264051506126005161262051828361190051840982611620510101846118e051850983611600510101098384611940518509836116605101018561192051860984611640510101098485868385096116a051096134805109858661198051870985611620510101876119605188098661160051010109925085866119c051870985611660510101876119a0518809866116405101010991508586878885870961208051096134805109870382089050856126405161348051096134805285868788613060518a0361208051086130c0510961348051098208905085612640516134805109613480528586878860018a036116a051086130a05109613480510982086136005250505050508061264051613480510961348052806117205161266051098182836120205161178051096116405108820890508161266051820990508182836120005161176051096116205108820890508161266051820990508182836119e0516117005109611600510882089050816118405183846126605161186051098586612680516118805109876126a0516118a05109080808826120c0518485612660516120e051098687612680516121005109886126a051612120510908080883846001612600510861262051098461262051866118c051870908935084818687612600518609860808925084838509935084856001612600510885099350846130a05161264051099250848385089350846116c0518509935084838603850893508481868761260051612060510961168051080892505050826130c05161342051098381850383089150836120a05183099150838461314051830983089150508261348051848386038508096136205250508061344051613480510961348052806116e0516116005109816117005161162051098261172051611640510983611740516116605109847f183227397098d014dc2822db40c0ac2e9419f4243cdcb848a1f0fac9f80000008687600389036117a0510888611760518a6116205161160051090909098586878889858a08880886088408611780510894505050505081828384856116605161160051086119e051870308611760510884600286036117a05108096126405109828384858685612040510887600189036117a051080985086117a05109613480510961364052505080613420516134805109613480526002810360038203826116005184036116205108836116205185036116405108846116405186036116605108856116605187036119e05108866134805188898888088a8b8b8a088c8a8e038e8c8d09080909099350868788612640516134805109898a8988088b8c8c8a088d8a8f038f8c8d090809090985089350868788613420516134805109898a8987088b8c8c89088d898f038f8b8c090809090985089350868788613440516134805109898a8986088b8c8c88088d888f038f8a8b090809090985089350505050836117c051820961366052505061346051613480518392500961348052806116205182036119e051088161204051612040510982611640516116405109836116e05185612040516116405109098485868384088785870888030886878788098889611620516119e0510861200051080908925050508261348051848561176051870360010884090990508261202051611640510883611640518503856116e05161204051090884858287611620518903612000510809868685090893505050828361264051613480510984856117605187036001088509099150826117e0518484840809613680525050806116205161162051098161164051611640510982611620518460118408098360048309915083600982099050836003840992508381850385848788611620516116205108612000510809089150508283846120205161164051088561164051611640510809840384856120005187036116205108850908915082613480518209905082836126405161348051098309915082611760518209905082611760518309915082836117e0518585850809613680510861368052505080613460516134805109613480528081611620516119e05109826120005161160051090881612020518303838461164051611620510985611660516116005109080882600160441b82099050826120405184038208905082828208905082611740518209905082600160441b830991508283612000516119e05109830891508261172051848561166051611640510886038508098361176051858661204051612020510887038761166051880808099250836117005185858786860808096136c0525050612000518291506140009009816119e0518208905081614000820990508161164051820890508161400082099050816116205182089050816140008209905081611600518208905081611660518303820890508161174051820990508161400061202051098261200051820890508261400082099050826119e05182089050826140008209905082611660518208905082614000820990508261164051820890508261204051840382089050826117605182099050826117205184838508096136e0525050806126605161164051098161162051820890508161266051820990508161160051820890508161266051820990508161178051820890508082611660518403830891508161374052826116005184036119e05108836116605185036120405108848560018703840883098586848803600108830991508585876126405189858b61264051890908090861372052856126605161202051099450856120005186089450856126605186099450856119e0518608945085612660518609945085858703612040510894508561164051870361202051089150858687878903600108840987858903600108099150858487036116605108868760018903830882099050868760018903880887099550866126405184099250868284089250866126405184099250868684089250866126405184099250868184089250508161370052505083611620518503612000510892508361164051850385868488036001088609089250836117005161372051099150838461174051850983089150838461176051613740510983089150836116e0518309915083846117a051613700510983089150836136c05183089250836136e05184089250836118005184099250836134805184099250826136a05283613440516134805109613480525050508061378051826136a0518461368051866136605188613640518a61362051613600510808080808096137608190526126e0516137a08190526137c0919091526102e460043501610520816137e03750506105606137a020818106612700526000819052600160205381602160002006612720526002602053816021600020066127405260036020538160216000200661276052600460205381602160002006612780526005602053816021600020066127a0526006602053816021600020066127c0526007602053816021600020066127e0526008602053816021600020066128005260096020538160216000200661282052600a6020538160216000200661284052600b6020538160216000200661286052600c6020538160216000200661288052600d602053816021600020066128a052600e602053816021600020066128c052600f602053816021600020066128e05260106020538160216000200661290052601160205381602160002006612920526012602053816021600020066129405260136020538160216000200661296052601460205381602160002006612980526015602053816021600020066129a0526016602053816021600020066129c0526017602053816021600020066129e052601860205381602160002006612a0052601960205381602160002006612a2052601a60205381602160002006612a4052601b60205381602160002006612a6052601c60205381602160002006612a8052601d60205381602160002006612aa052601d6020535060216000908120828106612ac05281526123205160205261230051604052612360516060526123405160805260a08120829006612b00526113c0516113e0518482800985600387838609088683840914935050816131605280602061316001525050611400516114205184828309856003878386090886838409148416935050816000528060205250506130405160405260406131a06060600060075afa16604061316060808160065afa81169050611440516114605184828309856003878386090886838409148416935050816000528060205250508161304051613040510960405260406131a06060600060075afa16604061316060808160065afa81169050611480516114a05184828309856003878386090886838409148416935050816000528060205250508161304051836130405161304051090960405260406131a06060600060075afa16604061316060808160065afa81169050611200516112205184828309856003878386090886838409148416935050816000528060205250508161270051836001612b0051080960405260406131a06060600060075afa16604061316060808160065afa81169050611240516112605184828309856003878386090886838409148416935050816000528060205250508161272051836001612b0051080960405260406131a06060600060075afa16604061316060808160065afa81169050611280516112a05184828309856003878386090886838409148416935050816000528060205250508161274051836001612b0051080960405260406131a06060600060075afa16604061316060808160065afa811690506112c0516112e05184828309856003878386090886838409148416935050816000528060205250508161276051836001612b0051080960405260406131a06060600060075afa16604061316060808160065afa81169050611300516113205184828309856003878386090886838409148416935050816000528060205250508161278051836001612b0051080960405260406131a06060600060075afa16604061316060808160065afa8116905061134051611360518482830985600387838609088683840914841693505081600052806020525050816127a051836001612b0051080960405260406131a06060600060075afa16604061316060808160065afa81169050611380516113a0518482830985600387838609088683840914841693505081600052806020525050816127c051836001612b0051080960405260406131a06060600060075afa16604061316060808160065afa81169050610400516104205184828309856003878386090886838409148416935050816000528060205250506127e05160405260406131a06060600060075afa16604061316060808160065afa81169050610440516104605184828309856003878386090886838409148416935050816000528060205250506128005160405260406131a06060600060075afa16604061316060808160065afa81169050610480516104a05184828309856003878386090886838409148416935050816000528060205250506128205160405260406131a06060600060075afa16604061316060808160065afa811690506104c0516104e05184828309856003878386090886838409148416935050816000528060205250506128405160405260406131a06060600060075afa16604061316060808160065afa81169050610500516105205184828309856003878386090886838409148416935050816000528060205250506128605160405260406131a06060600060075afa16604061316060808160065afa81169050610540516105605184828309856003878386090886838409148416935050816000528060205250506128805160405260406131a06060600060075afa16604061316060808160065afa81169050610580516105a05184828309856003878386090886838409148416935050816000528060205250506128a05160405260406131a06060600060075afa16604061316060808160065afa811690506105c0516105e05184828309856003878386090886838409148416935050816000528060205250506128c05160405260406131a06060600060075afa16604061316060808160065afa81169050610600516106205184828309856003878386090886838409148416935050816000528060205250506128e05160405260406131a06060600060075afa16604061316060808160065afa81169050610640516106605184828309856003878386090886838409148416935050816000528060205250506129005160405260406131a06060600060075afa16604061316060808160065afa81169050610680516106a05184828309856003878386090886838409148416935050816000528060205250506129205160405260406131a06060600060075afa16604061316060808160065afa811690506106c0516106e05184828309856003878386090886838409148416935050816000528060205250506129405160405260406131a06060600060075afa16604061316060808160065afa81169050610700516107205184828309856003878386090886838409148416935050816000528060205250506129605160405260406131a06060600060075afa16604061316060808160065afa81169050610740516107605184828309856003878386090886838409148416935050816000528060205250506129805160405260406131a06060600060075afa16604061316060808160065afa81169050610780516107a0518482830985600387838609088683840914841693505081600052806020525050816129a051836001612b0051080960405260406131a06060600060075afa16604061316060808160065afa811690506107c0516107e0518482830985600387838609088683840914841693505081600052806020525050816129c051836001612b0051080960405260406131a06060600060075afa16604061316060808160065afa8116905061080051610820518482830985600387838609088683840914841693505081600052806020525050816129e051836001612b0051080960405260406131a06060600060075afa16604061316060808160065afa811690506108405161086051848283098560038783860908868384091484169350508160005280602052505081612a0051836001612b0051080960405260406131a06060600060075afa16604061316060808160065afa81169050610880516108a0518482830985600387838609088683840914841693505081600052806020525050612a205160405260406131a06060600060075afa16604061316060808160065afa811690506108c0516108e0518482830985600387838609088683840914841693505081600052806020525050612a405160405260406131a06060600060075afa16604061316060808160065afa8116905061090051610920518482830985600387838609088683840914841693505081600052806020525050612a605160405260406131a06060600060075afa16604061316060808160065afa8116905061094051610960518482830985600387838609088683840914841693505081600052806020525050612a805160405260406131a06060600060075afa16604061316060808160065afa81169050610980516109a0518482830985600387838609088683840914841693505081600052806020525050612aa05160405260406131a06060600060075afa16604061316060808160065afa8116905081826116005184612b00516119e051090861270051098283846116205186612b00516120005109086127205109820890508283846116405186612b00516120205109086127405109820890508283846116605186612b00516120405109086127605109820890508283846116805186612b00516120605109086127805109820890508283846116a05186612b00516120805109086127a05109820890508283846116c05186612b00516120a05109086127c051098208905082836116e0516127e051098208905082836117005161280051098208905082836117205161282051098208905082836117405161284051098208905082836117605161286051098208905082836117805161288051098208905082836117a0516128a051098208905082836117c0516128c051098208905082836117e0516128e051098208905082836118005161290051098208905082836119605161292051098208905082836119805161294051098208905082836119a05161296051098208905082836119c0516129805109820890508283846118405186612b00516120c05109086129a05109820890508283846118605186612b00516120e05109086129c05109820890508283846118805186612b00516121005109086129e05109820890508283846118a05186612b0051612120510908612a0051098208905082836118c051612a2051098208905082836118e051612a40510982089050828361190051612a60510982089050828361192051612a80510982089050828361194051612aa0510982089050826137605182089050600160005260026020528083036040525060406131a06060600060075afa16604061316060808160065afa16613360819052612b00516126c05161230051612320518682800987600389838609088883840914955050816000528060205250508060405260406131a06060600060075afa831692506040613160608061316060065afa8316925061234051612360518682830987600389838609088883840914861695505081600052806020525050836103c05185838509096040525060406131a06060600060075afa821691506040613220608061316060065afa8216915061230051600052612320516020526123405160405261236051606052806080526040806060604060075afa8216915060406131e06080600060065afa82169150613200518403613200526109c05115612b135761350051613520518582830986600388838609088783840914851694505081600052806020525050828182096040526040606080600060075afa8216915061354051613560518582830986600388838609088783840914851694505081600052806020525050604060006060600060075afa821691506132205160a0526132405160c05260406132206080606060065afa821691506131e0516040526132005160605260406131e06080600060065afa821691505b5080612b2a5763f755f36960e01b60005260046000fd5b806133805261322051600052613240516020527f198e9393920d483a7260bfb731fb5d25f1aa493335a9e71297e485b7aef312c26040527f1800deef121f1e76426a00665e5c4479674322d4f75edadd46debd5cd992f6ed6060527f090689d0585ff075ec9e99ad690c3395bc4b313370b38ef355acdadcd122975b6080527f12c85ea5db8c6deb4aab71808dcb408fe3d1e7690c43d37b4ce6cc0166fa7daa60a0526131e05160c0526132005160e052610a005161010052610a205161012052610a405161014052610a60516101605260206000610180600060085afa9050806133a0526000516133c05250505061336051613380516133c0516133a051161616612c41576301c47f3b60e21b60005260046000fd5b600160005260206000f35b60008060008060408587031215612c6257600080fd5b843567ffffffffffffffff811115612c7957600080fd5b8501601f81018713612c8a57600080fd5b803567ffffffffffffffff811115612ca157600080fd5b876020828401011115612cb357600080fd5b60209182019550935085013567ffffffffffffffff811115612cd457600080fd5b8501601f81018713612ce557600080fd5b803567ffffffffffffffff811115612cfc57600080fd5b8760208260051b8401011115612d1157600080fd5b94979396506020019450505056fea2646970667358221220dc7ec8ac5e01f9e4c2c41296e22e15a74c3a504dd535cd3740316bb8c8bd864064736f6c634300081a0033","linkReferences":{}},"methodIdentifiers":{"SAFE_BLOCKS()":"5698d56e","btc_checkpoint_height()":"4646e09d","current_height()":"db44bef6","first_block()":"7bd75806","getBlockSafe(uint256)":"47e2dde7","getBlockUnsafe(uint256)":"63a05cf9","getMerkleRootSafe(uint256)":"d7e3de43","proposeBlocksToLongestChain(uint256,bytes32[],uint32[],bytes32[],bytes32[],uint32[],uint32[],uint32[],bytes[])":"f29f4770","proposeNewBlock(bytes32,uint32,bytes32,bytes32,uint32,uint32,uint32,bytes)":"8ab7ca06","verifier()":"2b7ac3f3"},"storageLayout":{"storage":[{"astId":47675,"contract":"src/HeaderStorage.sol:HeaderStorage","label":"verifier","offset":0,"slot":"0","type":"t_contract(UltraVerifier)48951"},{"astId":47680,"contract":"src/HeaderStorage.sol:HeaderStorage","label":"blockchain","offset":0,"slot":"1","type":"t_mapping(t_uint256,t_struct(Block)47315_storage)"},{"astId":47684,"contract":"src/HeaderStorage.sol:HeaderStorage","label":"btc_checkpoint_height","offset":0,"slot":"2","type":"t_uint256"},{"astId":47686,"contract":"src/HeaderStorage.sol:HeaderStorage","label":"current_height","offset":0,"slot":"3","type":"t_uint256"}],"types":{"t_bytes32":{"encoding":"inplace","label":"bytes32","numberOfBytes":"32"},"t_contract(UltraVerifier)48951":{"encoding":"inplace","label":"contract UltraVerifier","numberOfBytes":"20"},"t_mapping(t_uint256,t_struct(Block)47315_storage)":{"encoding":"mapping","key":"t_uint256","label":"mapping(uint256 => struct HeaderLib.Block)","numberOfBytes":"32","value":"t_struct(Block)47315_storage"},"t_struct(Block)47315_storage":{"encoding":"inplace","label":"struct HeaderLib.Block","numberOfBytes":"192","members":[{"astId":47302,"contract":"src/HeaderStorage.sol:HeaderStorage","label":"bits","offset":0,"slot":"0","type":"t_uint32"},{"astId":47304,"contract":"src/HeaderStorage.sol:HeaderStorage","label":"block_hash","offset":0,"slot":"1","type":"t_bytes32"},{"astId":47306,"contract":"src/HeaderStorage.sol:HeaderStorage","label":"merkle_root","offset":0,"slot":"2","type":"t_bytes32"},{"astId":47308,"contract":"src/HeaderStorage.sol:HeaderStorage","label":"nonce","offset":0,"slot":"3","type":"t_uint32"},{"astId":47310,"contract":"src/HeaderStorage.sol:HeaderStorage","label":"prev_block_hash","offset":0,"slot":"4","type":"t_bytes32"},{"astId":47312,"contract":"src/HeaderStorage.sol:HeaderStorage","label":"timestamp","offset":0,"slot":"5","type":"t_uint32"},{"astId":47314,"contract":"src/HeaderStorage.sol:HeaderStorage","label":"version","offset":4,"slot":"5","type":"t_uint32"}]},"t_uint256":{"encoding":"inplace","label":"uint256","numberOfBytes":"32"},"t_uint32":{"encoding":"inplace","label":"uint32","numberOfBytes":"4"}}},"id":26}