{"abi":[{"type":"constructor","inputs":[{"name":"headerStorageContractAddress","type":"address","internalType":"address"}],"stateMutability":"nonpayable"},{"type":"function","name":"HeaderStorageContract","inputs":[],"outputs":[{"name":"","type":"address","internalType":"contract HeaderStorage"}],"stateMutability":"view"},{"type":"function","name":"MAX_DEPOSIT","inputs":[],"outputs":[{"name":"","type":"uint256","internalType":"uint256"}],"stateMutability":"view"},{"type":"function","name":"MAX_DEPOSIT_OUTPUTS","inputs":[],"outputs":[{"name":"","type":"uint16","internalType":"uint16"}],"stateMutability":"view"},{"type":"function","name":"MIN_DEPOSIT","inputs":[],"outputs":[{"name":"","type":"uint64","internalType":"uint64"}],"stateMutability":"view"},{"type":"function","name":"MIN_ORDER_GAS_MULTIPLIER","inputs":[],"outputs":[{"name":"","type":"uint256","internalType":"uint256"}],"stateMutability":"view"},{"type":"function","name":"PROOF_GAS_COST","inputs":[],"outputs":[{"name":"","type":"uint256","internalType":"uint256"}],"stateMutability":"view"},{"type":"function","name":"RESERVATION_LOCKUP_PERIOD","inputs":[],"outputs":[{"name":"","type":"uint64","internalType":"uint64"}],"stateMutability":"view"},{"type":"function","name":"VerifierContract","inputs":[],"outputs":[{"name":"","type":"address","internalType":"contract UltraVerifier"}],"stateMutability":"view"},{"type":"function","name":"completedDeposits","inputs":[{"name":"","type":"address","internalType":"address"},{"name":"","type":"uint256","internalType":"uint256"}],"outputs":[{"name":"","type":"uint32","internalType":"uint32"}],"stateMutability":"view"},{"type":"function","name":"completedSwaps","inputs":[{"name":"","type":"uint256","internalType":"uint256"}],"outputs":[{"name":"ethPayoutAddress","type":"address","internalType":"address"},{"name":"btcSenderAddress","type":"string","internalType":"string"},{"name":"reservationTimestamp","type":"uint256","internalType":"uint256"},{"name":"nonce","type":"bytes32","internalType":"bytes32"},{"name":"depositsHash","type":"bytes32","internalType":"bytes32"},{"name":"completed","type":"bool","internalType":"bool"}],"stateMutability":"view"},{"type":"function","name":"depositLiquidity","inputs":[{"name":"btcPayoutAddress","type":"string","internalType":"string"},{"name":"btcExchangeRate","type":"uint64","internalType":"uint64"}],"outputs":[],"stateMutability":"payable"},{"type":"function","name":"getAvailableLiquidity","inputs":[{"name":"lpAddress","type":"address","internalType":"address"},{"name":"depositIndex","type":"uint256","internalType":"uint256"}],"outputs":[{"name":"","type":"uint256","internalType":"uint256"}],"stateMutability":"view"},{"type":"function","name":"getLiquidityDeposit","inputs":[{"name":"lpAddress","type":"address","internalType":"address"},{"name":"index","type":"uint256","internalType":"uint256"}],"outputs":[{"name":"","type":"tuple","internalType":"struct Escrow.LiquidityDeposit","components":[{"name":"ethDepositAmount","type":"uint256","internalType":"uint256"},{"name":"ethReservedAmounts","type":"uint256[]","internalType":"uint256[]"},{"name":"btcExchangeRate","type":"uint256","internalType":"uint256"},{"name":"btcPayoutAddress","type":"string","internalType":"string"},{"name":"depositStateHash","type":"bytes32","internalType":"bytes32"},{"name":"reservationTimestamps","type":"uint256[]","internalType":"uint256[]"}]}],"stateMutability":"view"},{"type":"function","name":"getLiquidityDepositsLength","inputs":[{"name":"lpAddress","type":"address","internalType":"address"}],"outputs":[{"name":"","type":"uint256","internalType":"uint256"}],"stateMutability":"view"},{"type":"function","name":"liquidityDeposits","inputs":[{"name":"","type":"address","internalType":"address"},{"name":"","type":"uint256","internalType":"uint256"}],"outputs":[{"name":"ethDepositAmount","type":"uint256","internalType":"uint256"},{"name":"btcExchangeRate","type":"uint256","internalType":"uint256"},{"name":"btcPayoutAddress","type":"string","internalType":"string"},{"name":"depositStateHash","type":"bytes32","internalType":"bytes32"}],"stateMutability":"view"},{"type":"function","name":"markDepositOverwritableTesting","inputs":[{"name":"index","type":"uint32","internalType":"uint32"}],"outputs":[],"stateMutability":"nonpayable"},{"type":"function","name":"protocolFee","inputs":[],"outputs":[{"name":"","type":"uint8","internalType":"uint8"}],"stateMutability":"view"},{"type":"function","name":"proverGasReward","inputs":[],"outputs":[{"name":"","type":"uint256","internalType":"uint256"}],"stateMutability":"view"},{"type":"function","name":"reserveLiquidity","inputs":[{"name":"lpAddressesToReserve","type":"address[]","internalType":"address[]"},{"name":"lpDepositIndexes","type":"uint32[]","internalType":"uint32[]"},{"name":"amountsToReserve","type":"uint256[]","internalType":"uint256[]"},{"name":"ethPayoutAddress","type":"address","internalType":"address"},{"name":"btcSenderAddress","type":"string","internalType":"string"}],"outputs":[],"stateMutability":"payable"},{"type":"function","name":"swapOrders","inputs":[{"name":"","type":"address","internalType":"address"},{"name":"","type":"uint256","internalType":"uint256"}],"outputs":[{"name":"ethPayoutAddress","type":"address","internalType":"address"},{"name":"btcSenderAddress","type":"string","internalType":"string"},{"name":"reservationTimestamp","type":"uint256","internalType":"uint256"},{"name":"nonce","type":"bytes32","internalType":"bytes32"},{"name":"depositsHash","type":"bytes32","internalType":"bytes32"},{"name":"completed","type":"bool","internalType":"bool"}],"stateMutability":"view"},{"type":"function","name":"treasuryFee","inputs":[],"outputs":[{"name":"","type":"uint8","internalType":"uint8"}],"stateMutability":"view"},{"type":"error","name":"DepositFailed","inputs":[]},{"type":"error","name":"DepositTooHigh","inputs":[]},{"type":"error","name":"DepositTooLow","inputs":[]},{"type":"error","name":"NotEnoughLiquidity","inputs":[]},{"type":"error","name":"ReservationAmountTooLow","inputs":[]},{"type":"error","name":"ReservationFeeTooLow","inputs":[]}],"bytecode":{"object":"0x60c06040526000805461ffff1916606417905566071afd498d0000600155600680546001600160a01b03191673f39fd6e51aad88f6f4ce6ab8827279cfffb9226617905534801561004f57600080fd5b50604051614b56380380614b5683398101604081905261006e916100bb565b60405161007a906100ae565b604051809103906000f080158015610096573d6000803e3d6000fd5b506001600160a01b039081166080521660a0526100eb565b612d7380611de383390190565b6000602082840312156100cd57600080fd5b81516001600160a01b03811681146100e457600080fd5b9392505050565b60805160a051611cd361011060003960006101560152600061035a0152611cd36000f3fe60806040526004361061012a5760003560e01c806389a11f7a116100ab578063cc32d1761161006f578063cc32d176146103e3578063dd5967c314610402578063e1e158a514610420578063eb6c75221461043b578063ed7df71a14610452578063f63574371461047257600080fd5b806389a11f7a1461031a5780638f205f4d146103485780639cdb8e5a1461037c578063a9d6dd70146103a4578063b0e21e8a146103b757600080fd5b8063359f1310116100f2578063359f13101461021b5780635f5d5b6a14610283578063686a67081461029857806372cdd117146102b857806379221fa2146102e857600080fd5b80630c19e6711461012f5780630fded547146101445780631302bff71461019557806316e342f9146101ca5780631e599f6d146101f7575b600080fd5b61014261013d36600461168f565b6104a8565b005b34801561015057600080fd5b506101787f000000000000000000000000000000000000000000000000000000000000000081565b6040516001600160a01b0390911681526020015b60405180910390f35b3480156101a157600080fd5b506101b56101b03660046117bc565b610b46565b60405163ffffffff909116815260200161018c565b3480156101d657600080fd5b506101ea6101e53660046117bc565b610b8f565b60405161018c9190611868565b34801561020357600080fd5b5061020d60015481565b60405190815260200161018c565b34801561022757600080fd5b506101426102363660046118dd565b3360009081526003602090815260408220805460018101825590835291206008820401805460079092166004026101000a63ffffffff818102199093169390921691909102919091179055565b34801561028f57600080fd5b5061020d600281565b3480156102a457600080fd5b5061020d6102b33660046117bc565b610d77565b3480156102c457600080fd5b506102d86102d33660046117bc565b610e4e565b60405161018c94939291906118ff565b3480156102f457600080fd5b506103086103033660046117bc565b610f23565b60405161018c9695949392919061192f565b34801561032657600080fd5b5061033061a8c081565b6040516001600160401b03909116815260200161018c565b34801561035457600080fd5b506101787f000000000000000000000000000000000000000000000000000000000000000081565b34801561038857600080fd5b50610391603281565b60405161ffff909116815260200161018c565b6101426103b236600461197a565b611012565b3480156103c357600080fd5b506000546103d19060ff1681565b60405160ff909116815260200161018c565b3480156103ef57600080fd5b506000546103d190610100900460ff1681565b34801561040e57600080fd5b5061020d692a5a058fc295ed00000081565b34801561042c57600080fd5b5061033066b1a2bc2ec5000081565b34801561044757600080fd5b5061020d620668a081565b34801561045e57600080fd5b5061030861046d3660046119d7565b611298565b34801561047e57600080fd5b5061020d61048d3660046119f0565b6001600160a01b031660009081526002602052604090205490565b6000805b84518110156104e4578481815181106104c7576104c7611a0b565b6020026020010151826104da9190611a37565b91506001016104ac565b5060015460026104f73a620668a0611a4a565b6105019190611a4a565b61050b9190611a37565b81101561052b576040516359cf7a8d60e11b815260040160405180910390fd5b60005461053e906127109060ff16611a61565b61054c9061ffff1682611a4a565b34101561056c57604051635658f5cf60e11b815260040160405180910390fd5b6006546040516000916001600160a01b03169034908381818185875af1925050503d80600081146105b9576040519150601f19603f3d011682016040523d82523d6000602084013e6105be565b606091505b50509050806105e0576040516379cacff160e01b815260040160405180910390fd5b60005b8751811015610812576000600260008a848151811061060457610604611a0b565b60200260200101516001600160a01b03166001600160a01b0316815260200190815260200160002088838151811061063e5761063e611a0b565b602002602001015163ffffffff168154811061065c5761065c611a0b565b9060005260206000209060060201905060006106b08a848151811061068357610683611a0b565b60200260200101518a858151811061069d5761069d611a0b565b602002602001015163ffffffff16610d77565b9050808884815181106106c5576106c5611a0b565b602002602001015111156106ec57604051634323a55560e01b815260040160405180910390fd5b60001960005b600584015481121561074b5761a8c06001600160401b031684600501828154811061071f5761071f611a0b565b9060005260206000200154426107359190611a93565b11156107435780915061074b565b6001016106f2565b5080600019146107b95788848151811061076757610767611a0b565b602002602001015183600101828154811061078457610784611a0b565b9060005260206000200181905550428360050182815481106107a8576107a8611a0b565b600091825260209091200155610807565b826001018985815181106107cf576107cf611a0b565b602090810291909101810151825460018181018555600094855283852090910191909155600586018054918201815583529120429101555b5050506001016105e3565b5050600554156109b857600580546000919061083090600190611a93565b8154811061084057610840611a0b565b600091825260209182902089516009909202019250610864918391908a01906112da565b50855161087a906001830190602089019061133f565b50845161089090600283019060208801906113e9565b506003810180546001600160a01b0319166001600160a01b038616179055600481016108bc8482611b2c565b50426005820181905581546040516108da9287928792602001611bea565b60408051601f19818403018152828252805160209182012060068501556001818401528151808403820181529282019091528151910120600782015560088101805460ff19169055600580548061093357610933611c21565b600082815260208120600019909201916009830201906109538282611424565b610961600183016000611445565b61096f600283016000611424565b6003820180546001600160a01b031916905561098f60048301600061146a565b50600060058201819055600682018190556007820155600801805460ff19169055905550610b3e565b6000604051806101200160405280888152602001878152602001868152602001856001600160a01b03168152602001848152602001428152602001858542604051602001610a0893929190611c37565b60408051601f1981840301815291815281516020928301208352805160018184015292909101910160408051601f198184030181529181528151602092830120835260009282018390526001600160a01b0388168352600482528220805460018101825590835291819020835180519495508594600990940290910192610a9292849201906112da565b506020828101518051610aab926001850192019061133f565b5060408201518051610ac79160028401916020909101906113e9565b5060608201516003820180546001600160a01b0319166001600160a01b0390921691909117905560808201516004820190610b029082611b2c565b5060a0820151600582015560c0820151600682015560e08201516007820155610100909101516008909101805460ff1916911515919091179055505b505050505050565b60036020528160005260406000208181548110610b6257600080fd5b9060005260206000209060089182820401919006600402915091509054906101000a900463ffffffff1681565b610bcb6040518060c001604052806000815260200160608152602001600081526020016060815260200160008019168152602001606081525090565b6001600160a01b0383166000908152600260205260409020805483908110610bf557610bf5611a0b565b90600052602060002090600602016040518060c00160405290816000820154815260200160018201805480602002602001604051908101604052809291908181526020018280548015610c6757602002820191906000526020600020905b815481526020019060010190808311610c53575b5050505050815260200160028201548152602001600382018054610c8a90611aa6565b80601f0160208091040260200160405190810160405280929190818152602001828054610cb690611aa6565b8015610d035780601f10610cd857610100808354040283529160200191610d03565b820191906000526020600020905b815481529060010190602001808311610ce657829003601f168201915b505050505081526020016004820154815260200160058201805480602002602001604051908101604052809291908181526020018280548015610d6557602002820191906000526020600020905b815481526020019060010190808311610d51575b50505050508152505090505b92915050565b6001600160a01b0382166000908152600260205260408120805482919084908110610da457610da4611a0b565b906000526020600020906006020190506000805b6001830154811015610e375761a8c06001600160401b0316836005018281548110610de557610de5611a0b565b906000526020600020015442610dfb9190611a93565b1015610e2f57826001018181548110610e1657610e16611a0b565b906000526020600020015482610e2c9190611a37565b91505b600101610db8565b508154610e45908290611a93565b95945050505050565b60026020528160005260406000208181548110610e6a57600080fd5b906000526020600020906006020160009150915050806000015490806002015490806003018054610e9a90611aa6565b80601f0160208091040260200160405190810160405280929190818152602001828054610ec690611aa6565b8015610f135780601f10610ee857610100808354040283529160200191610f13565b820191906000526020600020905b815481529060010190602001808311610ef657829003601f168201915b5050505050908060040154905084565b60046020528160005260406000208181548110610f3f57600080fd5b6000918252602090912060099091020160038101546004820180546001600160a01b039092169450919250610f7390611aa6565b80601f0160208091040260200160405190810160405280929190818152602001828054610f9f90611aa6565b8015610fec5780601f10610fc157610100808354040283529160200191610fec565b820191906000526020600020905b815481529060010190602001808311610fcf57829003601f168201915b505050506005830154600684015460078501546008909501549394919390925060ff1686565b3466b1a2bc2ec50000811161103a57604051632b7786bd60e21b815260040160405180910390fd5b692a5a058fc295ed00000081106110645760405163c066e1e960e01b815260040160405180910390fd5b336000908152600360209081526040808320905190929161108b9187918691889101611c6b565b60408051601f1981840301815291905280516020909101208254909150156111b757815460009083906110c090600190611a93565b815481106110d0576110d0611a0b565b60009182526020808320600883040154338452600290915260408320805460079093166004026101000a90910463ffffffff169350908390811061111657611116611a0b565b600091825260209091206001600160401b0380881660069093029091019182558716600282015590506003810161114d8882611b2c565b5060048101839055611163600182016000611424565b611171600582016000611424565b8380548061118157611181611c21565b600082815260209020600860001990920191820401805463ffffffff600460078516026101000a02191690559055506112919050565b336000908152600260209081526040808320815160c0810183526001600160401b03888116825283518681528086018552828601908152908a1682850152606082018b905260808201879052835186815280860190945260a08201939093528154600180820184559286529484902081516006909602019485559151805192949361124893928501929101906113e9565b5060408201516002820155606082015160038201906112679082611b2c565b506080820151600482015560a0820151805161128d9160058401916020909101906113e9565b5050505b5050505050565b600581815481106112a857600080fd5b6000918252602090912060099091020160038101546004820180546001600160a01b03909216935090610f7390611aa6565b82805482825590600052602060002090810192821561132f579160200282015b8281111561132f57825182546001600160a01b0319166001600160a01b039091161782556020909201916001909101906112fa565b5061133b9291506114a0565b5090565b8280548282559060005260206000209060070160089004810192821561132f5791602002820160005b838211156113ac57835183826101000a81548163ffffffff021916908363ffffffff1602179055509260200192600401602081600301049283019260010302611368565b80156113dc5782816101000a81549063ffffffff02191690556004016020816003010492830192600103026113ac565b505061133b9291506114a0565b82805482825590600052602060002090810192821561132f579160200282015b8281111561132f578251825591602001919060010190611409565b508054600082559060005260206000209081019061144291906114a0565b50565b50805460008255600701600890049060005260206000209081019061144291906114a0565b50805461147690611aa6565b6000825580601f10611486575050565b601f01602090049060005260206000209081019061144291905b5b8082111561133b57600081556001016114a1565b634e487b7160e01b600052604160045260246000fd5b604051601f8201601f191681016001600160401b03811182821017156114f3576114f36114b5565b604052919050565b60006001600160401b03821115611514576115146114b5565b5060051b60200190565b80356001600160a01b038116811461153557600080fd5b919050565b803563ffffffff8116811461153557600080fd5b600082601f83011261155f57600080fd5b813561157261156d826114fb565b6114cb565b8082825260208201915060208360051b86010192508583111561159457600080fd5b602085015b838110156115b8576115aa8161153a565b835260209283019201611599565b5095945050505050565b600082601f8301126115d357600080fd5b81356115e161156d826114fb565b8082825260208201915060208360051b86010192508583111561160357600080fd5b602085015b838110156115b8578035835260209283019201611608565b600082601f83011261163157600080fd5b81356001600160401b0381111561164a5761164a6114b5565b61165d601f8201601f19166020016114cb565b81815284602083860101111561167257600080fd5b816020850160208301376000918101602001919091529392505050565b600080600080600060a086880312156116a757600080fd5b85356001600160401b038111156116bd57600080fd5b8601601f810188136116ce57600080fd5b80356116dc61156d826114fb565b8082825260208201915060208360051b85010192508a8311156116fe57600080fd5b6020840193505b82841015611727576117168461151e565b825260209384019390910190611705565b975050505060208601356001600160401b0381111561174557600080fd5b6117518882890161154e565b94505060408601356001600160401b0381111561176d57600080fd5b611779888289016115c2565b9350506117886060870161151e565b915060808601356001600160401b038111156117a357600080fd5b6117af88828901611620565b9150509295509295909350565b600080604083850312156117cf57600080fd5b6117d88361151e565b946020939093013593505050565b600081518084526020840193506020830160005b828110156118185781518652602095860195909101906001016117fa565b5093949350505050565b6000815180845260005b818110156118485760208185018101518683018201520161182c565b506000602082860101526020601f19601f83011685010191505092915050565b60208152815160208201526000602083015160c0604084015261188e60e08401826117e6565b9050604084015160608401526060840151601f198483030160808501526118b58282611822565b915050608084015160a084015260a0840151601f198483030160c0850152610e4582826117e6565b6000602082840312156118ef57600080fd5b6118f88261153a565b9392505050565b84815283602082015260806040820152600061191e6080830185611822565b905082606083015295945050505050565b6001600160a01b038716815260c06020820181905260009061195390830188611822565b905085604083015284606083015283608083015282151560a0830152979650505050505050565b6000806040838503121561198d57600080fd5b82356001600160401b038111156119a357600080fd5b6119af85828601611620565b92505060208301356001600160401b03811681146119cc57600080fd5b809150509250929050565b6000602082840312156119e957600080fd5b5035919050565b600060208284031215611a0257600080fd5b6118f88261151e565b634e487b7160e01b600052603260045260246000fd5b634e487b7160e01b600052601160045260246000fd5b80820180821115610d7157610d71611a21565b8082028115828204841417610d7157610d71611a21565b600061ffff831680611a8357634e487b7160e01b600052601260045260246000fd5b8061ffff84160491505092915050565b81810381811115610d7157610d71611a21565b600181811c90821680611aba57607f821691505b602082108103611ada57634e487b7160e01b600052602260045260246000fd5b50919050565b601f821115611b2757806000526020600020601f840160051c81016020851015611b075750805b601f840160051c820191505b818110156112915760008155600101611b13565b505050565b81516001600160401b03811115611b4557611b456114b5565b611b5981611b538454611aa6565b84611ae0565b6020601f821160018114611b8d5760008315611b755750848201515b600019600385901b1c1916600184901b178455611291565b600084815260208120601f198516915b82811015611bbd5787850151825560209485019460019092019101611b9d565b5084821015611bdb5786840151600019600387901b60f8161c191681555b50505050600190811b01905550565b6001600160a01b0385168152608060208201819052600090611c0e90830186611822565b6040830194909452506060015292915050565b634e487b7160e01b600052603160045260246000fd5b6001600160a01b0384168152606060208201819052600090611c5b90830185611822565b9050826040830152949350505050565b606081526000611c7e6060830186611822565b90508360208301526001600160401b038316604083015294935050505056fea26469706673582212209fe74d520dacc22691f2f27e39c25d95acfd12697d936b7824015eeff08b119e64736f6c634300081a00336080604052348015600f57600080fd5b50612d548061001f6000396000f3fe608060405234801561001057600080fd5b50600436106100365760003560e01c8063937f6a101461003b578063ea50d0e41461006e575b600080fd5b6040517ff5fa80cacb9375eb9eeee1c502e5c6de004f2c823376dea75c44245aa30e825781526020015b60405180910390f35b61008161007c366004612c4b565b610091565b6040519015158152602001610065565b620800006103805260006103a08190527f2260e724844bca5251829353968e4915305258418357473a5c1d597f613f6cbd6103c0527f3064486657634403844b0eac78ca882cfd284341fcb0615a15cfcd17b14d82016103e0527f2c94a2e2f4ecb48042ef9075bf0c7d87a9c154b1cba67f1e40ea18ca7af45119610400527f1d2aea9420462be3109570a7789970b5f7f22c2029207b0ba9ff84cb800f9232610420527f2d4dbf184581151b5809cdaf09202d60fac6284c44feb17307a38d1b3e82f770610440527f0df400d2b8fc2cdb07cdb2ec4c4168034acca361c3613e2fb0d7d4e89d5805aa610460527f19e69b464e4e12e18899a07ec97f4420e03171bba9979214328b2e62b511db27610480527f1521d1deb3014ff4f231acf766c5131ca92952a2c37975d2e301d6eda19b4be46104a0527f0ffefd10fdd34084708f4c617d01512e9de8bf899f471eb127b42c7152fa50e56104c0527f1def24b28f5f3fa9a67b7acfe0e883819124f954d65f98eb74f2c4381c8f097d6104e0527f0a827014780c762ac1481753a2b18708a96d527cf1f81d77df2e8472ee189535610500527f12e8accb7494b40df0a1ed9eab64b8472184367131b16ebb30705005e80a7a55610520527f10427c60909968b30a3f3b6521d8a5cff10037d0f9219f6770b6a89c651bfa42610540527f1e49f1d2ed413b802f7fdde25d28c3a60588a48615f46060611593c9ce95452d610560527f04f7a5d7c67d6a33555a5004f31152e6cc3344a3aae4b86072f62eab63642099610580527f2dbe219b524830846ff5cbc500b3792a339cb6d5a643dc016081d4913defcb9b6105a0527f10e957b90c4984a10df09157a9320a5c5ec0583ab4e583d910b354ff28992dbb6105c0527f22e661ff226d17a40d33edc6bcf103276ec07a4714b08e37cafaec951fa258b76105e0527f0346eb76deee9a3ae7b350f402a778b1d6d269fccd2036db0ec5fe39439b1e9a610600527f12b9c69aa4d51eb3920484e5f218388542023c239f7cb66db4175af241497622610620527f243b0f849f3b9e9a1b8259eae3f97604d0d9b985c58e7fb4744b31b39c41aff1610640527f13bf31d264ba459fda33ac3c1bacd1a9de72b63d9786a9ed4a2a884e9a43603e610660527f2fe07e0ddff80169131dfa9728490b8f9111a2d3102e4d95d42dd762b19e568e610680527f0e038456c0d613c90a69f07b27246156ab26e3aec9d146feb8b9d537f88b0fbb6106a0527f2924ba334126d097cf42a0653b8faa11fbee8504abacddb36860e1d931def8936106c0527f2c46c552a62a3d21a72bef8786ff02c06eae4dd6140ea05700df25e9a6e823a46106e0527f1f8d3a05eb5c8ad55f1d7807a046033f52397eb844946300f51bc50e65d1c0ae610700527f19fcaf5af6f58e430b2d5ba60140f7fbe044e2101f1c7a845eceb31747d48f85610720527f0d1a3883a5d855ea41ee0ccdc5fb49d505b1f5c95f127625c954d7a5dd1dfd20610740527f0ff3d5725cac92b1423f6cd2588cba8777531df2e9466b401b637c61cf591769610760527f235e6b71162779705f11dd4214c91d825ff6d9bf2079e78e1e9cf1026c695820610780527f12b31643d39815eda9ee95b8d89baf35c72eae630178a9e62104d1522eeb3b5f6107a0527f0c7c2f014184f0e87efdd2b19be428428e64e9864f36cbc1acf3acf6574173d46107c0527f2c00b809037456203e4a5478599a8507ed8a27ae2db87b41ab3393a22a7fdb496107e0527f21be7b1e10001274afc03978440837c7d52c3470a2f86b183edb35381e56b23c610800527f24a51b9adbd7a5616fe7d152d8efa21fab51b6372c8fe05669d74d9b7a573313610820527f0f7b37f9737b0707f363bc82e5cc2e6a27f7b3284de813ddbc2c5f005f74c0c9610840527f13103e6631f5ed416710e881f51a41a67a04bf2ab5ef76822c95001354e1f8cf610860527f2225292dff393e43cb41536045cdd97aa88584ed415e51aaa6a312e90649da67610880527f0843e3683afbfd95685be5562c1179b833dff54ff5fc3e513aed5f14a64080cd6108a0527f2519523a1ee72d455f88de1f68fb8dae53c1a8116a7d11013a13020af94cd3c66108c0527f1fb40b481d438641799b008b425d43d3f63d0fb9601142d3e77fa1bc0df1e86c6108e0527f12fb2ba1180159d808f006f45310d43e13c0329838eba780dd070f08de1d9b5d610900527f1bdae41a40508b782ef1614cd4ed79686be89b5947528cea2c1c6fe58fe879ca610920527f2291132e54d8615169c3d93167c5397dbf54a26d018787c93a22bc409c10245e610940527f0d5468034ff9c44fb43e01e40a97a1793ccc2a086e0dcb2736e8861d5cf38e53610960527f1c98f2add6de32b1b13f4dff5fd70c4a7e5d8e650a0f242fb169190a5f904721610980527f036801dee66c1575aafee468ea2e0e55de823b67e91e0f681ec3d7832a8c6b4f6109a0526109c08190526109e08190527f260e01b251f6f1c7e7ff4e580791dee8ea51d87a358e038b4efe30fac09383c1610a00527f0118c4d5b837bcc2bc89b5b398b5974e9f5944073b32078b7e231fec938883b0610a20527f04fc6369f7110fe3d25156c1bb9a72859cf2a04641f99ba4ee413c80da6a5fe4610a40527f22febda3c0c0632a56475b4214e5615e11e6dd3f96e6cea2854a87d4dacc5e55610a60527f06e402c0a314fb67a15cf806664ae1b722dbc0efe66e6c81d98f9924ca5353216134005280821561088457604051637667dc9b60e01b8152600481018290526024810184905260440160405180910390fd5b7f30644e72e131a029b85045b68181585d97816a916871ca8d3c208c16d87cfd477f30644e72e131a029b85045b68181585d2833e84879b9709143e1f593f00000016024600435018281350661122052826020820135066112005282604082013506611260528260608201350661124052826080820135066112a0528260a082013506611280528260c0820135066112e0528260e0820135066112c05282610100820135066113205282610120820135066113005282610140820135066113605282610160820135066113405282610180820135066113a052826101a08201350661138052826101c0820135066113e052826101e0820135066113c05282610200820135066114205282610220820135066114005282610240820135066114605282610260820135066114405282610280820135066114a052826102a08201350661148052816102c08201350661160052816102e0820135066116205281610300820135066116405281610320820135066116605281610340820135066116805281610360820135066116a05281610380820135066116c052816103a0820135066116e052816103c08201350661170052816103e0820135066117205281610400820135066117405281610420820135066117605281610440820135066117805281610460820135066117a05281610480820135066117c052816104a0820135066117e052816104c08201350661180052816104e0820135066119605281610500820135066119805281610520820135066119a05281610540820135066119c052816105608201350661184052816105808201350661186052816105a08201350661188052816105c0820135066118a052816105e0820135066118c05281610600820135066118e05281610620820135066119005281610640820135066119205281610660820135066119405281610680820135066119e052816106a08201350661200052816106c08201350661202052816106e0820135066120405281610700820135066120605281610720820135066120805281610740820135066120a05281610760820135066120c05281610780820135066120e052816107a08201350661210052816107c08201350661212052826107e08201350661232052826108008201350661230052826108208201350661236052826108408201350661234052506109c05115610ce6576024803501806109e05160051b0190508035602082013560441b81019050604082013560881b81019050606082013560cc1b81019050608082013560a083013560441b8101905060c083013560881b8101905060e083013560cc1b8101905061010083013561012084013560441b8101905061014084013560881b8101905061016084013560cc1b810190506101808401356101a085013560441b810190506101c085013560881b810190506101e085013560cc1b810190508361350052826135205281613540528061356052868110878410168783108886101616610ce0576375d4fa5360e11b60005260046000fd5b50505050505b6103805160e01b6000526103a05160e01b60045260086000208061358052602480350160206103a05102808260206135800137600435602401915060c0826135a083013760e0016135802083810661266081905290925090508281800961268052828161268051096126a05250806000526112e0516020526112c051604052611320516060526113005160805260a0600020905081810661260052806000526001602053506021600090812082810661262052815261136051602052611340516040526113a0516060526113805160805260a09020818106612640819052828180096134205282816134205109613440528281613440510961346052806134805250806000526113e0516020526113c05160405261142051606052611400516080526114605160a0526114405160c0526114a05160e052611480516101005261012060002090508181066126c052806126e0525061260051612620516103c051600180856001602480350160206103a0510281018360058a0984600c8b0999505b81831015610ea657823585811085169450858a82089050858183018909975085818c01880996505084888209905084888b099950602083019250610e67565b50505080610ebf5763374a972f60e01b60005260046000fd5b50508161300052806130205250505050508081600161260051086126205109806103805160015b81811015610efb578483840992508001610ee6565b5050613100528181800990508181820961312052506126c05161038051819060015b81811015610f32578483840992508001610f1d565b50508061304052826001840382089050613400518084036103e051858286088684840992508687848808820990508684840992508687848808820990508687888686098808820990506103c051925086828609915086600188038708878485099450876001890389898b888d8b8c0909090896506130205194508493508782860994508488878709955085898388099650868a61312051890997508760206000526020805260206040528b8b8a0960605260028c036080528b60a0526020600060c0600060055afa61100f57633e2529ef60e21b60005260046000fd5b60005198508b818a0990508b8b8a0998508b828a0991508b613120518a0998508b838a0992508b858a0998508b848a0993508b8a8a0998508b888a0997508b868a0998508b613020518d8b8c090998508b896130005109613060528b888b09613080528b848709613780528b8388096130a0528b826131005109613140528b8188096130c052505050505050505050505061264051506126005161262051828361190051840982611620510101846118e051850983611600510101098384611940518509836116605101018561192051860984611640510101098485868385096116a051096134805109858661198051870985611620510101876119605188098661160051010109925085866119c051870985611660510101876119a0518809866116405101010991508586878885870961208051096134805109870382089050856126405161348051096134805285868788613060518a0361208051086130c0510961348051098208905085612640516134805109613480528586878860018a036116a051086130a05109613480510982086136005250505050508061264051613480510961348052806117205161266051098182836120205161178051096116405108820890508161266051820990508182836120005161176051096116205108820890508161266051820990508182836119e0516117005109611600510882089050816118405183846126605161186051098586612680516118805109876126a0516118a05109080808826120c0518485612660516120e051098687612680516121005109886126a051612120510908080883846001612600510861262051098461262051866118c051870908935084818687612600518609860808925084838509935084856001612600510885099350846130a05161264051099250848385089350846116c0518509935084838603850893508481868761260051612060510961168051080892505050826130c05161342051098381850383089150836120a05183099150838461314051830983089150508261348051848386038508096136205250508061344051613480510961348052806116e0516116005109816117005161162051098261172051611640510983611740516116605109847f183227397098d014dc2822db40c0ac2e9419f4243cdcb848a1f0fac9f80000008687600389036117a0510888611760518a6116205161160051090909098586878889858a08880886088408611780510894505050505081828384856116605161160051086119e051870308611760510884600286036117a05108096126405109828384858685612040510887600189036117a051080985086117a05109613480510961364052505080613420516134805109613480526002810360038203826116005184036116205108836116205185036116405108846116405186036116605108856116605187036119e05108866134805188898888088a8b8b8a088c8a8e038e8c8d09080909099350868788612640516134805109898a8988088b8c8c8a088d8a8f038f8c8d090809090985089350868788613420516134805109898a8987088b8c8c89088d898f038f8b8c090809090985089350868788613440516134805109898a8986088b8c8c88088d888f038f8a8b090809090985089350505050836117c051820961366052505061346051613480518392500961348052806116205182036119e051088161204051612040510982611640516116405109836116e05185612040516116405109098485868384088785870888030886878788098889611620516119e0510861200051080908925050508261348051848561176051870360010884090990508261202051611640510883611640518503856116e05161204051090884858287611620518903612000510809868685090893505050828361264051613480510984856117605187036001088509099150826117e0518484840809613680525050806116205161162051098161164051611640510982611620518460118408098360048309915083600982099050836003840992508381850385848788611620516116205108612000510809089150508283846120205161164051088561164051611640510809840384856120005187036116205108850908915082613480518209905082836126405161348051098309915082611760518209905082611760518309915082836117e0518585850809613680510861368052505080613460516134805109613480528081611620516119e05109826120005161160051090881612020518303838461164051611620510985611660516116005109080882600160441b82099050826120405184038208905082828208905082611740518209905082600160441b830991508283612000516119e05109830891508261172051848561166051611640510886038508098361176051858661204051612020510887038761166051880808099250836117005185858786860808096136c0525050612000518291506140009009816119e0518208905081614000820990508161164051820890508161400082099050816116205182089050816140008209905081611600518208905081611660518303820890508161174051820990508161400061202051098261200051820890508261400082099050826119e05182089050826140008209905082611660518208905082614000820990508261164051820890508261204051840382089050826117605182099050826117205184838508096136e0525050806126605161164051098161162051820890508161266051820990508161160051820890508161266051820990508161178051820890508082611660518403830891508161374052826116005184036119e05108836116605185036120405108848560018703840883098586848803600108830991508585876126405189858b61264051890908090861372052856126605161202051099450856120005186089450856126605186099450856119e0518608945085612660518609945085858703612040510894508561164051870361202051089150858687878903600108840987858903600108099150858487036116605108868760018903830882099050868760018903880887099550866126405184099250868284089250866126405184099250868684089250866126405184099250868184089250508161370052505083611620518503612000510892508361164051850385868488036001088609089250836117005161372051099150838461174051850983089150838461176051613740510983089150836116e0518309915083846117a051613700510983089150836136c05183089250836136e05184089250836118005184099250836134805184099250826136a05283613440516134805109613480525050508061378051826136a0518461368051866136605188613640518a61362051613600510808080808096137608190526126e0516137a08190526137c0919091526102e460043501610520816137e03750506105606137a020818106612700526000819052600160205381602160002006612720526002602053816021600020066127405260036020538160216000200661276052600460205381602160002006612780526005602053816021600020066127a0526006602053816021600020066127c0526007602053816021600020066127e0526008602053816021600020066128005260096020538160216000200661282052600a6020538160216000200661284052600b6020538160216000200661286052600c6020538160216000200661288052600d602053816021600020066128a052600e602053816021600020066128c052600f602053816021600020066128e05260106020538160216000200661290052601160205381602160002006612920526012602053816021600020066129405260136020538160216000200661296052601460205381602160002006612980526015602053816021600020066129a0526016602053816021600020066129c0526017602053816021600020066129e052601860205381602160002006612a0052601960205381602160002006612a2052601a60205381602160002006612a4052601b60205381602160002006612a6052601c60205381602160002006612a8052601d60205381602160002006612aa052601d6020535060216000908120828106612ac05281526123205160205261230051604052612360516060526123405160805260a08120829006612b00526113c0516113e0518482800985600387838609088683840914935050816131605280602061316001525050611400516114205184828309856003878386090886838409148416935050816000528060205250506130405160405260406131a06060600060075afa16604061316060808160065afa81169050611440516114605184828309856003878386090886838409148416935050816000528060205250508161304051613040510960405260406131a06060600060075afa16604061316060808160065afa81169050611480516114a05184828309856003878386090886838409148416935050816000528060205250508161304051836130405161304051090960405260406131a06060600060075afa16604061316060808160065afa81169050611200516112205184828309856003878386090886838409148416935050816000528060205250508161270051836001612b0051080960405260406131a06060600060075afa16604061316060808160065afa81169050611240516112605184828309856003878386090886838409148416935050816000528060205250508161272051836001612b0051080960405260406131a06060600060075afa16604061316060808160065afa81169050611280516112a05184828309856003878386090886838409148416935050816000528060205250508161274051836001612b0051080960405260406131a06060600060075afa16604061316060808160065afa811690506112c0516112e05184828309856003878386090886838409148416935050816000528060205250508161276051836001612b0051080960405260406131a06060600060075afa16604061316060808160065afa81169050611300516113205184828309856003878386090886838409148416935050816000528060205250508161278051836001612b0051080960405260406131a06060600060075afa16604061316060808160065afa8116905061134051611360518482830985600387838609088683840914841693505081600052806020525050816127a051836001612b0051080960405260406131a06060600060075afa16604061316060808160065afa81169050611380516113a0518482830985600387838609088683840914841693505081600052806020525050816127c051836001612b0051080960405260406131a06060600060075afa16604061316060808160065afa81169050610400516104205184828309856003878386090886838409148416935050816000528060205250506127e05160405260406131a06060600060075afa16604061316060808160065afa81169050610440516104605184828309856003878386090886838409148416935050816000528060205250506128005160405260406131a06060600060075afa16604061316060808160065afa81169050610480516104a05184828309856003878386090886838409148416935050816000528060205250506128205160405260406131a06060600060075afa16604061316060808160065afa811690506104c0516104e05184828309856003878386090886838409148416935050816000528060205250506128405160405260406131a06060600060075afa16604061316060808160065afa81169050610500516105205184828309856003878386090886838409148416935050816000528060205250506128605160405260406131a06060600060075afa16604061316060808160065afa81169050610540516105605184828309856003878386090886838409148416935050816000528060205250506128805160405260406131a06060600060075afa16604061316060808160065afa81169050610580516105a05184828309856003878386090886838409148416935050816000528060205250506128a05160405260406131a06060600060075afa16604061316060808160065afa811690506105c0516105e05184828309856003878386090886838409148416935050816000528060205250506128c05160405260406131a06060600060075afa16604061316060808160065afa81169050610600516106205184828309856003878386090886838409148416935050816000528060205250506128e05160405260406131a06060600060075afa16604061316060808160065afa81169050610640516106605184828309856003878386090886838409148416935050816000528060205250506129005160405260406131a06060600060075afa16604061316060808160065afa81169050610680516106a05184828309856003878386090886838409148416935050816000528060205250506129205160405260406131a06060600060075afa16604061316060808160065afa811690506106c0516106e05184828309856003878386090886838409148416935050816000528060205250506129405160405260406131a06060600060075afa16604061316060808160065afa81169050610700516107205184828309856003878386090886838409148416935050816000528060205250506129605160405260406131a06060600060075afa16604061316060808160065afa81169050610740516107605184828309856003878386090886838409148416935050816000528060205250506129805160405260406131a06060600060075afa16604061316060808160065afa81169050610780516107a0518482830985600387838609088683840914841693505081600052806020525050816129a051836001612b0051080960405260406131a06060600060075afa16604061316060808160065afa811690506107c0516107e0518482830985600387838609088683840914841693505081600052806020525050816129c051836001612b0051080960405260406131a06060600060075afa16604061316060808160065afa8116905061080051610820518482830985600387838609088683840914841693505081600052806020525050816129e051836001612b0051080960405260406131a06060600060075afa16604061316060808160065afa811690506108405161086051848283098560038783860908868384091484169350508160005280602052505081612a0051836001612b0051080960405260406131a06060600060075afa16604061316060808160065afa81169050610880516108a0518482830985600387838609088683840914841693505081600052806020525050612a205160405260406131a06060600060075afa16604061316060808160065afa811690506108c0516108e0518482830985600387838609088683840914841693505081600052806020525050612a405160405260406131a06060600060075afa16604061316060808160065afa8116905061090051610920518482830985600387838609088683840914841693505081600052806020525050612a605160405260406131a06060600060075afa16604061316060808160065afa8116905061094051610960518482830985600387838609088683840914841693505081600052806020525050612a805160405260406131a06060600060075afa16604061316060808160065afa81169050610980516109a0518482830985600387838609088683840914841693505081600052806020525050612aa05160405260406131a06060600060075afa16604061316060808160065afa8116905081826116005184612b00516119e051090861270051098283846116205186612b00516120005109086127205109820890508283846116405186612b00516120205109086127405109820890508283846116605186612b00516120405109086127605109820890508283846116805186612b00516120605109086127805109820890508283846116a05186612b00516120805109086127a05109820890508283846116c05186612b00516120a05109086127c051098208905082836116e0516127e051098208905082836117005161280051098208905082836117205161282051098208905082836117405161284051098208905082836117605161286051098208905082836117805161288051098208905082836117a0516128a051098208905082836117c0516128c051098208905082836117e0516128e051098208905082836118005161290051098208905082836119605161292051098208905082836119805161294051098208905082836119a05161296051098208905082836119c0516129805109820890508283846118405186612b00516120c05109086129a05109820890508283846118605186612b00516120e05109086129c05109820890508283846118805186612b00516121005109086129e05109820890508283846118a05186612b0051612120510908612a0051098208905082836118c051612a2051098208905082836118e051612a40510982089050828361190051612a60510982089050828361192051612a80510982089050828361194051612aa0510982089050826137605182089050600160005260026020528083036040525060406131a06060600060075afa16604061316060808160065afa16613360819052612b00516126c05161230051612320518682800987600389838609088883840914955050816000528060205250508060405260406131a06060600060075afa831692506040613160608061316060065afa8316925061234051612360518682830987600389838609088883840914861695505081600052806020525050836103c05185838509096040525060406131a06060600060075afa821691506040613220608061316060065afa8216915061230051600052612320516020526123405160405261236051606052806080526040806060604060075afa8216915060406131e06080600060065afa82169150613200518403613200526109c05115612b125761350051613520518582830986600388838609088783840914851694505081600052806020525050828182096040526040606080600060075afa8216915061354051613560518582830986600388838609088783840914851694505081600052806020525050604060006060600060075afa821691506132205160a0526132405160c05260406132206080606060065afa821691506131e0516040526132005160605260406131e06080600060065afa821691505b5080612b295763f755f36960e01b60005260046000fd5b806133805261322051600052613240516020527f198e9393920d483a7260bfb731fb5d25f1aa493335a9e71297e485b7aef312c26040527f1800deef121f1e76426a00665e5c4479674322d4f75edadd46debd5cd992f6ed6060527f090689d0585ff075ec9e99ad690c3395bc4b313370b38ef355acdadcd122975b6080527f12c85ea5db8c6deb4aab71808dcb408fe3d1e7690c43d37b4ce6cc0166fa7daa60a0526131e05160c0526132005160e052610a005161010052610a205161012052610a405161014052610a60516101605260206000610180600060085afa9050806133a0526000516133c05250505061336051613380516133c0516133a051161616612c40576301c47f3b60e21b60005260046000fd5b600160005260206000f35b60008060008060408587031215612c6157600080fd5b843567ffffffffffffffff811115612c7857600080fd5b8501601f81018713612c8957600080fd5b803567ffffffffffffffff811115612ca057600080fd5b876020828401011115612cb257600080fd5b60209182019550935085013567ffffffffffffffff811115612cd357600080fd5b8501601f81018713612ce457600080fd5b803567ffffffffffffffff811115612cfb57600080fd5b8760208260051b8401011115612d1057600080fd5b94979396506020019450505056fea264697066735822122083330b6e29364b3b59c1229e1890b728a578d4a298b109c472353da6d5fc774664736f6c634300081a0033","linkReferences":{}},"methodIdentifiers":{"HeaderStorageContract()":"0fded547","MAX_DEPOSIT()":"dd5967c3","MAX_DEPOSIT_OUTPUTS()":"9cdb8e5a","MIN_DEPOSIT()":"e1e158a5","MIN_ORDER_GAS_MULTIPLIER()":"5f5d5b6a","PROOF_GAS_COST()":"eb6c7522","RESERVATION_LOCKUP_PERIOD()":"89a11f7a","VerifierContract()":"8f205f4d","completedDeposits(address,uint256)":"1302bff7","completedSwaps(uint256)":"ed7df71a","depositLiquidity(string,uint64)":"a9d6dd70","getAvailableLiquidity(address,uint256)":"686a6708","getLiquidityDeposit(address,uint256)":"16e342f9","getLiquidityDepositsLength(address)":"f6357437","liquidityDeposits(address,uint256)":"72cdd117","markDepositOverwritableTesting(uint32)":"359f1310","protocolFee()":"b0e21e8a","proverGasReward()":"1e599f6d","reserveLiquidity(address[],uint32[],uint256[],address,string)":"0c19e671","swapOrders(address,uint256)":"79221fa2","treasuryFee()":"cc32d176"},"storageLayout":{"storage":[{"astId":46648,"contract":"src/Escrow.sol:Escrow","label":"protocolFee","offset":0,"slot":"0","type":"t_uint8"},{"astId":46651,"contract":"src/Escrow.sol:Escrow","label":"treasuryFee","offset":1,"slot":"0","type":"t_uint8"},{"astId":46654,"contract":"src/Escrow.sol:Escrow","label":"proverGasReward","offset":0,"slot":"1","type":"t_uint256"},{"astId":46702,"contract":"src/Escrow.sol:Escrow","label":"liquidityDeposits","offset":0,"slot":"2","type":"t_mapping(t_address,t_array(t_struct(LiquidityDeposit)46674_storage)dyn_storage)"},{"astId":46707,"contract":"src/Escrow.sol:Escrow","label":"completedDeposits","offset":0,"slot":"3","type":"t_mapping(t_address,t_array(t_uint32)dyn_storage)"},{"astId":46713,"contract":"src/Escrow.sol:Escrow","label":"swapOrders","offset":0,"slot":"4","type":"t_mapping(t_address,t_array(t_struct(SwapOrder)46696_storage)dyn_storage)"},{"astId":46717,"contract":"src/Escrow.sol:Escrow","label":"completedSwaps","offset":0,"slot":"5","type":"t_array(t_struct(SwapOrder)46696_storage)dyn_storage"},{"astId":46729,"contract":"src/Escrow.sol:Escrow","label":"protocolAddress","offset":0,"slot":"6","type":"t_address_payable"}],"types":{"t_address":{"encoding":"inplace","label":"address","numberOfBytes":"20"},"t_address_payable":{"encoding":"inplace","label":"address payable","numberOfBytes":"20"},"t_array(t_address)dyn_storage":{"encoding":"dynamic_array","label":"address[]","numberOfBytes":"32","base":"t_address"},"t_array(t_struct(LiquidityDeposit)46674_storage)dyn_storage":{"encoding":"dynamic_array","label":"struct Escrow.LiquidityDeposit[]","numberOfBytes":"32","base":"t_struct(LiquidityDeposit)46674_storage"},"t_array(t_struct(SwapOrder)46696_storage)dyn_storage":{"encoding":"dynamic_array","label":"struct Escrow.SwapOrder[]","numberOfBytes":"32","base":"t_struct(SwapOrder)46696_storage"},"t_array(t_uint256)dyn_storage":{"encoding":"dynamic_array","label":"uint256[]","numberOfBytes":"32","base":"t_uint256"},"t_array(t_uint32)dyn_storage":{"encoding":"dynamic_array","label":"uint32[]","numberOfBytes":"32","base":"t_uint32"},"t_bool":{"encoding":"inplace","label":"bool","numberOfBytes":"1"},"t_bytes32":{"encoding":"inplace","label":"bytes32","numberOfBytes":"32"},"t_mapping(t_address,t_array(t_struct(LiquidityDeposit)46674_storage)dyn_storage)":{"encoding":"mapping","key":"t_address","label":"mapping(address => struct Escrow.LiquidityDeposit[])","numberOfBytes":"32","value":"t_array(t_struct(LiquidityDeposit)46674_storage)dyn_storage"},"t_mapping(t_address,t_array(t_struct(SwapOrder)46696_storage)dyn_storage)":{"encoding":"mapping","key":"t_address","label":"mapping(address => struct Escrow.SwapOrder[])","numberOfBytes":"32","value":"t_array(t_struct(SwapOrder)46696_storage)dyn_storage"},"t_mapping(t_address,t_array(t_uint32)dyn_storage)":{"encoding":"mapping","key":"t_address","label":"mapping(address => uint32[])","numberOfBytes":"32","value":"t_array(t_uint32)dyn_storage"},"t_string_storage":{"encoding":"bytes","label":"string","numberOfBytes":"32"},"t_struct(LiquidityDeposit)46674_storage":{"encoding":"inplace","label":"struct Escrow.LiquidityDeposit","numberOfBytes":"192","members":[{"astId":46661,"contract":"src/Escrow.sol:Escrow","label":"ethDepositAmount","offset":0,"slot":"0","type":"t_uint256"},{"astId":46664,"contract":"src/Escrow.sol:Escrow","label":"ethReservedAmounts","offset":0,"slot":"1","type":"t_array(t_uint256)dyn_storage"},{"astId":46666,"contract":"src/Escrow.sol:Escrow","label":"btcExchangeRate","offset":0,"slot":"2","type":"t_uint256"},{"astId":46668,"contract":"src/Escrow.sol:Escrow","label":"btcPayoutAddress","offset":0,"slot":"3","type":"t_string_storage"},{"astId":46670,"contract":"src/Escrow.sol:Escrow","label":"depositStateHash","offset":0,"slot":"4","type":"t_bytes32"},{"astId":46673,"contract":"src/Escrow.sol:Escrow","label":"reservationTimestamps","offset":0,"slot":"5","type":"t_array(t_uint256)dyn_storage"}]},"t_struct(SwapOrder)46696_storage":{"encoding":"inplace","label":"struct Escrow.SwapOrder","numberOfBytes":"288","members":[{"astId":46677,"contract":"src/Escrow.sol:Escrow","label":"lpAddresses","offset":0,"slot":"0","type":"t_array(t_address)dyn_storage"},{"astId":46680,"contract":"src/Escrow.sol:Escrow","label":"depositIndexes","offset":0,"slot":"1","type":"t_array(t_uint32)dyn_storage"},{"astId":46683,"contract":"src/Escrow.sol:Escrow","label":"amountsToReserve","offset":0,"slot":"2","type":"t_array(t_uint256)dyn_storage"},{"astId":46685,"contract":"src/Escrow.sol:Escrow","label":"ethPayoutAddress","offset":0,"slot":"3","type":"t_address"},{"astId":46687,"contract":"src/Escrow.sol:Escrow","label":"btcSenderAddress","offset":0,"slot":"4","type":"t_string_storage"},{"astId":46689,"contract":"src/Escrow.sol:Escrow","label":"reservationTimestamp","offset":0,"slot":"5","type":"t_uint256"},{"astId":46691,"contract":"src/Escrow.sol:Escrow","label":"nonce","offset":0,"slot":"6","type":"t_bytes32"},{"astId":46693,"contract":"src/Escrow.sol:Escrow","label":"depositsHash","offset":0,"slot":"7","type":"t_bytes32"},{"astId":46695,"contract":"src/Escrow.sol:Escrow","label":"completed","offset":0,"slot":"8","type":"t_bool"}]},"t_uint256":{"encoding":"inplace","label":"uint256","numberOfBytes":"32"},"t_uint32":{"encoding":"inplace","label":"uint32","numberOfBytes":"4"},"t_uint8":{"encoding":"inplace","label":"uint8","numberOfBytes":"1"}}},"id":23}