{"abi":[{"type":"constructor","inputs":[{"name":"checkpoint_height","type":"uint256","internalType":"uint256"},{"name":"blockHash","type":"bytes32","internalType":"bytes32"}],"stateMutability":"nonpayable"},{"type":"function","name":"addBlock","inputs":[{"name":"blockCheckpointHeight","type":"uint256","internalType":"uint256"},{"name":"blockHeight","type":"uint256","internalType":"uint256"},{"name":"blockHash","type":"bytes32","internalType":"bytes32"}],"outputs":[],"stateMutability":"nonpayable"},{"type":"function","name":"currentHeight","inputs":[],"outputs":[{"name":"","type":"uint256","internalType":"uint256"}],"stateMutability":"view"},{"type":"function","name":"getBlockHash","inputs":[{"name":"blockHeight","type":"uint256","internalType":"uint256"}],"outputs":[{"name":"","type":"bytes32","internalType":"bytes32"}],"stateMutability":"view"},{"type":"function","name":"validateBlockExists","inputs":[{"name":"blockHeight","type":"uint256","internalType":"uint256"}],"outputs":[],"stateMutability":"view"},{"type":"error","name":"BlockDoesNotExist","inputs":[]},{"type":"error","name":"InvalidCheckpoint","inputs":[]}],"bytecode":{"object":"0x6080604052348015600f57600080fd5b5060405161025b38038061025b833981016040819052602c916045565b6001829055600091825260208290526040909120556068565b60008060408385031215605757600080fd5b505080516020909101519092909150565b6101e4806100776000396000f3fe608060405234801561001057600080fd5b506004361061004c5760003560e01c8063163de0c514610051578063e9c6c1761461006c578063ed8b2b3214610081578063ee82ac5e14610094575b600080fd5b61005a60015481565b60405190815260200160405180910390f35b61007f61007a366004610169565b6100b4565b005b61007f61008f366004610195565b61013a565b61005a6100a2366004610195565b60009081526020819052604090205490565b600154808411156100d857604051630f0f97d160e01b815260040160405180910390fd5b80841080156100e75750808310155b1561012457835b81811015610122576000818152602081905260409020541561011a576000818152602081905260408120555b6001016100ee565b505b5060008281526020819052604090205560015550565b6000818152602081905260409020546101665760405163fa4a5e4560e01b815260040160405180910390fd5b50565b60008060006060848603121561017e57600080fd5b505081359360208301359350604090920135919050565b6000602082840312156101a757600080fd5b503591905056fea264697066735822122029f85b5725827d18ea6c65502259219023e623ceca7d26b8e5796cfb216a593c64736f6c634300081a0033","linkReferences":{}},"methodIdentifiers":{"addBlock(uint256,uint256,bytes32)":"e9c6c176","currentHeight()":"163de0c5","getBlockHash(uint256)":"ee82ac5e","validateBlockExists(uint256)":"ed8b2b32"},"storageLayout":{"storage":[{"astId":46602,"contract":"src/BlockHashStorage.sol:BlockHashStorage","label":"blockchain","offset":0,"slot":"0","type":"t_mapping(t_uint256,t_bytes32)"},{"astId":46604,"contract":"src/BlockHashStorage.sol:BlockHashStorage","label":"currentHeight","offset":0,"slot":"1","type":"t_uint256"}],"types":{"t_bytes32":{"encoding":"inplace","label":"bytes32","numberOfBytes":"32"},"t_mapping(t_uint256,t_bytes32)":{"encoding":"mapping","key":"t_uint256","label":"mapping(uint256 => bytes32)","numberOfBytes":"32","value":"t_bytes32"},"t_uint256":{"encoding":"inplace","label":"uint256","numberOfBytes":"32"}}},"id":23}